{
  "_format": "hh-sol-artifact-1",
  "contractName": "ChainsawProjects",
  "sourceName": "contracts/ChainsawProjects.sol",
  "abi": [
    {
      "inputs": [],
      "stateMutability": "nonpayable",
      "type": "constructor"
    },
    {
      "anonymous": false,
      "inputs": [
        {
          "indexed": true,
          "internalType": "address",
          "name": "owner",
          "type": "address"
        },
        {
          "indexed": true,
          "internalType": "address",
          "name": "approved",
          "type": "address"
        },
        {
          "indexed": true,
          "internalType": "uint256",
          "name": "tokenId",
          "type": "uint256"
        }
      ],
      "name": "Approval",
      "type": "event"
    },
    {
      "anonymous": false,
      "inputs": [
        {
          "indexed": true,
          "internalType": "address",
          "name": "owner",
          "type": "address"
        },
        {
          "indexed": true,
          "internalType": "address",
          "name": "operator",
          "type": "address"
        },
        {
          "indexed": false,
          "internalType": "bool",
          "name": "approved",
          "type": "bool"
        }
      ],
      "name": "ApprovalForAll",
      "type": "event"
    },
    {
      "anonymous": false,
      "inputs": [
        {
          "indexed": true,
          "internalType": "address",
          "name": "from",
          "type": "address"
        },
        {
          "indexed": true,
          "internalType": "address",
          "name": "to",
          "type": "address"
        },
        {
          "indexed": true,
          "internalType": "uint256",
          "name": "tokenId",
          "type": "uint256"
        }
      ],
      "name": "Transfer",
      "type": "event"
    },
    {
      "inputs": [
        {
          "internalType": "string",
          "name": "name",
          "type": "string"
        },
        {
          "internalType": "address",
          "name": "nft",
          "type": "address"
        }
      ],
      "name": "addProject",
      "outputs": [],
      "stateMutability": "nonpayable",
      "type": "function"
    },
    {
      "inputs": [
        {
          "internalType": "address",
          "name": "to",
          "type": "address"
        },
        {
          "internalType": "uint256",
          "name": "tokenId",
          "type": "uint256"
        }
      ],
      "name": "approve",
      "outputs": [],
      "stateMutability": "nonpayable",
      "type": "function"
    },
    {
      "inputs": [
        {
          "internalType": "address",
          "name": "owner",
          "type": "address"
        }
      ],
      "name": "balanceOf",
      "outputs": [
        {
          "internalType": "uint256",
          "name": "",
          "type": "uint256"
        }
      ],
      "stateMutability": "view",
      "type": "function"
    },
    {
      "inputs": [
        {
          "internalType": "uint256",
          "name": "tokenId",
          "type": "uint256"
        }
      ],
      "name": "getApproved",
      "outputs": [
        {
          "internalType": "address",
          "name": "",
          "type": "address"
        }
      ],
      "stateMutability": "view",
      "type": "function"
    },
    {
      "inputs": [
        {
          "internalType": "address",
          "name": "owner",
          "type": "address"
        },
        {
          "internalType": "address",
          "name": "operator",
          "type": "address"
        }
      ],
      "name": "isApprovedForAll",
      "outputs": [
        {
          "internalType": "bool",
          "name": "",
          "type": "bool"
        }
      ],
      "stateMutability": "view",
      "type": "function"
    },
    {
      "inputs": [],
      "name": "name",
      "outputs": [
        {
          "internalType": "string",
          "name": "",
          "type": "string"
        }
      ],
      "stateMutability": "view",
      "type": "function"
    },
    {
      "inputs": [
        {
          "internalType": "uint256",
          "name": "tokenId",
          "type": "uint256"
        }
      ],
      "name": "ownerOf",
      "outputs": [
        {
          "internalType": "address",
          "name": "",
          "type": "address"
        }
      ],
      "stateMutability": "view",
      "type": "function"
    },
    {
      "inputs": [
        {
          "internalType": "uint256",
          "name": "",
          "type": "uint256"
        }
      ],
      "name": "registry",
      "outputs": [
        {
          "internalType": "string",
          "name": "name",
          "type": "string"
        },
        {
          "internalType": "address",
          "name": "NFT",
          "type": "address"
        }
      ],
      "stateMutability": "view",
      "type": "function"
    },
    {
      "inputs": [
        {
          "internalType": "address",
          "name": "from",
          "type": "address"
        },
        {
          "internalType": "address",
          "name": "to",
          "type": "address"
        },
        {
          "internalType": "uint256",
          "name": "tokenId",
          "type": "uint256"
        }
      ],
      "name": "safeTransferFrom",
      "outputs": [],
      "stateMutability": "nonpayable",
      "type": "function"
    },
    {
      "inputs": [
        {
          "internalType": "address",
          "name": "from",
          "type": "address"
        },
        {
          "internalType": "address",
          "name": "to",
          "type": "address"
        },
        {
          "internalType": "uint256",
          "name": "tokenId",
          "type": "uint256"
        },
        {
          "internalType": "bytes",
          "name": "_data",
          "type": "bytes"
        }
      ],
      "name": "safeTransferFrom",
      "outputs": [],
      "stateMutability": "nonpayable",
      "type": "function"
    },
    {
      "inputs": [
        {
          "internalType": "address",
          "name": "operator",
          "type": "address"
        },
        {
          "internalType": "bool",
          "name": "approved",
          "type": "bool"
        }
      ],
      "name": "setApprovalForAll",
      "outputs": [],
      "stateMutability": "nonpayable",
      "type": "function"
    },
    {
      "inputs": [
        {
          "internalType": "bytes4",
          "name": "interfaceId",
          "type": "bytes4"
        }
      ],
      "name": "supportsInterface",
      "outputs": [
        {
          "internalType": "bool",
          "name": "",
          "type": "bool"
        }
      ],
      "stateMutability": "view",
      "type": "function"
    },
    {
      "inputs": [],
      "name": "symbol",
      "outputs": [
        {
          "internalType": "string",
          "name": "",
          "type": "string"
        }
      ],
      "stateMutability": "view",
      "type": "function"
    },
    {
      "inputs": [
        {
          "internalType": "uint256",
          "name": "tokenId",
          "type": "uint256"
        }
      ],
      "name": "tokenURI",
      "outputs": [
        {
          "internalType": "string",
          "name": "",
          "type": "string"
        }
      ],
      "stateMutability": "view",
      "type": "function"
    },
    {
      "inputs": [
        {
          "internalType": "address",
          "name": "from",
          "type": "address"
        },
        {
          "internalType": "address",
          "name": "to",
          "type": "address"
        },
        {
          "internalType": "uint256",
          "name": "tokenId",
          "type": "uint256"
        }
      ],
      "name": "transferFrom",
      "outputs": [],
      "stateMutability": "nonpayable",
      "type": "function"
    }
  ],
  "bytecode": "0x60806040523480156200001157600080fd5b506040518060400160405280601181526020017f436861696e7361772050726f6a656374730000000000000000000000000000008152506040518060400160405280600381526020017f4353500000000000000000000000000000000000000000000000000000000000815250816000908051906020019062000096929190620000b8565b508060019080519060200190620000af929190620000b8565b505050620001cd565b828054620000c69062000168565b90600052602060002090601f016020900481019282620000ea576000855562000136565b82601f106200010557805160ff191683800117855562000136565b8280016001018555821562000136579182015b828111156200013557825182559160200191906001019062000118565b5b50905062000145919062000149565b5090565b5b80821115620001645760008160009055506001016200014a565b5090565b600060028204905060018216806200018157607f821691505b602082108114156200019857620001976200019e565b5b50919050565b7f4e487b7100000000000000000000000000000000000000000000000000000000600052602260045260246000fd5b612afb80620001dd6000396000f3fe608060405234801561001057600080fd5b50600436106100f55760003560e01c80636352211e11610097578063b88d4fde11610066578063b88d4fde14610297578063c87b56dd146102b3578063cc90e725146102e3578063e985e9c5146102ff576100f5565b80636352211e146101fd57806370a082311461022d57806395d89b411461025d578063a22cb4651461027b576100f5565b8063095ea7b3116100d3578063095ea7b31461017857806323b872dd1461019457806342842e0e146101b05780635893253c146101cc576100f5565b806301ffc9a7146100fa57806306fdde031461012a578063081812fc14610148575b600080fd5b610114600480360381019061010f9190611c75565b61032f565b604051610121919061208d565b60405180910390f35b610132610411565b60405161013f91906120a8565b60405180910390f35b610162600480360381019061015d9190611d1f565b6104a3565b60405161016f9190612026565b60405180910390f35b610192600480360381019061018d9190611c39565b610528565b005b6101ae60048036038101906101a99190611b33565b610640565b005b6101ca60048036038101906101c59190611b33565b6106a0565b005b6101e660048036038101906101e19190611d1f565b6106c0565b6040516101f49291906120ca565b60405180910390f35b61021760048036038101906102129190611d1f565b61078c565b6040516102249190612026565b60405180910390f35b61024760048036038101906102429190611ace565b61083e565b60405161025491906122ba565b60405180910390f35b6102656108f6565b60405161027291906120a8565b60405180910390f35b61029560048036038101906102909190611bfd565b610988565b005b6102b160048036038101906102ac9190611b82565b61099e565b005b6102cd60048036038101906102c89190611d1f565b610a00565b6040516102da91906120a8565b60405180910390f35b6102fd60048036038101906102f89190611cc7565b610aa7565b005b61031960048036038101906103149190611af7565b610c28565b604051610326919061208d565b60405180910390f35b60007f80ac58cd000000000000000000000000000000000000000000000000000000007bffffffffffffffffffffffffffffffffffffffffffffffffffffffff1916827bffffffffffffffffffffffffffffffffffffffffffffffffffffffff191614806103fa57507f5b5e139f000000000000000000000000000000000000000000000000000000007bffffffffffffffffffffffffffffffffffffffffffffffffffffffff1916827bffffffffffffffffffffffffffffffffffffffffffffffffffffffff1916145b8061040a575061040982610cbc565b5b9050919050565b606060008054610420906124df565b80601f016020809104026020016040519081016040528092919081815260200182805461044c906124df565b80156104995780601f1061046e57610100808354040283529160200191610499565b820191906000526020600020905b81548152906001019060200180831161047c57829003601f168201915b5050505050905090565b60006104ae82610d26565b6104ed576040517f08c379a00000000000000000000000000000000000000000000000000000000081526004016104e49061221a565b60405180910390fd5b6004600083815260200190815260200160002060009054906101000a900473ffffffffffffffffffffffffffffffffffffffff169050919050565b60006105338261078c565b90508073ffffffffffffffffffffffffffffffffffffffff168373ffffffffffffffffffffffffffffffffffffffff1614156105a4576040517f08c379a000000000000000000000000000000000000000000000000000000000815260040161059b9061227a565b60405180910390fd5b8073ffffffffffffffffffffffffffffffffffffffff166105c3610d92565b73ffffffffffffffffffffffffffffffffffffffff1614806105f257506105f1816105ec610d92565b610c28565b5b610631576040517f08c379a00000000000000000000000000000000000000000000000000000000081526004016106289061219a565b60405180910390fd5b61063b8383610d9a565b505050565b61065161064b610d92565b82610e53565b610690576040517f08c379a00000000000000000000000000000000000000000000000000000000081526004016106879061229a565b60405180910390fd5b61069b838383610f31565b505050565b6106bb8383836040518060200160405280600081525061099e565b505050565b60076020528060005260406000206000915090508060000180546106e3906124df565b80601f016020809104026020016040519081016040528092919081815260200182805461070f906124df565b801561075c5780601f106107315761010080835404028352916020019161075c565b820191906000526020600020905b81548152906001019060200180831161073f57829003601f168201915b5050505050908060010160009054906101000a900473ffffffffffffffffffffffffffffffffffffffff16905082565b6000806002600084815260200190815260200160002060009054906101000a900473ffffffffffffffffffffffffffffffffffffffff169050600073ffffffffffffffffffffffffffffffffffffffff168173ffffffffffffffffffffffffffffffffffffffff161415610835576040517f08c379a000000000000000000000000000000000000000000000000000000000815260040161082c906121da565b60405180910390fd5b80915050919050565b60008073ffffffffffffffffffffffffffffffffffffffff168273ffffffffffffffffffffffffffffffffffffffff1614156108af576040517f08c379a00000000000000000000000000000000000000000000000000000000081526004016108a6906121ba565b60405180910390fd5b600360008373ffffffffffffffffffffffffffffffffffffffff1673ffffffffffffffffffffffffffffffffffffffff168152602001908152602001600020549050919050565b606060018054610905906124df565b80601f0160208091040260200160405190810160405280929190818152602001828054610931906124df565b801561097e5780601f106109535761010080835404028352916020019161097e565b820191906000526020600020905b81548152906001019060200180831161096157829003601f168201915b5050505050905090565b61099a610993610d92565b838361118d565b5050565b6109af6109a9610d92565b83610e53565b6109ee576040517f08c379a00000000000000000000000000000000000000000000000000000000081526004016109e59061229a565b60405180910390fd5b6109fa848484846112fa565b50505050565b6060610a0b82610d26565b610a4a576040517f08c379a0000000000000000000000000000000000000000000000000000000008152600401610a419061225a565b60405180910390fd5b6000610a54611356565b90506000815111610a745760405180602001604052806000815250610a9f565b80610a7e8461136d565b604051602001610a8f929190612002565b6040516020818303038152906040525b915050919050565b604051806040016040528084848080601f016020809104026020016040519081016040528093929190818152602001838380828437600081840152601f19601f8201169050808301925050505050505081526020018273ffffffffffffffffffffffffffffffffffffffff168152506007600060065481526020019081526020016000206000820151816000019080519060200190610b47929190611910565b5060208201518160010160006101000a81548173ffffffffffffffffffffffffffffffffffffffff021916908373ffffffffffffffffffffffffffffffffffffffff1602179055509050508073ffffffffffffffffffffffffffffffffffffffff1663ce9246dd6006546040518263ffffffff1660e01b8152600401610bcd91906122ba565b600060405180830381600087803b158015610be757600080fd5b505af1158015610bfb573d6000803e3d6000fd5b50505050610c0b3360065461151a565b60066000815480929190610c1e90612542565b9190505550505050565b6000600560008473ffffffffffffffffffffffffffffffffffffffff1673ffffffffffffffffffffffffffffffffffffffff16815260200190815260200160002060008373ffffffffffffffffffffffffffffffffffffffff1673ffffffffffffffffffffffffffffffffffffffff16815260200190815260200160002060009054906101000a900460ff16905092915050565b60007f01ffc9a7000000000000000000000000000000000000000000000000000000007bffffffffffffffffffffffffffffffffffffffffffffffffffffffff1916827bffffffffffffffffffffffffffffffffffffffffffffffffffffffff1916149050919050565b60008073ffffffffffffffffffffffffffffffffffffffff166002600084815260200190815260200160002060009054906101000a900473ffffffffffffffffffffffffffffffffffffffff1673ffffffffffffffffffffffffffffffffffffffff1614159050919050565b600033905090565b816004600083815260200190815260200160002060006101000a81548173ffffffffffffffffffffffffffffffffffffffff021916908373ffffffffffffffffffffffffffffffffffffffff160217905550808273ffffffffffffffffffffffffffffffffffffffff16610e0d8361078c565b73ffffffffffffffffffffffffffffffffffffffff167f8c5be1e5ebec7d5bd14f71427d1e84f3dd0314c0f7b2291e5b200ac8c7c3b92560405160405180910390a45050565b6000610e5e82610d26565b610e9d576040517f08c379a0000000000000000000000000000000000000000000000000000000008152600401610e949061217a565b60405180910390fd5b6000610ea88361078c565b90508073ffffffffffffffffffffffffffffffffffffffff168473ffffffffffffffffffffffffffffffffffffffff161480610f1757508373ffffffffffffffffffffffffffffffffffffffff16610eff846104a3565b73ffffffffffffffffffffffffffffffffffffffff16145b80610f285750610f278185610c28565b5b91505092915050565b8273ffffffffffffffffffffffffffffffffffffffff16610f518261078c565b73ffffffffffffffffffffffffffffffffffffffff1614610fa7576040517f08c379a0000000000000000000000000000000000000000000000000000000008152600401610f9e9061223a565b60405180910390fd5b600073ffffffffffffffffffffffffffffffffffffffff168273ffffffffffffffffffffffffffffffffffffffff161415611017576040517f08c379a000000000000000000000000000000000000000000000000000000000815260040161100e9061213a565b60405180910390fd5b611022838383611538565b61102d600082610d9a565b6001600360008573ffffffffffffffffffffffffffffffffffffffff1673ffffffffffffffffffffffffffffffffffffffff168152602001908152602001600020600082825461107d91906123f5565b925050819055506001600360008473ffffffffffffffffffffffffffffffffffffffff1673ffffffffffffffffffffffffffffffffffffffff16815260200190815260200160002060008282546110d4919061236e565b92505081905550816002600083815260200190815260200160002060006101000a81548173ffffffffffffffffffffffffffffffffffffffff021916908373ffffffffffffffffffffffffffffffffffffffff160217905550808273ffffffffffffffffffffffffffffffffffffffff168473ffffffffffffffffffffffffffffffffffffffff167fddf252ad1be2c89b69c2b068fc378daa952ba7f163c4a11628f55a4df523b3ef60405160405180910390a4505050565b8173ffffffffffffffffffffffffffffffffffffffff168373ffffffffffffffffffffffffffffffffffffffff1614156111fc576040517f08c379a00000000000000000000000000000000000000000000000000000000081526004016111f39061215a565b60405180910390fd5b80600560008573ffffffffffffffffffffffffffffffffffffffff1673ffffffffffffffffffffffffffffffffffffffff16815260200190815260200160002060008473ffffffffffffffffffffffffffffffffffffffff1673ffffffffffffffffffffffffffffffffffffffff16815260200190815260200160002060006101000a81548160ff0219169083151502179055508173ffffffffffffffffffffffffffffffffffffffff168373ffffffffffffffffffffffffffffffffffffffff167f17307eab39ab6107e8899845ad3d59bd9653f200f220920489ca2b5937696c31836040516112ed919061208d565b60405180910390a3505050565b611305848484610f31565b6113118484848461153d565b611350576040517f08c379a0000000000000000000000000000000000000000000000000000000008152600401611347906120fa565b60405180910390fd5b50505050565b606060405180602001604052806000815250905090565b606060008214156113b5576040518060400160405280600181526020017f30000000000000000000000000000000000000000000000000000000000000008152509050611515565b600082905060005b600082146113e75780806113d090612542565b915050600a826113e091906123c4565b91506113bd565b60008167ffffffffffffffff811115611429577f4e487b7100000000000000000000000000000000000000000000000000000000600052604160045260246000fd5b6040519080825280601f01601f19166020018201604052801561145b5781602001600182028036833780820191505090505b5090505b6000851461150e5760018261147491906123f5565b9150600a85611483919061258b565b603061148f919061236e565b60f81b8183815181106114cb577f4e487b7100000000000000000000000000000000000000000000000000000000600052603260045260246000fd5b60200101907effffffffffffffffffffffffffffffffffffffffffffffffffffffffffffff1916908160001a905350600a8561150791906123c4565b945061145f565b8093505050505b919050565b6115348282604051806020016040528060008152506116d4565b5050565b505050565b600061155e8473ffffffffffffffffffffffffffffffffffffffff1661172f565b156116c7578373ffffffffffffffffffffffffffffffffffffffff1663150b7a02611587610d92565b8786866040518563ffffffff1660e01b81526004016115a99493929190612041565b602060405180830381600087803b1580156115c357600080fd5b505af19250505080156115f457506040513d601f19601f820116820180604052508101906115f19190611c9e565b60015b611677573d8060008114611624576040519150601f19603f3d011682016040523d82523d6000602084013e611629565b606091505b5060008151141561166f576040517f08c379a0000000000000000000000000000000000000000000000000000000008152600401611666906120fa565b60405180910390fd5b805181602001fd5b63150b7a0260e01b7bffffffffffffffffffffffffffffffffffffffffffffffffffffffff1916817bffffffffffffffffffffffffffffffffffffffffffffffffffffffff1916149150506116cc565b600190505b949350505050565b6116de8383611742565b6116eb600084848461153d565b61172a576040517f08c379a0000000000000000000000000000000000000000000000000000000008152600401611721906120fa565b60405180910390fd5b505050565b600080823b905060008111915050919050565b600073ffffffffffffffffffffffffffffffffffffffff168273ffffffffffffffffffffffffffffffffffffffff1614156117b2576040517f08c379a00000000000000000000000000000000000000000000000000000000081526004016117a9906121fa565b60405180910390fd5b6117bb81610d26565b156117fb576040517f08c379a00000000000000000000000000000000000000000000000000000000081526004016117f29061211a565b60405180910390fd5b61180760008383611538565b6001600360008473ffffffffffffffffffffffffffffffffffffffff1673ffffffffffffffffffffffffffffffffffffffff1681526020019081526020016000206000828254611857919061236e565b92505081905550816002600083815260200190815260200160002060006101000a81548173ffffffffffffffffffffffffffffffffffffffff021916908373ffffffffffffffffffffffffffffffffffffffff160217905550808273ffffffffffffffffffffffffffffffffffffffff16600073ffffffffffffffffffffffffffffffffffffffff167fddf252ad1be2c89b69c2b068fc378daa952ba7f163c4a11628f55a4df523b3ef60405160405180910390a45050565b82805461191c906124df565b90600052602060002090601f01602090048101928261193e5760008555611985565b82601f1061195757805160ff1916838001178555611985565b82800160010185558215611985579182015b82811115611984578251825591602001919060010190611969565b5b5090506119929190611996565b5090565b5b808211156119af576000816000905550600101611997565b5090565b60006119c66119c1846122fa565b6122d5565b9050828152602081018484840111156119de57600080fd5b6119e984828561249d565b509392505050565b600081359050611a0081612a69565b92915050565b600081359050611a1581612a80565b92915050565b600081359050611a2a81612a97565b92915050565b600081519050611a3f81612a97565b92915050565b600082601f830112611a5657600080fd5b8135611a668482602086016119b3565b91505092915050565b60008083601f840112611a8157600080fd5b8235905067ffffffffffffffff811115611a9a57600080fd5b602083019150836001820283011115611ab257600080fd5b9250929050565b600081359050611ac881612aae565b92915050565b600060208284031215611ae057600080fd5b6000611aee848285016119f1565b91505092915050565b60008060408385031215611b0a57600080fd5b6000611b18858286016119f1565b9250506020611b29858286016119f1565b9150509250929050565b600080600060608486031215611b4857600080fd5b6000611b56868287016119f1565b9350506020611b67868287016119f1565b9250506040611b7886828701611ab9565b9150509250925092565b60008060008060808587031215611b9857600080fd5b6000611ba6878288016119f1565b9450506020611bb7878288016119f1565b9350506040611bc887828801611ab9565b925050606085013567ffffffffffffffff811115611be557600080fd5b611bf187828801611a45565b91505092959194509250565b60008060408385031215611c1057600080fd5b6000611c1e858286016119f1565b9250506020611c2f85828601611a06565b9150509250929050565b60008060408385031215611c4c57600080fd5b6000611c5a858286016119f1565b9250506020611c6b85828601611ab9565b9150509250929050565b600060208284031215611c8757600080fd5b6000611c9584828501611a1b565b91505092915050565b600060208284031215611cb057600080fd5b6000611cbe84828501611a30565b91505092915050565b600080600060408486031215611cdc57600080fd5b600084013567ffffffffffffffff811115611cf657600080fd5b611d0286828701611a6f565b93509350506020611d15868287016119f1565b9150509250925092565b600060208284031215611d3157600080fd5b6000611d3f84828501611ab9565b91505092915050565b611d5181612429565b82525050565b611d608161243b565b82525050565b6000611d718261232b565b611d7b8185612341565b9350611d8b8185602086016124ac565b611d9481612678565b840191505092915050565b6000611daa82612336565b611db48185612352565b9350611dc48185602086016124ac565b611dcd81612678565b840191505092915050565b6000611de382612336565b611ded8185612363565b9350611dfd8185602086016124ac565b80840191505092915050565b6000611e16603283612352565b9150611e2182612689565b604082019050919050565b6000611e39601c83612352565b9150611e44826126d8565b602082019050919050565b6000611e5c602483612352565b9150611e6782612701565b604082019050919050565b6000611e7f601983612352565b9150611e8a82612750565b602082019050919050565b6000611ea2602c83612352565b9150611ead82612779565b604082019050919050565b6000611ec5603883612352565b9150611ed0826127c8565b604082019050919050565b6000611ee8602a83612352565b9150611ef382612817565b604082019050919050565b6000611f0b602983612352565b9150611f1682612866565b604082019050919050565b6000611f2e602083612352565b9150611f39826128b5565b602082019050919050565b6000611f51602c83612352565b9150611f5c826128de565b604082019050919050565b6000611f74602983612352565b9150611f7f8261292d565b604082019050919050565b6000611f97602f83612352565b9150611fa28261297c565b604082019050919050565b6000611fba602183612352565b9150611fc5826129cb565b604082019050919050565b6000611fdd603183612352565b9150611fe882612a1a565b604082019050919050565b611ffc81612493565b82525050565b600061200e8285611dd8565b915061201a8284611dd8565b91508190509392505050565b600060208201905061203b6000830184611d48565b92915050565b60006080820190506120566000830187611d48565b6120636020830186611d48565b6120706040830185611ff3565b81810360608301526120828184611d66565b905095945050505050565b60006020820190506120a26000830184611d57565b92915050565b600060208201905081810360008301526120c28184611d9f565b905092915050565b600060408201905081810360008301526120e48185611d9f565b90506120f36020830184611d48565b9392505050565b6000602082019050818103600083015261211381611e09565b9050919050565b6000602082019050818103600083015261213381611e2c565b9050919050565b6000602082019050818103600083015261215381611e4f565b9050919050565b6000602082019050818103600083015261217381611e72565b9050919050565b6000602082019050818103600083015261219381611e95565b9050919050565b600060208201905081810360008301526121b381611eb8565b9050919050565b600060208201905081810360008301526121d381611edb565b9050919050565b600060208201905081810360008301526121f381611efe565b9050919050565b6000602082019050818103600083015261221381611f21565b9050919050565b6000602082019050818103600083015261223381611f44565b9050919050565b6000602082019050818103600083015261225381611f67565b9050919050565b6000602082019050818103600083015261227381611f8a565b9050919050565b6000602082019050818103600083015261229381611fad565b9050919050565b600060208201905081810360008301526122b381611fd0565b9050919050565b60006020820190506122cf6000830184611ff3565b92915050565b60006122df6122f0565b90506122eb8282612511565b919050565b6000604051905090565b600067ffffffffffffffff82111561231557612314612649565b5b61231e82612678565b9050602081019050919050565b600081519050919050565b600081519050919050565b600082825260208201905092915050565b600082825260208201905092915050565b600081905092915050565b600061237982612493565b915061238483612493565b9250827fffffffffffffffffffffffffffffffffffffffffffffffffffffffffffffffff038211156123b9576123b86125bc565b5b828201905092915050565b60006123cf82612493565b91506123da83612493565b9250826123ea576123e96125eb565b5b828204905092915050565b600061240082612493565b915061240b83612493565b92508282101561241e5761241d6125bc565b5b828203905092915050565b600061243482612473565b9050919050565b60008115159050919050565b60007fffffffff0000000000000000000000000000000000000000000000000000000082169050919050565b600073ffffffffffffffffffffffffffffffffffffffff82169050919050565b6000819050919050565b82818337600083830152505050565b60005b838110156124ca5780820151818401526020810190506124af565b838111156124d9576000848401525b50505050565b600060028204905060018216806124f757607f821691505b6020821081141561250b5761250a61261a565b5b50919050565b61251a82612678565b810181811067ffffffffffffffff8211171561253957612538612649565b5b80604052505050565b600061254d82612493565b91507fffffffffffffffffffffffffffffffffffffffffffffffffffffffffffffffff8214156125805761257f6125bc565b5b600182019050919050565b600061259682612493565b91506125a183612493565b9250826125b1576125b06125eb565b5b828206905092915050565b7f4e487b7100000000000000000000000000000000000000000000000000000000600052601160045260246000fd5b7f4e487b7100000000000000000000000000000000000000000000000000000000600052601260045260246000fd5b7f4e487b7100000000000000000000000000000000000000000000000000000000600052602260045260246000fd5b7f4e487b7100000000000000000000000000000000000000000000000000000000600052604160045260246000fd5b6000601f19601f8301169050919050565b7f4552433732313a207472616e7366657220746f206e6f6e20455243373231526560008201527f63656976657220696d706c656d656e7465720000000000000000000000000000602082015250565b7f4552433732313a20746f6b656e20616c7265616479206d696e74656400000000600082015250565b7f4552433732313a207472616e7366657220746f20746865207a65726f2061646460008201527f7265737300000000000000000000000000000000000000000000000000000000602082015250565b7f4552433732313a20617070726f766520746f2063616c6c657200000000000000600082015250565b7f4552433732313a206f70657261746f7220717565727920666f72206e6f6e657860008201527f697374656e7420746f6b656e0000000000000000000000000000000000000000602082015250565b7f4552433732313a20617070726f76652063616c6c6572206973206e6f74206f7760008201527f6e6572206e6f7220617070726f76656420666f7220616c6c0000000000000000602082015250565b7f4552433732313a2062616c616e636520717565727920666f7220746865207a6560008201527f726f206164647265737300000000000000000000000000000000000000000000602082015250565b7f4552433732313a206f776e657220717565727920666f72206e6f6e657869737460008201527f656e7420746f6b656e0000000000000000000000000000000000000000000000602082015250565b7f4552433732313a206d696e7420746f20746865207a65726f2061646472657373600082015250565b7f4552433732313a20617070726f76656420717565727920666f72206e6f6e657860008201527f697374656e7420746f6b656e0000000000000000000000000000000000000000602082015250565b7f4552433732313a207472616e73666572206f6620746f6b656e2074686174206960008201527f73206e6f74206f776e0000000000000000000000000000000000000000000000602082015250565b7f4552433732314d657461646174613a2055524920717565727920666f72206e6f60008201527f6e6578697374656e7420746f6b656e0000000000000000000000000000000000602082015250565b7f4552433732313a20617070726f76616c20746f2063757272656e74206f776e6560008201527f7200000000000000000000000000000000000000000000000000000000000000602082015250565b7f4552433732313a207472616e736665722063616c6c6572206973206e6f74206f60008201527f776e6572206e6f7220617070726f766564000000000000000000000000000000602082015250565b612a7281612429565b8114612a7d57600080fd5b50565b612a898161243b565b8114612a9457600080fd5b50565b612aa081612447565b8114612aab57600080fd5b50565b612ab781612493565b8114612ac257600080fd5b5056fea2646970667358221220bdc1cde766a51e2b13dde04555a01df7de0bd59c01c31d96c2a4d0c9b98edd8d64736f6c63430008040033",
  "linkReferences": {},
  "deployedLinkReferences": {}
}