{
  "_format": "hh-sol-artifact-1",
  "contractName": "TheAmazingTozziDuckMachine",
  "sourceName": "contracts/TheAmazingTozziDuckMachine.sol",
  "abi": [
    {
      "inputs": [
        {
          "internalType": "string",
          "name": "ownershipTokenURI",
          "type": "string"
        }
      ],
      "stateMutability": "nonpayable",
      "type": "constructor"
    },
    {
      "anonymous": false,
      "inputs": [
        {
          "indexed": true,
          "internalType": "address",
          "name": "owner",
          "type": "address"
        },
        {
          "indexed": true,
          "internalType": "address",
          "name": "approved",
          "type": "address"
        },
        {
          "indexed": true,
          "internalType": "uint256",
          "name": "tokenId",
          "type": "uint256"
        }
      ],
      "name": "Approval",
      "type": "event"
    },
    {
      "anonymous": false,
      "inputs": [
        {
          "indexed": true,
          "internalType": "address",
          "name": "owner",
          "type": "address"
        },
        {
          "indexed": true,
          "internalType": "address",
          "name": "operator",
          "type": "address"
        },
        {
          "indexed": false,
          "internalType": "bool",
          "name": "approved",
          "type": "bool"
        }
      ],
      "name": "ApprovalForAll",
      "type": "event"
    },
    {
      "anonymous": false,
      "inputs": [
        {
          "indexed": false,
          "internalType": "uint256",
          "name": "duckId",
          "type": "uint256"
        },
        {
          "indexed": false,
          "internalType": "address",
          "name": "admin",
          "type": "address"
        },
        {
          "indexed": false,
          "internalType": "address",
          "name": "owner",
          "type": "address"
        },
        {
          "indexed": false,
          "internalType": "string",
          "name": "reason",
          "type": "string"
        }
      ],
      "name": "CustomDuckBurned",
      "type": "event"
    },
    {
      "anonymous": false,
      "inputs": [
        {
          "indexed": true,
          "internalType": "enum DuckType",
          "name": "duckType",
          "type": "uint8"
        },
        {
          "indexed": true,
          "internalType": "address",
          "name": "who",
          "type": "address"
        },
        {
          "indexed": false,
          "internalType": "uint256",
          "name": "tokenId",
          "type": "uint256"
        },
        {
          "indexed": false,
          "internalType": "uint256",
          "name": "price",
          "type": "uint256"
        }
      ],
      "name": "DuckMinted",
      "type": "event"
    },
    {
      "anonymous": false,
      "inputs": [
        {
          "components": [
            {
              "internalType": "uint256",
              "name": "tozziDuckPrice",
              "type": "uint256"
            },
            {
              "internalType": "uint256",
              "name": "customDuckPrice",
              "type": "uint256"
            },
            {
              "internalType": "uint256",
              "name": "maxCustomDucks",
              "type": "uint256"
            },
            {
              "internalType": "bool",
              "name": "tozziDucksEnabled",
              "type": "bool"
            },
            {
              "internalType": "bool",
              "name": "customDucksEnabled",
              "type": "bool"
            }
          ],
          "indexed": true,
          "internalType": "struct TheAmazingTozziDuckMachine.MachineSetting",
          "name": "machineSetting",
          "type": "tuple"
        },
        {
          "indexed": true,
          "internalType": "address",
          "name": "who",
          "type": "address"
        }
      ],
      "name": "MachineSettingUpdated",
      "type": "event"
    },
    {
      "anonymous": false,
      "inputs": [
        {
          "indexed": true,
          "internalType": "address",
          "name": "from",
          "type": "address"
        },
        {
          "indexed": true,
          "internalType": "address",
          "name": "to",
          "type": "address"
        },
        {
          "indexed": true,
          "internalType": "uint256",
          "name": "tokenId",
          "type": "uint256"
        }
      ],
      "name": "Transfer",
      "type": "event"
    },
    {
      "inputs": [],
      "name": "BURN_WINDOW",
      "outputs": [
        {
          "internalType": "uint256",
          "name": "",
          "type": "uint256"
        }
      ],
      "stateMutability": "view",
      "type": "function"
    },
    {
      "inputs": [],
      "name": "OWNERSHIP_TOKEN_ID",
      "outputs": [
        {
          "internalType": "uint256",
          "name": "",
          "type": "uint256"
        }
      ],
      "stateMutability": "view",
      "type": "function"
    },
    {
      "inputs": [
        {
          "internalType": "address",
          "name": "to",
          "type": "address"
        },
        {
          "internalType": "uint256",
          "name": "tokenId",
          "type": "uint256"
        }
      ],
      "name": "approve",
      "outputs": [],
      "stateMutability": "nonpayable",
      "type": "function"
    },
    {
      "inputs": [
        {
          "internalType": "address",
          "name": "owner",
          "type": "address"
        }
      ],
      "name": "balanceOf",
      "outputs": [
        {
          "internalType": "uint256",
          "name": "",
          "type": "uint256"
        }
      ],
      "stateMutability": "view",
      "type": "function"
    },
    {
      "inputs": [
        {
          "internalType": "uint256",
          "name": "duckId",
          "type": "uint256"
        },
        {
          "internalType": "string",
          "name": "reason",
          "type": "string"
        }
      ],
      "name": "burnRenegadeDuck",
      "outputs": [],
      "stateMutability": "nonpayable",
      "type": "function"
    },
    {
      "inputs": [
        {
          "internalType": "uint256",
          "name": "",
          "type": "uint256"
        }
      ],
      "name": "customDuckHatchedTimes",
      "outputs": [
        {
          "internalType": "uint256",
          "name": "",
          "type": "uint256"
        }
      ],
      "stateMutability": "view",
      "type": "function"
    },
    {
      "inputs": [
        {
          "internalType": "uint256",
          "name": "",
          "type": "uint256"
        }
      ],
      "name": "duckIdToWEBP",
      "outputs": [
        {
          "internalType": "address",
          "name": "",
          "type": "address"
        }
      ],
      "stateMutability": "view",
      "type": "function"
    },
    {
      "inputs": [
        {
          "internalType": "uint256",
          "name": "tokenId",
          "type": "uint256"
        }
      ],
      "name": "getApproved",
      "outputs": [
        {
          "internalType": "address",
          "name": "",
          "type": "address"
        }
      ],
      "stateMutability": "view",
      "type": "function"
    },
    {
      "inputs": [
        {
          "internalType": "address",
          "name": "owner",
          "type": "address"
        },
        {
          "internalType": "address",
          "name": "operator",
          "type": "address"
        }
      ],
      "name": "isApprovedForAll",
      "outputs": [
        {
          "internalType": "bool",
          "name": "",
          "type": "bool"
        }
      ],
      "stateMutability": "view",
      "type": "function"
    },
    {
      "inputs": [
        {
          "internalType": "bytes32",
          "name": "",
          "type": "bytes32"
        }
      ],
      "name": "isCustomExisting",
      "outputs": [
        {
          "internalType": "bool",
          "name": "",
          "type": "bool"
        }
      ],
      "stateMutability": "view",
      "type": "function"
    },
    {
      "inputs": [],
      "name": "machineSetting",
      "outputs": [
        {
          "internalType": "uint256",
          "name": "tozziDuckPrice",
          "type": "uint256"
        },
        {
          "internalType": "uint256",
          "name": "customDuckPrice",
          "type": "uint256"
        },
        {
          "internalType": "uint256",
          "name": "maxCustomDucks",
          "type": "uint256"
        },
        {
          "internalType": "bool",
          "name": "tozziDucksEnabled",
          "type": "bool"
        },
        {
          "internalType": "bool",
          "name": "customDucksEnabled",
          "type": "bool"
        }
      ],
      "stateMutability": "view",
      "type": "function"
    },
    {
      "inputs": [
        {
          "internalType": "string",
          "name": "webp",
          "type": "string"
        }
      ],
      "name": "mintCustomDuck",
      "outputs": [],
      "stateMutability": "payable",
      "type": "function"
    },
    {
      "inputs": [
        {
          "internalType": "uint256",
          "name": "duckId",
          "type": "uint256"
        },
        {
          "internalType": "string",
          "name": "webp",
          "type": "string"
        },
        {
          "internalType": "bytes32[]",
          "name": "merkleProof",
          "type": "bytes32[]"
        }
      ],
      "name": "mintTozziDuck",
      "outputs": [],
      "stateMutability": "payable",
      "type": "function"
    },
    {
      "inputs": [],
      "name": "name",
      "outputs": [
        {
          "internalType": "string",
          "name": "",
          "type": "string"
        }
      ],
      "stateMutability": "view",
      "type": "function"
    },
    {
      "inputs": [
        {
          "internalType": "uint256",
          "name": "tokenId",
          "type": "uint256"
        }
      ],
      "name": "ownerOf",
      "outputs": [
        {
          "internalType": "address",
          "name": "",
          "type": "address"
        }
      ],
      "stateMutability": "view",
      "type": "function"
    },
    {
      "inputs": [
        {
          "internalType": "address",
          "name": "from",
          "type": "address"
        },
        {
          "internalType": "address",
          "name": "to",
          "type": "address"
        },
        {
          "internalType": "uint256",
          "name": "tokenId",
          "type": "uint256"
        }
      ],
      "name": "safeTransferFrom",
      "outputs": [],
      "stateMutability": "nonpayable",
      "type": "function"
    },
    {
      "inputs": [
        {
          "internalType": "address",
          "name": "from",
          "type": "address"
        },
        {
          "internalType": "address",
          "name": "to",
          "type": "address"
        },
        {
          "internalType": "uint256",
          "name": "tokenId",
          "type": "uint256"
        },
        {
          "internalType": "bytes",
          "name": "_data",
          "type": "bytes"
        }
      ],
      "name": "safeTransferFrom",
      "outputs": [],
      "stateMutability": "nonpayable",
      "type": "function"
    },
    {
      "inputs": [
        {
          "internalType": "address",
          "name": "operator",
          "type": "address"
        },
        {
          "internalType": "bool",
          "name": "approved",
          "type": "bool"
        }
      ],
      "name": "setApprovalForAll",
      "outputs": [],
      "stateMutability": "nonpayable",
      "type": "function"
    },
    {
      "inputs": [
        {
          "components": [
            {
              "internalType": "uint256",
              "name": "tozziDuckPrice",
              "type": "uint256"
            },
            {
              "internalType": "uint256",
              "name": "customDuckPrice",
              "type": "uint256"
            },
            {
              "internalType": "uint256",
              "name": "maxCustomDucks",
              "type": "uint256"
            },
            {
              "internalType": "bool",
              "name": "tozziDucksEnabled",
              "type": "bool"
            },
            {
              "internalType": "bool",
              "name": "customDucksEnabled",
              "type": "bool"
            }
          ],
          "internalType": "struct TheAmazingTozziDuckMachine.MachineSetting",
          "name": "setting",
          "type": "tuple"
        }
      ],
      "name": "setMachineSetting",
      "outputs": [],
      "stateMutability": "nonpayable",
      "type": "function"
    },
    {
      "inputs": [
        {
          "internalType": "bytes4",
          "name": "interfaceId",
          "type": "bytes4"
        }
      ],
      "name": "supportsInterface",
      "outputs": [
        {
          "internalType": "bool",
          "name": "",
          "type": "bool"
        }
      ],
      "stateMutability": "view",
      "type": "function"
    },
    {
      "inputs": [],
      "name": "symbol",
      "outputs": [
        {
          "internalType": "string",
          "name": "",
          "type": "string"
        }
      ],
      "stateMutability": "view",
      "type": "function"
    },
    {
      "inputs": [
        {
          "internalType": "uint256",
          "name": "tokenId",
          "type": "uint256"
        }
      ],
      "name": "tokenURI",
      "outputs": [
        {
          "internalType": "string",
          "name": "",
          "type": "string"
        }
      ],
      "stateMutability": "view",
      "type": "function"
    },
    {
      "inputs": [
        {
          "internalType": "address",
          "name": "from",
          "type": "address"
        },
        {
          "internalType": "address",
          "name": "to",
          "type": "address"
        },
        {
          "internalType": "uint256",
          "name": "tokenId",
          "type": "uint256"
        }
      ],
      "name": "transferFrom",
      "outputs": [],
      "stateMutability": "nonpayable",
      "type": "function"
    },
    {
      "inputs": [
        {
          "internalType": "address",
          "name": "recipient",
          "type": "address"
        },
        {
          "internalType": "uint256",
          "name": "amount",
          "type": "uint256"
        }
      ],
      "name": "withdraw",
      "outputs": [],
      "stateMutability": "nonpayable",
      "type": "function"
    }
  ],
  "bytecode": "0x60806040523480156200001157600080fd5b506040516200572b3803806200572b83398181016040528101906200003791906200073f565b6040518060400160405280600b81526020017f546f7a7a69204475636b730000000000000000000000000000000000000000008152506040518060400160405280600781526020017f545a4455434b53000000000000000000000000000000000000000000000000008152508160009080519060200190620000bb929190620005da565b508060019080519060200190620000d4929190620005da565b5050508060079080519060200190620000ef929190620005da565b5062000113620001046200011a60201b60201c565b6101a46200012260201b60201c565b5062000c64565b600033905090565b620001448282604051806020016040528060008152506200014860201b60201c565b5050565b6200015a8383620001b660201b60201c565b6200016f60008484846200039c60201b60201c565b620001b1576040517f08c379a0000000000000000000000000000000000000000000000000000000008152600401620001a890620008b0565b60405180910390fd5b505050565b600073ffffffffffffffffffffffffffffffffffffffff168273ffffffffffffffffffffffffffffffffffffffff16141562000229576040517f08c379a00000000000000000000000000000000000000000000000000000000081526004016200022090620008f4565b60405180910390fd5b6200023a816200055660201b60201c565b156200027d576040517f08c379a00000000000000000000000000000000000000000000000000000000081526004016200027490620008d2565b60405180910390fd5b6200029160008383620005c260201b60201c565b6001600360008473ffffffffffffffffffffffffffffffffffffffff1673ffffffffffffffffffffffffffffffffffffffff1681526020019081526020016000206000828254620002e39190620009a2565b92505081905550816002600083815260200190815260200160002060006101000a81548173ffffffffffffffffffffffffffffffffffffffff021916908373ffffffffffffffffffffffffffffffffffffffff160217905550808273ffffffffffffffffffffffffffffffffffffffff16600073ffffffffffffffffffffffffffffffffffffffff167fddf252ad1be2c89b69c2b068fc378daa952ba7f163c4a11628f55a4df523b3ef60405160405180910390a45050565b6000620003ca8473ffffffffffffffffffffffffffffffffffffffff16620005c760201b620019231760201c565b1562000549578373ffffffffffffffffffffffffffffffffffffffff1663150b7a02620003fc6200011a60201b60201c565b8786866040518563ffffffff1660e01b81526004016200042094939291906200085c565b602060405180830381600087803b1580156200043b57600080fd5b505af19250505080156200046f57506040513d601f19601f820116820180604052508101906200046c919062000713565b60015b620004f8573d8060008114620004a2576040519150601f19603f3d011682016040523d82523d6000602084013e620004a7565b606091505b50600081511415620004f0576040517f08c379a0000000000000000000000000000000000000000000000000000000008152600401620004e790620008b0565b60405180910390fd5b805181602001fd5b63150b7a0260e01b7bffffffffffffffffffffffffffffffffffffffffffffffffffffffff1916817bffffffffffffffffffffffffffffffffffffffffffffffffffffffff1916149150506200054e565b600190505b949350505050565b60008073ffffffffffffffffffffffffffffffffffffffff166002600084815260200190815260200160002060009054906101000a900473ffffffffffffffffffffffffffffffffffffffff1673ffffffffffffffffffffffffffffffffffffffff1614159050919050565b505050565b600080823b905060008111915050919050565b828054620005e89062000a9f565b90600052602060002090601f0160209004810192826200060c576000855562000658565b82601f106200062757805160ff191683800117855562000658565b8280016001018555821562000658579182015b82811115620006575782518255916020019190600101906200063a565b5b5090506200066791906200066b565b5090565b5b80821115620006865760008160009055506001016200066c565b5090565b6000620006a16200069b846200093f565b62000916565b905082815260208101848484011115620006ba57600080fd5b620006c784828562000a69565b509392505050565b600081519050620006e08162000c4a565b92915050565b600082601f830112620006f857600080fd5b81516200070a8482602086016200068a565b91505092915050565b6000602082840312156200072657600080fd5b60006200073684828501620006cf565b91505092915050565b6000602082840312156200075257600080fd5b600082015167ffffffffffffffff8111156200076d57600080fd5b6200077b84828501620006e6565b91505092915050565b6200078f81620009ff565b82525050565b6000620007a28262000975565b620007ae818562000980565b9350620007c081856020860162000a69565b620007cb8162000b98565b840191505092915050565b6000620007e560328362000991565b9150620007f28262000ba9565b604082019050919050565b60006200080c601c8362000991565b9150620008198262000bf8565b602082019050919050565b60006200083360208362000991565b9150620008408262000c21565b602082019050919050565b620008568162000a5f565b82525050565b600060808201905062000873600083018762000784565b62000882602083018662000784565b6200089160408301856200084b565b8181036060830152620008a5818462000795565b905095945050505050565b60006020820190508181036000830152620008cb81620007d6565b9050919050565b60006020820190508181036000830152620008ed81620007fd565b9050919050565b600060208201905081810360008301526200090f8162000824565b9050919050565b60006200092262000935565b905062000930828262000ad5565b919050565b6000604051905090565b600067ffffffffffffffff8211156200095d576200095c62000b69565b5b620009688262000b98565b9050602081019050919050565b600081519050919050565b600082825260208201905092915050565b600082825260208201905092915050565b6000620009af8262000a5f565b9150620009bc8362000a5f565b9250827fffffffffffffffffffffffffffffffffffffffffffffffffffffffffffffffff03821115620009f457620009f362000b0b565b5b828201905092915050565b600062000a0c8262000a3f565b9050919050565b60007fffffffff0000000000000000000000000000000000000000000000000000000082169050919050565b600073ffffffffffffffffffffffffffffffffffffffff82169050919050565b6000819050919050565b60005b8381101562000a8957808201518184015260208101905062000a6c565b8381111562000a99576000848401525b50505050565b6000600282049050600182168062000ab857607f821691505b6020821081141562000acf5762000ace62000b3a565b5b50919050565b62000ae08262000b98565b810181811067ffffffffffffffff8211171562000b025762000b0162000b69565b5b80604052505050565b7f4e487b7100000000000000000000000000000000000000000000000000000000600052601160045260246000fd5b7f4e487b7100000000000000000000000000000000000000000000000000000000600052602260045260246000fd5b7f4e487b7100000000000000000000000000000000000000000000000000000000600052604160045260246000fd5b6000601f19601f8301169050919050565b7f4552433732313a207472616e7366657220746f206e6f6e20455243373231526560008201527f63656976657220696d706c656d656e7465720000000000000000000000000000602082015250565b7f4552433732313a20746f6b656e20616c7265616479206d696e74656400000000600082015250565b7f4552433732313a206d696e7420746f20746865207a65726f2061646472657373600082015250565b62000c558162000a13565b811462000c6157600080fd5b50565b614ab78062000c746000396000f3fe60806040526004361061014b5760003560e01c806370a08231116100b6578063c40f41751161006f578063c40f4175146104ab578063c87b56dd146104e8578063d032e48714610525578063e67399fa1461054e578063e985e9c51461056a578063f3fef3a3146105a75761014b565b806370a08231146103ac578063820e215f146103e957806395d89b4114610412578063a22cb4651461043d578063b88d4fde14610466578063c2d5afab1461048f5761014b565b806323b872dd1161010857806323b872dd146102985780632ec25c61146102c157806342842e0e146102ec578063491976a7146103155780634d5ea80e146103445780636352211e1461036f5761014b565b806301ffc9a71461015057806306fdde031461018d578063081812fc146101b8578063095ea7b3146101f5578063143725341461021e578063149ba6051461025b575b600080fd5b34801561015c57600080fd5b5061017760048036038101906101729190612e50565b6105d0565b604051610184919061395d565b60405180910390f35b34801561019957600080fd5b506101a26106b2565b6040516101af9190613978565b60405180910390f35b3480156101c457600080fd5b506101df60048036038101906101da9190612f10565b610744565b6040516101ec91906138f6565b60405180910390f35b34801561020157600080fd5b5061021c60048036038101906102179190612deb565b6107c9565b005b34801561022a57600080fd5b5061024560048036038101906102409190612f10565b6108e1565b6040516102529190613d1a565b60405180910390f35b34801561026757600080fd5b50610282600480360381019061027d9190612f10565b6108f9565b60405161028f91906138f6565b60405180910390f35b3480156102a457600080fd5b506102bf60048036038101906102ba9190612ce5565b61092c565b005b3480156102cd57600080fd5b506102d661098c565b6040516102e39190613d1a565b60405180910390f35b3480156102f857600080fd5b50610313600480360381019061030e9190612ce5565b610993565b005b34801561032157600080fd5b5061032a6109b3565b60405161033b959493929190613dac565b60405180910390f35b34801561035057600080fd5b506103596109f1565b6040516103669190613d1a565b60405180910390f35b34801561037b57600080fd5b5061039660048036038101906103919190612f10565b6109f7565b6040516103a391906138f6565b60405180910390f35b3480156103b857600080fd5b506103d360048036038101906103ce9190612c80565b610aa9565b6040516103e09190613d1a565b60405180910390f35b3480156103f557600080fd5b50610410600480360381019061040b9190612f39565b610b61565b005b34801561041e57600080fd5b50610427610d80565b6040516104349190613978565b60405180910390f35b34801561044957600080fd5b50610464600480360381019061045f9190612daf565b610e12565b005b34801561047257600080fd5b5061048d60048036038101906104889190612d34565b610e28565b005b6104a960048036038101906104a49190612f91565b610e8a565b005b3480156104b757600080fd5b506104d260048036038101906104cd9190612e27565b611153565b6040516104df919061395d565b60405180910390f35b3480156104f457600080fd5b5061050f600480360381019061050a9190612f10565b611173565b60405161051c9190613978565b60405180910390f35b34801561053157600080fd5b5061054c60048036038101906105479190612ee7565b6112d7565b005b61056860048036038101906105639190612ea2565b611420565b005b34801561057657600080fd5b50610591600480360381019061058c9190612ca9565b61177c565b60405161059e919061395d565b60405180910390f35b3480156105b357600080fd5b506105ce60048036038101906105c99190612deb565b611810565b005b60007f80ac58cd000000000000000000000000000000000000000000000000000000007bffffffffffffffffffffffffffffffffffffffffffffffffffffffff1916827bffffffffffffffffffffffffffffffffffffffffffffffffffffffff1916148061069b57507f5b5e139f000000000000000000000000000000000000000000000000000000007bffffffffffffffffffffffffffffffffffffffffffffffffffffffff1916827bffffffffffffffffffffffffffffffffffffffffffffffffffffffff1916145b806106ab57506106aa82611936565b5b9050919050565b6060600080546106c190614078565b80601f01602080910402602001604051908101604052809291908181526020018280546106ed90614078565b801561073a5780601f1061070f5761010080835404028352916020019161073a565b820191906000526020600020905b81548152906001019060200180831161071d57829003601f168201915b5050505050905090565b600061074f826119a0565b61078e576040517f08c379a000000000000000000000000000000000000000000000000000000000815260040161078590613b7a565b60405180910390fd5b6004600083815260200190815260200160002060009054906101000a900473ffffffffffffffffffffffffffffffffffffffff169050919050565b60006107d4826109f7565b90508073ffffffffffffffffffffffffffffffffffffffff168373ffffffffffffffffffffffffffffffffffffffff161415610845576040517f08c379a000000000000000000000000000000000000000000000000000000000815260040161083c90613bda565b60405180910390fd5b8073ffffffffffffffffffffffffffffffffffffffff16610864611a0c565b73ffffffffffffffffffffffffffffffffffffffff16148061089357506108928161088d611a0c565b61177c565b5b6108d2576040517f08c379a00000000000000000000000000000000000000000000000000000000081526004016108c990613ada565b60405180910390fd5b6108dc8383611a14565b505050565b600e6020528060005260406000206000915090505481565b600c6020528060005260406000206000915054906101000a900473ffffffffffffffffffffffffffffffffffffffff1681565b61093d610937611a0c565b82611acd565b61097c576040517f08c379a000000000000000000000000000000000000000000000000000000000815260040161097390613bfa565b60405180910390fd5b610987838383611bab565b505050565b62093a8081565b6109ae83838360405180602001604052806000815250610e28565b505050565b60088060000154908060010154908060020154908060030160009054906101000a900460ff16908060030160019054906101000a900460ff16905085565b6101a481565b6000806002600084815260200190815260200160002060009054906101000a900473ffffffffffffffffffffffffffffffffffffffff169050600073ffffffffffffffffffffffffffffffffffffffff168173ffffffffffffffffffffffffffffffffffffffff161415610aa0576040517f08c379a0000000000000000000000000000000000000000000000000000000008152600401610a9790613b3a565b60405180910390fd5b80915050919050565b60008073ffffffffffffffffffffffffffffffffffffffff168273ffffffffffffffffffffffffffffffffffffffff161415610b1a576040517f08c379a0000000000000000000000000000000000000000000000000000000008152600401610b1190613b1a565b60405180910390fd5b600360008373ffffffffffffffffffffffffffffffffffffffff1673ffffffffffffffffffffffffffffffffffffffff168152602001908152602001600020549050919050565b610b69611a0c565b73ffffffffffffffffffffffffffffffffffffffff16610b8a6101a46109f7565b73ffffffffffffffffffffffffffffffffffffffff1614610be0576040517f08c379a0000000000000000000000000000000000000000000000000000000008152600401610bd7906139da565b60405180910390fd5b60c8831015610c24576040517f08c379a0000000000000000000000000000000000000000000000000000000008152600401610c1b90613cfa565b60405180910390fd5b6101a4831415610c69576040517f08c379a0000000000000000000000000000000000000000000000000000000008152600401610c6090613c9a565b60405180910390fd5b610c72836119a0565b610cb1576040517f08c379a0000000000000000000000000000000000000000000000000000000008152600401610ca8906139ba565b60405180910390fd5b600042905062093a80600e600086815260200190815260200160002054610cd89190613ea3565b811115610d1a576040517f08c379a0000000000000000000000000000000000000000000000000000000008152600401610d1190613cda565b60405180910390fd5b6000610d25856109f7565b9050610d3085611e07565b7f8efa309b2a595f8cc583824fc568aadeb0d7f0b2697a8ee38c742dff2dfc020b85610d5d6101a46109f7565b838787604051610d71959493929190613d35565b60405180910390a15050505050565b606060018054610d8f90614078565b80601f0160208091040260200160405190810160405280929190818152602001828054610dbb90614078565b8015610e085780601f10610ddd57610100808354040283529160200191610e08565b820191906000526020600020905b815481529060010190602001808311610deb57829003601f168201915b5050505050905090565b610e24610e1d611a0c565b8383611f18565b5050565b610e39610e33611a0c565b83611acd565b610e78576040517f08c379a0000000000000000000000000000000000000000000000000000000008152600401610e6f90613bfa565b60405180910390fd5b610e8484848484612085565b50505050565b600860030160009054906101000a900460ff16610edc576040517f08c379a0000000000000000000000000000000000000000000000000000000008152600401610ed390613c7a565b60405180910390fd5b6008600001543414610f23576040517f08c379a0000000000000000000000000000000000000000000000000000000008152600401610f1a90613c5a565b60405180910390fd5b6000858585604051602001610f3a939291906138cc565b604051602081830303815290604052805190602001209050610fc1838380806020026020016040519081016040528093929190818152602001838360200280828437600081840152601f19601f820116905080830192505050505050507f0885f98e28c44d2dd7b21d5b9e2661e99e90482a771a419967dd2c9c8edfb0d760001b836120e1565b611000576040517f08c379a0000000000000000000000000000000000000000000000000000000008152600401610ff790613aba565b60405180910390fd5b600061104f86868080601f016020809104026020016040519081016040528093929190818152602001838380828437600081840152601f19601f820116905080830192505050505050506120f8565b905080600c600089815260200190815260200160002060006101000a81548173ffffffffffffffffffffffffffffffffffffffff021916908373ffffffffffffffffffffffffffffffffffffffff1602179055506110b46110ae611a0c565b886121c3565b6110bc611a0c565b73ffffffffffffffffffffffffffffffffffffffff166000600181111561110c577f4e487b7100000000000000000000000000000000000000000000000000000000600052602160045260246000fd5b7f75defe4009cda68109a3791163c97861b017d6c6e2ae24b1613d48793b4a131d89600860000154604051611142929190613d83565b60405180910390a350505050505050565b600d6020528060005260406000206000915054906101000a900460ff1681565b60606101a4821415611211576007805461118c90614078565b80601f01602080910402602001604051908101604052809291908181526020018280546111b890614078565b80156112055780601f106111da57610100808354040283529160200191611205565b820191906000526020600020905b8154815290600101906020018083116111e857829003601f168201915b505050505090506112d2565b600061124f600c600085815260200190815260200160002060009054906101000a900473ffffffffffffffffffffffffffffffffffffffff166121e1565b905060c883101561127d578060405160200161126b919061388f565b60405160208183030381529060405290505b6112af61128984612218565b8260405160200161129b9291906137e5565b6040516020818303038152906040526123c5565b6040516020016112bf919061386d565b6040516020818303038152906040529150505b919050565b6112df611a0c565b73ffffffffffffffffffffffffffffffffffffffff166113006101a46109f7565b73ffffffffffffffffffffffffffffffffffffffff1614611356576040517f08c379a000000000000000000000000000000000000000000000000000000000815260040161134d906139da565b60405180910390fd5b80600860008201518160000155602082015181600101556040820151816002015560608201518160030160006101000a81548160ff02191690831515021790555060808201518160030160016101000a81548160ff0219169083151502179055509050506113c56101a46109f7565b73ffffffffffffffffffffffffffffffffffffffff16816040516113e991906138b1565b60405180910390207f328070498b6001cb4f5245f080befc7b9cd074429ca9d8bf106f81945417800c60405160405180910390a350565b6101a460c86006546114329190613ea3565b1415611451576006600081548092919061144b906140db565b91905055505b600860030160019054906101000a900460ff166114a3576040517f08c379a000000000000000000000000000000000000000000000000000000000815260040161149a90613c3a565b60405180910390fd5b600860020154600654106114ec576040517f08c379a00000000000000000000000000000000000000000000000000000000081526004016114e390613afa565b60405180910390fd5b6008600101543414611533576040517f08c379a000000000000000000000000000000000000000000000000000000000815260040161152a90613c5a565b60405180910390fd5b600082826040516020016115489291906137aa565b604051602081830303815290604052805190602001209050600d600082815260200190815260200160002060009054906101000a900460ff16156115c1576040517f08c379a00000000000000000000000000000000000000000000000000000000081526004016115b890613b9a565b60405180910390fd5b6001600d600083815260200190815260200160002060006101000a81548160ff021916908315150217905550600060066000815480929190611602906140db565b9190505560c86116129190613ea3565b9050600061166385858080601f016020809104026020016040519081016040528093929190818152602001838380828437600081840152601f19601f820116905080830192505050505050506120f8565b905080600c600084815260200190815260200160002060006101000a81548173ffffffffffffffffffffffffffffffffffffffff021916908373ffffffffffffffffffffffffffffffffffffffff1602179055506116c86116c2611a0c565b836121c3565b42600e6000848152602001908152602001600020819055506116e8611a0c565b73ffffffffffffffffffffffffffffffffffffffff16600180811115611737577f4e487b7100000000000000000000000000000000000000000000000000000000600052602160045260246000fd5b7f75defe4009cda68109a3791163c97861b017d6c6e2ae24b1613d48793b4a131d8460086000015460405161176d929190613d83565b60405180910390a35050505050565b6000600560008473ffffffffffffffffffffffffffffffffffffffff1673ffffffffffffffffffffffffffffffffffffffff16815260200190815260200160002060008373ffffffffffffffffffffffffffffffffffffffff1673ffffffffffffffffffffffffffffffffffffffff16815260200190815260200160002060009054906101000a900460ff16905092915050565b611818611a0c565b73ffffffffffffffffffffffffffffffffffffffff166118396101a46109f7565b73ffffffffffffffffffffffffffffffffffffffff161461188f576040517f08c379a0000000000000000000000000000000000000000000000000000000008152600401611886906139da565b60405180910390fd5b478111156118d2576040517f08c379a00000000000000000000000000000000000000000000000000000000081526004016118c990613a3a565b60405180910390fd5b60008111611915576040517f08c379a000000000000000000000000000000000000000000000000000000000815260040161190c90613cba565b60405180910390fd5b61191f8282612564565b5050565b600080823b905060008111915050919050565b60007f01ffc9a7000000000000000000000000000000000000000000000000000000007bffffffffffffffffffffffffffffffffffffffffffffffffffffffff1916827bffffffffffffffffffffffffffffffffffffffffffffffffffffffff1916149050919050565b60008073ffffffffffffffffffffffffffffffffffffffff166002600084815260200190815260200160002060009054906101000a900473ffffffffffffffffffffffffffffffffffffffff1673ffffffffffffffffffffffffffffffffffffffff1614159050919050565b600033905090565b816004600083815260200190815260200160002060006101000a81548173ffffffffffffffffffffffffffffffffffffffff021916908373ffffffffffffffffffffffffffffffffffffffff160217905550808273ffffffffffffffffffffffffffffffffffffffff16611a87836109f7565b73ffffffffffffffffffffffffffffffffffffffff167f8c5be1e5ebec7d5bd14f71427d1e84f3dd0314c0f7b2291e5b200ac8c7c3b92560405160405180910390a45050565b6000611ad8826119a0565b611b17576040517f08c379a0000000000000000000000000000000000000000000000000000000008152600401611b0e90613a9a565b60405180910390fd5b6000611b22836109f7565b90508073ffffffffffffffffffffffffffffffffffffffff168473ffffffffffffffffffffffffffffffffffffffff161480611b9157508373ffffffffffffffffffffffffffffffffffffffff16611b7984610744565b73ffffffffffffffffffffffffffffffffffffffff16145b80611ba25750611ba1818561177c565b5b91505092915050565b8273ffffffffffffffffffffffffffffffffffffffff16611bcb826109f7565b73ffffffffffffffffffffffffffffffffffffffff1614611c21576040517f08c379a0000000000000000000000000000000000000000000000000000000008152600401611c1890613bba565b60405180910390fd5b600073ffffffffffffffffffffffffffffffffffffffff168273ffffffffffffffffffffffffffffffffffffffff161415611c91576040517f08c379a0000000000000000000000000000000000000000000000000000000008152600401611c8890613a5a565b60405180910390fd5b611c9c8383836125b7565b611ca7600082611a14565b6001600360008573ffffffffffffffffffffffffffffffffffffffff1673ffffffffffffffffffffffffffffffffffffffff1681526020019081526020016000206000828254611cf79190613f84565b925050819055506001600360008473ffffffffffffffffffffffffffffffffffffffff1673ffffffffffffffffffffffffffffffffffffffff1681526020019081526020016000206000828254611d4e9190613ea3565b92505081905550816002600083815260200190815260200160002060006101000a81548173ffffffffffffffffffffffffffffffffffffffff021916908373ffffffffffffffffffffffffffffffffffffffff160217905550808273ffffffffffffffffffffffffffffffffffffffff168473ffffffffffffffffffffffffffffffffffffffff167fddf252ad1be2c89b69c2b068fc378daa952ba7f163c4a11628f55a4df523b3ef60405160405180910390a4505050565b6000611e12826109f7565b9050611e20816000846125b7565b611e2b600083611a14565b6001600360008373ffffffffffffffffffffffffffffffffffffffff1673ffffffffffffffffffffffffffffffffffffffff1681526020019081526020016000206000828254611e7b9190613f84565b925050819055506002600083815260200190815260200160002060006101000a81549073ffffffffffffffffffffffffffffffffffffffff021916905581600073ffffffffffffffffffffffffffffffffffffffff168273ffffffffffffffffffffffffffffffffffffffff167fddf252ad1be2c89b69c2b068fc378daa952ba7f163c4a11628f55a4df523b3ef60405160405180910390a45050565b8173ffffffffffffffffffffffffffffffffffffffff168373ffffffffffffffffffffffffffffffffffffffff161415611f87576040517f08c379a0000000000000000000000000000000000000000000000000000000008152600401611f7e90613a7a565b60405180910390fd5b80600560008573ffffffffffffffffffffffffffffffffffffffff1673ffffffffffffffffffffffffffffffffffffffff16815260200190815260200160002060008473ffffffffffffffffffffffffffffffffffffffff1673ffffffffffffffffffffffffffffffffffffffff16815260200190815260200160002060006101000a81548160ff0219169083151502179055508173ffffffffffffffffffffffffffffffffffffffff168373ffffffffffffffffffffffffffffffffffffffff167f17307eab39ab6107e8899845ad3d59bd9653f200f220920489ca2b5937696c3183604051612078919061395d565b60405180910390a3505050565b612090848484611bab565b61209c848484846125bc565b6120db576040517f08c379a00000000000000000000000000000000000000000000000000000000081526004016120d2906139fa565b60405180910390fd5b50505050565b6000826120ee8584612753565b1490509392505050565b6000808260405160200161210c919061384b565b604051602081830303815290604052905060008160405160200161213091906137c3565b60405160208183030381529060405290508051602082016000f09250600073ffffffffffffffffffffffffffffffffffffffff168373ffffffffffffffffffffffffffffffffffffffff1614156121bc576040517f08c379a00000000000000000000000000000000000000000000000000000000081526004016121b39061399a565b60405180910390fd5b5050919050565b6121dd82826040518060200160405280600081525061282c565b5050565b6060612211826001808573ffffffffffffffffffffffffffffffffffffffff163b61220c9190613f84565b612887565b9050919050565b60606000821415612260576040518060400160405280600181526020017f300000000000000000000000000000000000000000000000000000000000000081525090506123c0565b600082905060005b6000821461229257808061227b906140db565b915050600a8261228b9190613ef9565b9150612268565b60008167ffffffffffffffff8111156122d4577f4e487b7100000000000000000000000000000000000000000000000000000000600052604160045260246000fd5b6040519080825280601f01601f1916602001820160405280156123065781602001600182028036833780820191505090505b5090505b600085146123b95760018261231f9190613f84565b9150600a8561232e9190614138565b603061233a9190613ea3565b60f81b818381518110612376577f4e487b7100000000000000000000000000000000000000000000000000000000600052603260045260246000fd5b60200101907effffffffffffffffffffffffffffffffffffffffffffffffffffffffffffff1916908160001a905350600a856123b29190613ef9565b945061230a565b8093505050505b919050565b60606000825114156123e85760405180602001604052806000815250905061255f565b6000604051806060016040528060408152602001614a4260409139905060006003600285516124179190613ea3565b6124219190613ef9565b600461242d9190613f2a565b9050600060208261243e9190613ea3565b67ffffffffffffffff81111561247d577f4e487b7100000000000000000000000000000000000000000000000000000000600052604160045260246000fd5b6040519080825280601f01601f1916602001820160405280156124af5781602001600182028036833780820191505090505b509050818152600183018586518101602084015b8183101561251e576003830192508251603f8160121c168501518253600182019150603f81600c1c168501518253600182019150603f8160061c168501518253600182019150603f81168501518253600182019150506124c3565b600389510660018114612538576002811461254857612553565b613d3d60f01b6002830352612553565b603d60f81b60018303525b50505050508093505050505b919050565b600080600080600085875af19050806125b2576040517f08c379a00000000000000000000000000000000000000000000000000000000081526004016125a990613c1a565b60405180910390fd5b505050565b505050565b60006125dd8473ffffffffffffffffffffffffffffffffffffffff16611923565b15612746578373ffffffffffffffffffffffffffffffffffffffff1663150b7a02612606611a0c565b8786866040518563ffffffff1660e01b81526004016126289493929190613911565b602060405180830381600087803b15801561264257600080fd5b505af192505050801561267357506040513d601f19601f820116820180604052508101906126709190612e79565b60015b6126f6573d80600081146126a3576040519150601f19603f3d011682016040523d82523d6000602084013e6126a8565b606091505b506000815114156126ee576040517f08c379a00000000000000000000000000000000000000000000000000000000081526004016126e5906139fa565b60405180910390fd5b805181602001fd5b63150b7a0260e01b7bffffffffffffffffffffffffffffffffffffffffffffffffffffffff1916817bffffffffffffffffffffffffffffffffffffffffffffffffffffffff19161491505061274b565b600190505b949350505050565b60008082905060005b84518110156128215760008582815181106127a0577f4e487b7100000000000000000000000000000000000000000000000000000000600052603260045260246000fd5b602002602001015190508083116127e15782816040516020016127c492919061377e565b60405160208183030381529060405280519060200120925061280d565b80836040516020016127f492919061377e565b6040516020818303038152906040528051906020012092505b508080612819906140db565b91505061275c565b508091505092915050565b61283683836128b0565b61284360008484846125bc565b612882576040517f08c379a0000000000000000000000000000000000000000000000000000000008152600401612879906139fa565b60405180910390fd5b505050565b60606040519050601f19601f6020840101168101604052818152818360208301863c9392505050565b600073ffffffffffffffffffffffffffffffffffffffff168273ffffffffffffffffffffffffffffffffffffffff161415612920576040517f08c379a000000000000000000000000000000000000000000000000000000000815260040161291790613b5a565b60405180910390fd5b612929816119a0565b15612969576040517f08c379a000000000000000000000000000000000000000000000000000000000815260040161296090613a1a565b60405180910390fd5b612975600083836125b7565b6001600360008473ffffffffffffffffffffffffffffffffffffffff1673ffffffffffffffffffffffffffffffffffffffff16815260200190815260200160002060008282546129c59190613ea3565b92505081905550816002600083815260200190815260200160002060006101000a81548173ffffffffffffffffffffffffffffffffffffffff021916908373ffffffffffffffffffffffffffffffffffffffff160217905550808273ffffffffffffffffffffffffffffffffffffffff16600073ffffffffffffffffffffffffffffffffffffffff167fddf252ad1be2c89b69c2b068fc378daa952ba7f163c4a11628f55a4df523b3ef60405160405180910390a45050565b6000612a91612a8c84613e24565b613dff565b905082815260208101848484011115612aa957600080fd5b612ab4848285614036565b509392505050565b600081359050612acb816149ce565b92915050565b60008083601f840112612ae357600080fd5b8235905067ffffffffffffffff811115612afc57600080fd5b602083019150836020820283011115612b1457600080fd5b9250929050565b600081359050612b2a816149e5565b92915050565b600081359050612b3f816149fc565b92915050565b600081359050612b5481614a13565b92915050565b600081519050612b6981614a13565b92915050565b600082601f830112612b8057600080fd5b8135612b90848260208601612a7e565b91505092915050565b60008083601f840112612bab57600080fd5b8235905067ffffffffffffffff811115612bc457600080fd5b602083019150836001820283011115612bdc57600080fd5b9250929050565b600060a08284031215612bf557600080fd5b612bff60a0613dff565b90506000612c0f84828501612c6b565b6000830152506020612c2384828501612c6b565b6020830152506040612c3784828501612c6b565b6040830152506060612c4b84828501612b1b565b6060830152506080612c5f84828501612b1b565b60808301525092915050565b600081359050612c7a81614a2a565b92915050565b600060208284031215612c9257600080fd5b6000612ca084828501612abc565b91505092915050565b60008060408385031215612cbc57600080fd5b6000612cca85828601612abc565b9250506020612cdb85828601612abc565b9150509250929050565b600080600060608486031215612cfa57600080fd5b6000612d0886828701612abc565b9350506020612d1986828701612abc565b9250506040612d2a86828701612c6b565b9150509250925092565b60008060008060808587031215612d4a57600080fd5b6000612d5887828801612abc565b9450506020612d6987828801612abc565b9350506040612d7a87828801612c6b565b925050606085013567ffffffffffffffff811115612d9757600080fd5b612da387828801612b6f565b91505092959194509250565b60008060408385031215612dc257600080fd5b6000612dd085828601612abc565b9250506020612de185828601612b1b565b9150509250929050565b60008060408385031215612dfe57600080fd5b6000612e0c85828601612abc565b9250506020612e1d85828601612c6b565b9150509250929050565b600060208284031215612e3957600080fd5b6000612e4784828501612b30565b91505092915050565b600060208284031215612e6257600080fd5b6000612e7084828501612b45565b91505092915050565b600060208284031215612e8b57600080fd5b6000612e9984828501612b5a565b91505092915050565b60008060208385031215612eb557600080fd5b600083013567ffffffffffffffff811115612ecf57600080fd5b612edb85828601612b99565b92509250509250929050565b600060a08284031215612ef957600080fd5b6000612f0784828501612be3565b91505092915050565b600060208284031215612f2257600080fd5b6000612f3084828501612c6b565b91505092915050565b600080600060408486031215612f4e57600080fd5b6000612f5c86828701612c6b565b935050602084013567ffffffffffffffff811115612f7957600080fd5b612f8586828701612b99565b92509250509250925092565b600080600080600060608688031215612fa957600080fd5b6000612fb788828901612c6b565b955050602086013567ffffffffffffffff811115612fd457600080fd5b612fe088828901612b99565b9450945050604086013567ffffffffffffffff811115612fff57600080fd5b61300b88828901612ad1565b92509250509295509295909350565b60006130268383613068565b60208301905092915050565b600061303e8383613758565b60208301905092915050565b61305381613fb8565b82525050565b61306281613fca565b82525050565b61307181613fca565b82525050565b61308861308382613fd6565b614124565b82525050565b600061309982613e55565b6130a38185613e6b565b93506130b3818560208601614045565b6130bc81614225565b840191505092915050565b60006130d282613e55565b6130dc8185613e7c565b93506130ec818560208601614045565b80840191505092915050565b60006131048385613e87565b9350613111838584614036565b61311a83614225565b840190509392505050565b60006131318385613e98565b935061313e838584614036565b82840190509392505050565b600061315582613e60565b61315f8185613e87565b935061316f818560208601614045565b61317881614225565b840191505092915050565b600061318e82613e60565b6131988185613e98565b93506131a8818560208601614045565b80840191505092915050565b60006131c1601183613e87565b91506131cc82614236565b602082019050919050565b60006131e4600b83613e98565b91506131ef8261425f565b600b82019050919050565b6000613207600983613e98565b915061321282614288565b600982019050919050565b600061322a601483613e87565b9150613235826142b1565b602082019050919050565b600061324d601883613e87565b9150613258826142da565b602082019050919050565b6000613270603283613e87565b915061327b82614303565b604082019050919050565b6000613293600c83613e98565b915061329e82614352565b600c82019050919050565b60006132b6601c83613e87565b91506132c18261437b565b602082019050919050565b60006132d9601d83613e87565b91506132e4826143a4565b602082019050919050565b60006132fc602483613e87565b9150613307826143cd565b604082019050919050565b600061331f601983613e87565b915061332a8261441c565b602082019050919050565b6000613342602c83613e87565b915061334d82614445565b604082019050919050565b6000613365600e83613e87565b915061337082614494565b602082019050919050565b6000613388603883613e87565b9150613393826144bd565b604082019050919050565b60006133ab601a83613e87565b91506133b68261450c565b602082019050919050565b60006133ce602a83613e87565b91506133d982614535565b604082019050919050565b60006133f1602983613e87565b91506133fc82614584565b604082019050919050565b6000613414600283613e98565b915061341f826145d3565b600282019050919050565b6000613437602083613e87565b9150613442826145fc565b602082019050919050565b600061345a600d83613e98565b915061346582614625565b600d82019050919050565b600061347d602c83613e87565b91506134888261464e565b604082019050919050565b60006134a0601283613e98565b91506134ab8261469d565b601282019050919050565b60006134c3601b83613e87565b91506134ce826146c6565b602082019050919050565b60006134e6602983613e87565b91506134f1826146ef565b604082019050919050565b6000613509602183613e87565b91506135148261473e565b604082019050919050565b600061352c600183613e98565b91506135378261478d565b600182019050919050565b600061354f601d83613e98565b915061355a82614796565b601d82019050919050565b6000613572601783613e98565b915061357d826147bf565b601782019050919050565b6000613595603183613e87565b91506135a0826147e8565b604082019050919050565b60006135b8601383613e87565b91506135c382614837565b602082019050919050565b60006135db602183613e87565b91506135e682614860565b604082019050919050565b60006135fe601783613e87565b9150613609826148af565b602082019050919050565b6000613621600a83613e98565b915061362c826148d8565b600a82019050919050565b6000613644602083613e87565b915061364f82614901565b602082019050919050565b6000613667601383613e87565b91506136728261492a565b602082019050919050565b600061368a601383613e87565b915061369582614953565b602082019050919050565b60006136ad601783613e87565b91506136b88261497c565b602082019050919050565b60006136d0601b83613e87565b91506136db826149a5565b602082019050919050565b6000820160008201516136f98482613032565b935050602082015161370b8482613032565b935050604082015161371d8482613032565b935050606082015161372f848261301a565b9350506080820151613741848261301a565b935050505050565b6137528161402c565b82525050565b6137618161402c565b82525050565b6137786137738261402c565b61412e565b82525050565b600061378a8285613077565b60208201915061379a8284613077565b6020820191508190509392505050565b60006137b7828486613125565b91508190509392505050565b60006137ce826131d7565b91506137da82846130c7565b915081905092915050565b60006137f0826131fa565b91506137fb82613286565b91506138078285613183565b915061381282613493565b915061381d82613614565b91506138288261344d565b91506138348284613183565b915061383f82613407565b91508190509392505050565b60006138568261351f565b915061386282846130c7565b915081905092915050565b600061387882613542565b91506138848284613183565b915081905092915050565b600061389a82613565565b91506138a68284613183565b915081905092915050565b60006138bd82846136e6565b60a08201915081905092915050565b60006138d88286613767565b6020820191506138e9828486613125565b9150819050949350505050565b600060208201905061390b600083018461304a565b92915050565b6000608082019050613926600083018761304a565b613933602083018661304a565b6139406040830185613749565b8181036060830152613952818461308e565b905095945050505050565b60006020820190506139726000830184613059565b92915050565b60006020820190508181036000830152613992818461314a565b905092915050565b600060208201905081810360008301526139b3816131b4565b9050919050565b600060208201905081810360008301526139d38161321d565b9050919050565b600060208201905081810360008301526139f381613240565b9050919050565b60006020820190508181036000830152613a1381613263565b9050919050565b60006020820190508181036000830152613a33816132a9565b9050919050565b60006020820190508181036000830152613a53816132cc565b9050919050565b60006020820190508181036000830152613a73816132ef565b9050919050565b60006020820190508181036000830152613a9381613312565b9050919050565b60006020820190508181036000830152613ab381613335565b9050919050565b60006020820190508181036000830152613ad381613358565b9050919050565b60006020820190508181036000830152613af38161337b565b9050919050565b60006020820190508181036000830152613b138161339e565b9050919050565b60006020820190508181036000830152613b33816133c1565b9050919050565b60006020820190508181036000830152613b53816133e4565b9050919050565b60006020820190508181036000830152613b738161342a565b9050919050565b60006020820190508181036000830152613b9381613470565b9050919050565b60006020820190508181036000830152613bb3816134b6565b9050919050565b60006020820190508181036000830152613bd3816134d9565b9050919050565b60006020820190508181036000830152613bf3816134fc565b9050919050565b60006020820190508181036000830152613c1381613588565b9050919050565b60006020820190508181036000830152613c33816135ab565b9050919050565b60006020820190508181036000830152613c53816135ce565b9050919050565b60006020820190508181036000830152613c73816135f1565b9050919050565b60006020820190508181036000830152613c9381613637565b9050919050565b60006020820190508181036000830152613cb38161365a565b9050919050565b60006020820190508181036000830152613cd38161367d565b9050919050565b60006020820190508181036000830152613cf3816136a0565b9050919050565b60006020820190508181036000830152613d13816136c3565b9050919050565b6000602082019050613d2f6000830184613749565b92915050565b6000608082019050613d4a6000830188613749565b613d57602083018761304a565b613d64604083018661304a565b8181036060830152613d778184866130f8565b90509695505050505050565b6000604082019050613d986000830185613749565b613da56020830184613749565b9392505050565b600060a082019050613dc16000830188613749565b613dce6020830187613749565b613ddb6040830186613749565b613de86060830185613059565b613df56080830184613059565b9695505050505050565b6000613e09613e1a565b9050613e1582826140aa565b919050565b6000604051905090565b600067ffffffffffffffff821115613e3f57613e3e6141f6565b5b613e4882614225565b9050602081019050919050565b600081519050919050565b600081519050919050565b600082825260208201905092915050565b600081905092915050565b600082825260208201905092915050565b600081905092915050565b6000613eae8261402c565b9150613eb98361402c565b9250827fffffffffffffffffffffffffffffffffffffffffffffffffffffffffffffffff03821115613eee57613eed614169565b5b828201905092915050565b6000613f048261402c565b9150613f0f8361402c565b925082613f1f57613f1e614198565b5b828204905092915050565b6000613f358261402c565b9150613f408361402c565b9250817fffffffffffffffffffffffffffffffffffffffffffffffffffffffffffffffff0483118215151615613f7957613f78614169565b5b828202905092915050565b6000613f8f8261402c565b9150613f9a8361402c565b925082821015613fad57613fac614169565b5b828203905092915050565b6000613fc38261400c565b9050919050565b60008115159050919050565b6000819050919050565b60007fffffffff0000000000000000000000000000000000000000000000000000000082169050919050565b600073ffffffffffffffffffffffffffffffffffffffff82169050919050565b6000819050919050565b82818337600083830152505050565b60005b83811015614063578082015181840152602081019050614048565b83811115614072576000848401525b50505050565b6000600282049050600182168061409057607f821691505b602082108114156140a4576140a36141c7565b5b50919050565b6140b382614225565b810181811067ffffffffffffffff821117156140d2576140d16141f6565b5b80604052505050565b60006140e68261402c565b91507fffffffffffffffffffffffffffffffffffffffffffffffffffffffffffffffff82141561411957614118614169565b5b600182019050919050565b6000819050919050565b6000819050919050565b60006141438261402c565b915061414e8361402c565b92508261415e5761415d614198565b5b828206905092915050565b7f4e487b7100000000000000000000000000000000000000000000000000000000600052601160045260246000fd5b7f4e487b7100000000000000000000000000000000000000000000000000000000600052601260045260246000fd5b7f4e487b7100000000000000000000000000000000000000000000000000000000600052602260045260246000fd5b7f4e487b7100000000000000000000000000000000000000000000000000000000600052604160045260246000fd5b6000601f19601f8301169050919050565b7f4445504c4f594d454e545f4641494c4544000000000000000000000000000000600082015250565b7f600b5981380380925939f3000000000000000000000000000000000000000000600082015250565b7f7b226e616d65223a220000000000000000000000000000000000000000000000600082015250565b7f4475636b20646f6573206e6f742065786973742e000000000000000000000000600082015250565b7f63616c6c6572206973206e6f7420746865206f776e65722e0000000000000000600082015250565b7f4552433732313a207472616e7366657220746f206e6f6e20455243373231526560008201527f63656976657220696d706c656d656e7465720000000000000000000000000000602082015250565b7f546f7a7a69204475636b20230000000000000000000000000000000000000000600082015250565b7f4552433732313a20746f6b656e20616c7265616479206d696e74656400000000600082015250565b7f54686520616d6f756e7420686173206265656e2065786365656465642e000000600082015250565b7f4552433732313a207472616e7366657220746f20746865207a65726f2061646460008201527f7265737300000000000000000000000000000000000000000000000000000000602082015250565b7f4552433732313a20617070726f766520746f2063616c6c657200000000000000600082015250565b7f4552433732313a206f70657261746f7220717565727920666f72206e6f6e657860008201527f697374656e7420746f6b656e0000000000000000000000000000000000000000602082015250565b7f496e76616c69642050726f6f662e000000000000000000000000000000000000600082015250565b7f4552433732313a20617070726f76652063616c6c6572206973206e6f74206f7760008201527f6e6572206e6f7220617070726f76656420666f7220616c6c0000000000000000602082015250565b7f437573746f6d206475636b206c696d697420726561636865642e000000000000600082015250565b7f4552433732313a2062616c616e636520717565727920666f7220746865207a6560008201527f726f206164647265737300000000000000000000000000000000000000000000602082015250565b7f4552433732313a206f776e657220717565727920666f72206e6f6e657869737460008201527f656e7420746f6b656e0000000000000000000000000000000000000000000000602082015250565b7f227d000000000000000000000000000000000000000000000000000000000000600082015250565b7f4552433732313a206d696e7420746f20746865207a65726f2061646472657373600082015250565b7f222c2022696d616765223a202200000000000000000000000000000000000000600082015250565b7f4552433732313a20617070726f76656420717565727920666f72206e6f6e657860008201527f697374656e7420746f6b656e0000000000000000000000000000000000000000602082015250565b7f222c20226465736372697074696f6e223a220000000000000000000000000000600082015250565b7f437573746f6d206475636b20616c7265616479206578697374732e0000000000600082015250565b7f4552433732313a207472616e73666572206f6620746f6b656e2074686174206960008201527f73206e6f74206f776e0000000000000000000000000000000000000000000000602082015250565b7f4552433732313a20617070726f76616c20746f2063757272656e74206f776e6560008201527f7200000000000000000000000000000000000000000000000000000000000000602082015250565b60008082015250565b7f646174613a6170706c69636174696f6e2f6a736f6e3b6261736536342c000000600082015250565b7f646174613a696d6167652f776562703b6261736536342c000000000000000000600082015250565b7f4552433732313a207472616e736665722063616c6c6572206973206e6f74206f60008201527f776e6572206e6f7220617070726f766564000000000000000000000000000000602082015250565b7f4554485f5452414e534645525f4641494c454400000000000000000000000000600082015250565b7f437573746f6d204475636b73204d696e74696e672069732064697361626c656460008201527f2e00000000000000000000000000000000000000000000000000000000000000602082015250565b7f6d73672e76616c756520213d206475636b207072696365000000000000000000600082015250565b7f48656c6c20796561682100000000000000000000000000000000000000000000600082015250565b7f546f7a7a69204475636b73204d696e74696e672069732064697361626c65642e600082015250565b7f4f776e65727368697020746f6b656e2049442e00000000000000000000000000600082015250565b7f54686520616d6f756e74206973207a65726f2e00000000000000000000000000600082015250565b7f4275726e2077696e646f7720686173207061737365642e000000000000000000600082015250565b7f546f7a7a69206475636b2063616e2774206265206275726e65642e0000000000600082015250565b6149d781613fb8565b81146149e257600080fd5b50565b6149ee81613fca565b81146149f957600080fd5b50565b614a0581613fd6565b8114614a1057600080fd5b50565b614a1c81613fe0565b8114614a2757600080fd5b50565b614a338161402c565b8114614a3e57600080fd5b5056fe4142434445464748494a4b4c4d4e4f505152535455565758595a6162636465666768696a6b6c6d6e6f707172737475767778797a303132333435363738392b2fa2646970667358221220607c620bc9e6f878f1b7ee76ffe23365d8da6b6c1c9677abddc04d478af832a864736f6c63430008040033",
  "linkReferences": {},
  "deployedLinkReferences": {}
}