{
  "_format": "hh-sol-artifact-1",
  "contractName": "TheAmazingTozziDuckMachine",
  "sourceName": "contracts/TheAmazingTozziDuckMachine.sol",
  "abi": [
    {
      "inputs": [
        {
          "internalType": "address",
          "name": "chainsawProjects",
          "type": "address"
        }
      ],
      "stateMutability": "nonpayable",
      "type": "constructor"
    },
    {
      "anonymous": false,
      "inputs": [
        {
          "indexed": true,
          "internalType": "address",
          "name": "owner",
          "type": "address"
        },
        {
          "indexed": true,
          "internalType": "address",
          "name": "approved",
          "type": "address"
        },
        {
          "indexed": true,
          "internalType": "uint256",
          "name": "tokenId",
          "type": "uint256"
        }
      ],
      "name": "Approval",
      "type": "event"
    },
    {
      "anonymous": false,
      "inputs": [
        {
          "indexed": true,
          "internalType": "address",
          "name": "owner",
          "type": "address"
        },
        {
          "indexed": true,
          "internalType": "address",
          "name": "operator",
          "type": "address"
        },
        {
          "indexed": false,
          "internalType": "bool",
          "name": "approved",
          "type": "bool"
        }
      ],
      "name": "ApprovalForAll",
      "type": "event"
    },
    {
      "anonymous": false,
      "inputs": [
        {
          "indexed": false,
          "internalType": "uint256",
          "name": "duckId",
          "type": "uint256"
        },
        {
          "indexed": false,
          "internalType": "address",
          "name": "admin",
          "type": "address"
        },
        {
          "indexed": false,
          "internalType": "address",
          "name": "owner",
          "type": "address"
        },
        {
          "indexed": false,
          "internalType": "string",
          "name": "reason",
          "type": "string"
        }
      ],
      "name": "CustomDuckBurned",
      "type": "event"
    },
    {
      "anonymous": false,
      "inputs": [
        {
          "indexed": true,
          "internalType": "enum DuckType",
          "name": "duckType",
          "type": "uint8"
        },
        {
          "indexed": true,
          "internalType": "address",
          "name": "who",
          "type": "address"
        },
        {
          "indexed": false,
          "internalType": "uint256",
          "name": "tokenId",
          "type": "uint256"
        },
        {
          "indexed": false,
          "internalType": "uint256",
          "name": "price",
          "type": "uint256"
        }
      ],
      "name": "DuckMinted",
      "type": "event"
    },
    {
      "anonymous": false,
      "inputs": [
        {
          "indexed": true,
          "internalType": "enum DuckType",
          "name": "duckType",
          "type": "uint8"
        },
        {
          "indexed": true,
          "internalType": "address",
          "name": "who",
          "type": "address"
        },
        {
          "indexed": false,
          "internalType": "bool",
          "name": "isEnabled",
          "type": "bool"
        }
      ],
      "name": "DuckMintingStatusUpdated",
      "type": "event"
    },
    {
      "anonymous": false,
      "inputs": [
        {
          "indexed": true,
          "internalType": "enum DuckType",
          "name": "duckType",
          "type": "uint8"
        },
        {
          "indexed": true,
          "internalType": "address",
          "name": "who",
          "type": "address"
        },
        {
          "indexed": false,
          "internalType": "uint256",
          "name": "price",
          "type": "uint256"
        }
      ],
      "name": "DuckPriceUpdated",
      "type": "event"
    },
    {
      "anonymous": false,
      "inputs": [
        {
          "indexed": true,
          "internalType": "address",
          "name": "who",
          "type": "address"
        },
        {
          "indexed": false,
          "internalType": "uint256",
          "name": "newMaxCustomDucks",
          "type": "uint256"
        }
      ],
      "name": "MaxCustomDucksUpdated",
      "type": "event"
    },
    {
      "anonymous": false,
      "inputs": [
        {
          "indexed": true,
          "internalType": "address",
          "name": "from",
          "type": "address"
        },
        {
          "indexed": true,
          "internalType": "address",
          "name": "to",
          "type": "address"
        },
        {
          "indexed": true,
          "internalType": "uint256",
          "name": "tokenId",
          "type": "uint256"
        }
      ],
      "name": "Transfer",
      "type": "event"
    },
    {
      "inputs": [],
      "name": "BURN_WINDOW",
      "outputs": [
        {
          "internalType": "uint256",
          "name": "",
          "type": "uint256"
        }
      ],
      "stateMutability": "view",
      "type": "function"
    },
    {
      "inputs": [
        {
          "internalType": "address",
          "name": "to",
          "type": "address"
        },
        {
          "internalType": "uint256",
          "name": "tokenId",
          "type": "uint256"
        }
      ],
      "name": "approve",
      "outputs": [],
      "stateMutability": "nonpayable",
      "type": "function"
    },
    {
      "inputs": [
        {
          "internalType": "address",
          "name": "owner",
          "type": "address"
        }
      ],
      "name": "balanceOf",
      "outputs": [
        {
          "internalType": "uint256",
          "name": "",
          "type": "uint256"
        }
      ],
      "stateMutability": "view",
      "type": "function"
    },
    {
      "inputs": [
        {
          "internalType": "uint256",
          "name": "duckId",
          "type": "uint256"
        },
        {
          "internalType": "string",
          "name": "reason",
          "type": "string"
        }
      ],
      "name": "burnRenegadeDuck",
      "outputs": [],
      "stateMutability": "nonpayable",
      "type": "function"
    },
    {
      "inputs": [
        {
          "internalType": "uint256",
          "name": "",
          "type": "uint256"
        }
      ],
      "name": "customDuckHatchedTimes",
      "outputs": [
        {
          "internalType": "uint256",
          "name": "",
          "type": "uint256"
        }
      ],
      "stateMutability": "view",
      "type": "function"
    },
    {
      "inputs": [
        {
          "internalType": "uint256",
          "name": "",
          "type": "uint256"
        }
      ],
      "name": "duckIdToWEBP",
      "outputs": [
        {
          "internalType": "address",
          "name": "",
          "type": "address"
        }
      ],
      "stateMutability": "view",
      "type": "function"
    },
    {
      "inputs": [
        {
          "internalType": "uint256",
          "name": "tokenId",
          "type": "uint256"
        }
      ],
      "name": "getApproved",
      "outputs": [
        {
          "internalType": "address",
          "name": "",
          "type": "address"
        }
      ],
      "stateMutability": "view",
      "type": "function"
    },
    {
      "inputs": [
        {
          "internalType": "address",
          "name": "owner",
          "type": "address"
        },
        {
          "internalType": "address",
          "name": "operator",
          "type": "address"
        }
      ],
      "name": "isApprovedForAll",
      "outputs": [
        {
          "internalType": "bool",
          "name": "",
          "type": "bool"
        }
      ],
      "stateMutability": "view",
      "type": "function"
    },
    {
      "inputs": [
        {
          "internalType": "bytes32",
          "name": "",
          "type": "bytes32"
        }
      ],
      "name": "isCustomExisting",
      "outputs": [
        {
          "internalType": "bool",
          "name": "",
          "type": "bool"
        }
      ],
      "stateMutability": "view",
      "type": "function"
    },
    {
      "inputs": [],
      "name": "machineSetting",
      "outputs": [
        {
          "internalType": "uint256",
          "name": "tozziDuckPrice",
          "type": "uint256"
        },
        {
          "internalType": "uint256",
          "name": "customDuckPrice",
          "type": "uint256"
        },
        {
          "internalType": "uint256",
          "name": "maxCustomDucks",
          "type": "uint256"
        },
        {
          "internalType": "bool",
          "name": "tozziDucksEnabled",
          "type": "bool"
        },
        {
          "internalType": "bool",
          "name": "customDucksEnabled",
          "type": "bool"
        }
      ],
      "stateMutability": "view",
      "type": "function"
    },
    {
      "inputs": [
        {
          "internalType": "string",
          "name": "webp",
          "type": "string"
        }
      ],
      "name": "mintCustomDuck",
      "outputs": [],
      "stateMutability": "payable",
      "type": "function"
    },
    {
      "inputs": [
        {
          "internalType": "uint256",
          "name": "duckId",
          "type": "uint256"
        },
        {
          "internalType": "string",
          "name": "webp",
          "type": "string"
        },
        {
          "internalType": "bytes32[]",
          "name": "merkleProof",
          "type": "bytes32[]"
        }
      ],
      "name": "mintTozziDuck",
      "outputs": [],
      "stateMutability": "payable",
      "type": "function"
    },
    {
      "inputs": [],
      "name": "name",
      "outputs": [
        {
          "internalType": "string",
          "name": "",
          "type": "string"
        }
      ],
      "stateMutability": "view",
      "type": "function"
    },
    {
      "inputs": [],
      "name": "owner",
      "outputs": [
        {
          "internalType": "address",
          "name": "",
          "type": "address"
        }
      ],
      "stateMutability": "view",
      "type": "function"
    },
    {
      "inputs": [
        {
          "internalType": "uint256",
          "name": "tokenId",
          "type": "uint256"
        }
      ],
      "name": "ownerOf",
      "outputs": [
        {
          "internalType": "address",
          "name": "",
          "type": "address"
        }
      ],
      "stateMutability": "view",
      "type": "function"
    },
    {
      "inputs": [
        {
          "internalType": "address",
          "name": "from",
          "type": "address"
        },
        {
          "internalType": "address",
          "name": "to",
          "type": "address"
        },
        {
          "internalType": "uint256",
          "name": "tokenId",
          "type": "uint256"
        }
      ],
      "name": "safeTransferFrom",
      "outputs": [],
      "stateMutability": "nonpayable",
      "type": "function"
    },
    {
      "inputs": [
        {
          "internalType": "address",
          "name": "from",
          "type": "address"
        },
        {
          "internalType": "address",
          "name": "to",
          "type": "address"
        },
        {
          "internalType": "uint256",
          "name": "tokenId",
          "type": "uint256"
        },
        {
          "internalType": "bytes",
          "name": "_data",
          "type": "bytes"
        }
      ],
      "name": "safeTransferFrom",
      "outputs": [],
      "stateMutability": "nonpayable",
      "type": "function"
    },
    {
      "inputs": [
        {
          "internalType": "address",
          "name": "operator",
          "type": "address"
        },
        {
          "internalType": "bool",
          "name": "approved",
          "type": "bool"
        }
      ],
      "name": "setApprovalForAll",
      "outputs": [],
      "stateMutability": "nonpayable",
      "type": "function"
    },
    {
      "inputs": [
        {
          "components": [
            {
              "internalType": "uint256",
              "name": "tozziDuckPrice",
              "type": "uint256"
            },
            {
              "internalType": "uint256",
              "name": "customDuckPrice",
              "type": "uint256"
            },
            {
              "internalType": "uint256",
              "name": "maxCustomDucks",
              "type": "uint256"
            },
            {
              "internalType": "bool",
              "name": "tozziDucksEnabled",
              "type": "bool"
            },
            {
              "internalType": "bool",
              "name": "customDucksEnabled",
              "type": "bool"
            }
          ],
          "internalType": "struct TheAmazingTozziDuckMachine.MachineSetting",
          "name": "setting",
          "type": "tuple"
        }
      ],
      "name": "setMachineSetting",
      "outputs": [],
      "stateMutability": "nonpayable",
      "type": "function"
    },
    {
      "inputs": [
        {
          "internalType": "uint256",
          "name": "projectId",
          "type": "uint256"
        }
      ],
      "name": "setProjectId",
      "outputs": [],
      "stateMutability": "nonpayable",
      "type": "function"
    },
    {
      "inputs": [
        {
          "internalType": "bytes4",
          "name": "interfaceId",
          "type": "bytes4"
        }
      ],
      "name": "supportsInterface",
      "outputs": [
        {
          "internalType": "bool",
          "name": "",
          "type": "bool"
        }
      ],
      "stateMutability": "view",
      "type": "function"
    },
    {
      "inputs": [],
      "name": "symbol",
      "outputs": [
        {
          "internalType": "string",
          "name": "",
          "type": "string"
        }
      ],
      "stateMutability": "view",
      "type": "function"
    },
    {
      "inputs": [
        {
          "internalType": "uint256",
          "name": "tokenId",
          "type": "uint256"
        }
      ],
      "name": "tokenURI",
      "outputs": [
        {
          "internalType": "string",
          "name": "",
          "type": "string"
        }
      ],
      "stateMutability": "view",
      "type": "function"
    },
    {
      "inputs": [
        {
          "internalType": "address",
          "name": "from",
          "type": "address"
        },
        {
          "internalType": "address",
          "name": "to",
          "type": "address"
        },
        {
          "internalType": "uint256",
          "name": "tokenId",
          "type": "uint256"
        }
      ],
      "name": "transferFrom",
      "outputs": [],
      "stateMutability": "nonpayable",
      "type": "function"
    },
    {
      "inputs": [
        {
          "internalType": "address",
          "name": "recipient",
          "type": "address"
        },
        {
          "internalType": "uint256",
          "name": "amount",
          "type": "uint256"
        }
      ],
      "name": "withdraw",
      "outputs": [],
      "stateMutability": "nonpayable",
      "type": "function"
    }
  ],
  "bytecode": "0x60806040523480156200001157600080fd5b5060405162004e6938038062004e698339818101604052810190620000379190620001e8565b806040518060400160405280600b81526020017f546f7a7a69204475636b730000000000000000000000000000000000000000008152506040518060400160405280600781526020017f545a4455434b53000000000000000000000000000000000000000000000000008152508160009080519060200190620000bc92919062000121565b508060019080519060200190620000d592919062000121565b50505080600760006101000a81548173ffffffffffffffffffffffffffffffffffffffff021916908373ffffffffffffffffffffffffffffffffffffffff1602179055505050620002c7565b8280546200012f9062000248565b90600052602060002090601f0160209004810192826200015357600085556200019f565b82601f106200016e57805160ff19168380011785556200019f565b828001600101855582156200019f579182015b828111156200019e57825182559160200191906001019062000181565b5b509050620001ae9190620001b2565b5090565b5b80821115620001cd576000816000905550600101620001b3565b5090565b600081519050620001e281620002ad565b92915050565b600060208284031215620001fb57600080fd5b60006200020b84828501620001d1565b91505092915050565b6000620002218262000228565b9050919050565b600073ffffffffffffffffffffffffffffffffffffffff82169050919050565b600060028204905060018216806200026157607f821691505b602082108114156200027857620002776200027e565b5b50919050565b7f4e487b7100000000000000000000000000000000000000000000000000000000600052602260045260246000fd5b620002b88162000214565b8114620002c457600080fd5b50565b614b9280620002d76000396000f3fe6080604052600436106101665760003560e01c8063820e215f116100d1578063c40f41751161008a578063d032e48711610064578063d032e48714610569578063e67399fa14610592578063e985e9c5146105ae578063f3fef3a3146105eb57610166565b8063c40f4175146104c6578063c87b56dd14610503578063ce9246dd1461054057610166565b8063820e215f146103d95780638da5cb5b1461040257806395d89b411461042d578063a22cb46514610458578063b88d4fde14610481578063c2d5afab146104aa57610166565b806323b872dd1161012357806323b872dd146102b35780632ec25c61146102dc57806342842e0e14610307578063491976a7146103305780636352211e1461035f57806370a082311461039c57610166565b806301ffc9a71461016b57806306fdde03146101a8578063081812fc146101d3578063095ea7b3146102105780631437253414610239578063149ba60514610276575b600080fd5b34801561017757600080fd5b50610192600480360381019061018d91906130a9565b610614565b60405161019f9190613aa4565b60405180910390f35b3480156101b457600080fd5b506101bd610626565b6040516101ca9190613abf565b60405180910390f35b3480156101df57600080fd5b506101fa60048036038101906101f59190613169565b6106b8565b6040516102079190613a3d565b60405180910390f35b34801561021c57600080fd5b5061023760048036038101906102329190613044565b61073d565b005b34801561024557600080fd5b50610260600480360381019061025b9190613169565b610855565b60405161026d9190613e21565b60405180910390f35b34801561028257600080fd5b5061029d60048036038101906102989190613169565b61086d565b6040516102aa9190613a3d565b60405180910390f35b3480156102bf57600080fd5b506102da60048036038101906102d59190612f3e565b6108a0565b005b3480156102e857600080fd5b506102f1610900565b6040516102fe9190613e21565b60405180910390f35b34801561031357600080fd5b5061032e60048036038101906103299190612f3e565b610907565b005b34801561033c57600080fd5b50610345610927565b604051610356959493929190613eb3565b60405180910390f35b34801561036b57600080fd5b5061038660048036038101906103819190613169565b610965565b6040516103939190613a3d565b60405180910390f35b3480156103a857600080fd5b506103c360048036038101906103be9190612eb0565b610a17565b6040516103d09190613e21565b60405180910390f35b3480156103e557600080fd5b5061040060048036038101906103fb9190613192565b610acf565b005b34801561040e57600080fd5b50610417610ca2565b6040516104249190613a3d565b60405180910390f35b34801561043957600080fd5b50610442610d56565b60405161044f9190613abf565b60405180910390f35b34801561046457600080fd5b5061047f600480360381019061047a9190613008565b610de8565b005b34801561048d57600080fd5b506104a860048036038101906104a39190612f8d565b610dfe565b005b6104c460048036038101906104bf91906131ea565b610e60565b005b3480156104d257600080fd5b506104ed60048036038101906104e89190613080565b61111b565b6040516104fa9190613aa4565b60405180910390f35b34801561050f57600080fd5b5061052a60048036038101906105259190613169565b61113b565b6040516105379190613abf565b60405180910390f35b34801561054c57600080fd5b5061056760048036038101906105629190613169565b61120a565b005b34801561057557600080fd5b50610590600480360381019061058b9190613140565b61126e565b005b6105ac60048036038101906105a791906130fb565b611351565b005b3480156105ba57600080fd5b506105d560048036038101906105d09190612f02565b61167b565b6040516105e29190613aa4565b60405180910390f35b3480156105f757600080fd5b50610612600480360381019061060d9190613044565b61170f565b005b600061061f826117e8565b9050919050565b6060600080546106359061417f565b80601f01602080910402602001604051908101604052809291908181526020018280546106619061417f565b80156106ae5780601f10610683576101008083540402835291602001916106ae565b820191906000526020600020905b81548152906001019060200180831161069157829003601f168201915b5050505050905090565b60006106c3826118ca565b610702576040517f08c379a00000000000000000000000000000000000000000000000000000000081526004016106f990613c81565b60405180910390fd5b6004600083815260200190815260200160002060009054906101000a900473ffffffffffffffffffffffffffffffffffffffff169050919050565b600061074882610965565b90508073ffffffffffffffffffffffffffffffffffffffff168373ffffffffffffffffffffffffffffffffffffffff1614156107b9576040517f08c379a00000000000000000000000000000000000000000000000000000000081526004016107b090613d01565b60405180910390fd5b8073ffffffffffffffffffffffffffffffffffffffff166107d8611936565b73ffffffffffffffffffffffffffffffffffffffff161480610807575061080681610801611936565b61167b565b5b610846576040517f08c379a000000000000000000000000000000000000000000000000000000000815260040161083d90613be1565b60405180910390fd5b610850838361193e565b505050565b600e6020528060005260406000206000915090505481565b600c6020528060005260406000206000915054906101000a900473ffffffffffffffffffffffffffffffffffffffff1681565b6108b16108ab611936565b826119f7565b6108f0576040517f08c379a00000000000000000000000000000000000000000000000000000000081526004016108e790613d61565b60405180910390fd5b6108fb838383611ad5565b505050565b62093a8081565b61092283838360405180602001604052806000815250610dfe565b505050565b60088060000154908060010154908060020154908060030160009054906101000a900460ff16908060030160019054906101000a900460ff16905085565b6000806002600084815260200190815260200160002060009054906101000a900473ffffffffffffffffffffffffffffffffffffffff169050600073ffffffffffffffffffffffffffffffffffffffff168173ffffffffffffffffffffffffffffffffffffffff161415610a0e576040517f08c379a0000000000000000000000000000000000000000000000000000000008152600401610a0590613c21565b60405180910390fd5b80915050919050565b60008073ffffffffffffffffffffffffffffffffffffffff168273ffffffffffffffffffffffffffffffffffffffff161415610a88576040517f08c379a0000000000000000000000000000000000000000000000000000000008152600401610a7f90613c01565b60405180910390fd5b600360008373ffffffffffffffffffffffffffffffffffffffff1673ffffffffffffffffffffffffffffffffffffffff168152602001908152602001600020549050919050565b610ad7611936565b73ffffffffffffffffffffffffffffffffffffffff16610af5610ca2565b73ffffffffffffffffffffffffffffffffffffffff1614610b4b576040517f08c379a0000000000000000000000000000000000000000000000000000000008152600401610b4290613ca1565b60405180910390fd5b60c88310610b8e576040517f08c379a0000000000000000000000000000000000000000000000000000000008152600401610b8590613e01565b60405180910390fd5b610b97836118ca565b610bd6576040517f08c379a0000000000000000000000000000000000000000000000000000000008152600401610bcd90613b01565b60405180910390fd5b600042905062093a80600e600086815260200190815260200160002054610bfd9190613faa565b811115610c3f576040517f08c379a0000000000000000000000000000000000000000000000000000000008152600401610c3690613ce1565b60405180910390fd5b6000610c4a85610965565b9050610c5585611d31565b7f8efa309b2a595f8cc583824fc568aadeb0d7f0b2697a8ee38c742dff2dfc020b85610c7f610ca2565b838787604051610c93959493929190613e3c565b60405180910390a15050505050565b6000600760009054906101000a900473ffffffffffffffffffffffffffffffffffffffff1673ffffffffffffffffffffffffffffffffffffffff16636352211e6006546040518263ffffffff1660e01b8152600401610d019190613e21565b60206040518083038186803b158015610d1957600080fd5b505afa158015610d2d573d6000803e3d6000fd5b505050506040513d601f19601f82011682018060405250810190610d519190612ed9565b905090565b606060018054610d659061417f565b80601f0160208091040260200160405190810160405280929190818152602001828054610d919061417f565b8015610dde5780601f10610db357610100808354040283529160200191610dde565b820191906000526020600020905b815481529060010190602001808311610dc157829003601f168201915b5050505050905090565b610dfa610df3611936565b8383611e42565b5050565b610e0f610e09611936565b836119f7565b610e4e576040517f08c379a0000000000000000000000000000000000000000000000000000000008152600401610e4590613d61565b60405180910390fd5b610e5a84848484611faf565b50505050565b600860030160009054906101000a900460ff16610eb2576040517f08c379a0000000000000000000000000000000000000000000000000000000008152600401610ea990613de1565b60405180910390fd5b6008600001543414610ef9576040517f08c379a0000000000000000000000000000000000000000000000000000000008152600401610ef090613dc1565b60405180910390fd5b6000858585604051602001610f1093929190613a13565b604051602081830303815290604052805190602001209050610f97838380806020026020016040519081016040528093929190818152602001838360200280828437600081840152601f19601f820116905080830192505050505050507f0885f98e28c44d2dd7b21d5b9e2661e99e90482a771a419967dd2c9c8edfb0d760001b8361200b565b610fd6576040517f08c379a0000000000000000000000000000000000000000000000000000000008152600401610fcd90613d81565b60405180910390fd5b600061102586868080601f016020809104026020016040519081016040528093929190818152602001838380828437600081840152601f19601f82011690508083019250505050505050612022565b905080600c600089815260200190815260200160002060006101000a81548173ffffffffffffffffffffffffffffffffffffffff021916908373ffffffffffffffffffffffffffffffffffffffff16021790555061108333886120ed565b3373ffffffffffffffffffffffffffffffffffffffff16600060018111156110d4577f4e487b7100000000000000000000000000000000000000000000000000000000600052602160045260246000fd5b7f75defe4009cda68109a3791163c97861b017d6c6e2ae24b1613d48793b4a131d8960086000015460405161110a929190613e8a565b60405180910390a350505050505050565b600d6020528060005260406000206000915054906101000a900460ff1681565b6060600061117b600c600085815260200190815260200160002060009054906101000a900473ffffffffffffffffffffffffffffffffffffffff1661210b565b905060c88310156111b15761118f81612142565b60405160200161119f91906139f1565b60405160208183030381529060405290505b6111e36111bd846122e1565b826040516020016111cf929190613947565b604051602081830303815290604052612142565b6040516020016111f391906139cf565b604051602081830303815290604052915050919050565b600760009054906101000a900473ffffffffffffffffffffffffffffffffffffffff1673ffffffffffffffffffffffffffffffffffffffff163373ffffffffffffffffffffffffffffffffffffffff161461126457600080fd5b8060068190555050565b611276611936565b73ffffffffffffffffffffffffffffffffffffffff16611294610ca2565b73ffffffffffffffffffffffffffffffffffffffff16146112ea576040517f08c379a00000000000000000000000000000000000000000000000000000000081526004016112e190613ca1565b60405180910390fd5b80600860008201518160000155602082015181600101556040820151816002015560608201518160030160006101000a81548160ff02191690831515021790555060808201518160030160016101000a81548160ff02191690831515021790555090505050565b600860030160019054906101000a900460ff166113a3576040517f08c379a000000000000000000000000000000000000000000000000000000000815260040161139a90613d21565b60405180910390fd5b60086002015460016010546113b89190613faa565b11156113f9576040517f08c379a00000000000000000000000000000000000000000000000000000000081526004016113f090613d41565b60405180910390fd5b6008600101543414611440576040517f08c379a000000000000000000000000000000000000000000000000000000000815260040161143790613dc1565b60405180910390fd5b6000828260405160200161145592919061390c565b604051602081830303815290604052805190602001209050600d600082815260200190815260200160002060009054906101000a900460ff16156114ce576040517f08c379a00000000000000000000000000000000000000000000000000000000081526004016114c590613c41565b60405180910390fd5b6001600d600083815260200190815260200160002060006101000a81548160ff02191690831515021790555060006010600081548092919061150f906141e2565b9190505560c861151f9190613faa565b9050600061157085858080601f016020809104026020016040519081016040528093929190818152602001838380828437600081840152601f19601f82011690508083019250505050505050612022565b905080600c600084815260200190815260200160002060006101000a81548173ffffffffffffffffffffffffffffffffffffffff021916908373ffffffffffffffffffffffffffffffffffffffff1602179055506115ce33836120ed565b42600e6000848152602001908152602001600020819055503373ffffffffffffffffffffffffffffffffffffffff16600180811115611636577f4e487b7100000000000000000000000000000000000000000000000000000000600052602160045260246000fd5b7f75defe4009cda68109a3791163c97861b017d6c6e2ae24b1613d48793b4a131d8460086000015460405161166c929190613e8a565b60405180910390a35050505050565b6000600560008473ffffffffffffffffffffffffffffffffffffffff1673ffffffffffffffffffffffffffffffffffffffff16815260200190815260200160002060008373ffffffffffffffffffffffffffffffffffffffff1673ffffffffffffffffffffffffffffffffffffffff16815260200190815260200160002060009054906101000a900460ff16905092915050565b611717611936565b73ffffffffffffffffffffffffffffffffffffffff16611735610ca2565b73ffffffffffffffffffffffffffffffffffffffff161461178b576040517f08c379a000000000000000000000000000000000000000000000000000000000815260040161178290613ca1565b60405180910390fd5b4781106117cd576040517f08c379a00000000000000000000000000000000000000000000000000000000081526004016117c490613b61565b60405180910390fd5b60008114156117da574790505b6117e4824761248e565b5050565b60007f80ac58cd000000000000000000000000000000000000000000000000000000007bffffffffffffffffffffffffffffffffffffffffffffffffffffffff1916827bffffffffffffffffffffffffffffffffffffffffffffffffffffffff191614806118b357507f5b5e139f000000000000000000000000000000000000000000000000000000007bffffffffffffffffffffffffffffffffffffffffffffffffffffffff1916827bffffffffffffffffffffffffffffffffffffffffffffffffffffffff1916145b806118c357506118c282612551565b5b9050919050565b60008073ffffffffffffffffffffffffffffffffffffffff166002600084815260200190815260200160002060009054906101000a900473ffffffffffffffffffffffffffffffffffffffff1673ffffffffffffffffffffffffffffffffffffffff1614159050919050565b600033905090565b816004600083815260200190815260200160002060006101000a81548173ffffffffffffffffffffffffffffffffffffffff021916908373ffffffffffffffffffffffffffffffffffffffff160217905550808273ffffffffffffffffffffffffffffffffffffffff166119b183610965565b73ffffffffffffffffffffffffffffffffffffffff167f8c5be1e5ebec7d5bd14f71427d1e84f3dd0314c0f7b2291e5b200ac8c7c3b92560405160405180910390a45050565b6000611a02826118ca565b611a41576040517f08c379a0000000000000000000000000000000000000000000000000000000008152600401611a3890613bc1565b60405180910390fd5b6000611a4c83610965565b90508073ffffffffffffffffffffffffffffffffffffffff168473ffffffffffffffffffffffffffffffffffffffff161480611abb57508373ffffffffffffffffffffffffffffffffffffffff16611aa3846106b8565b73ffffffffffffffffffffffffffffffffffffffff16145b80611acc5750611acb818561167b565b5b91505092915050565b8273ffffffffffffffffffffffffffffffffffffffff16611af582610965565b73ffffffffffffffffffffffffffffffffffffffff1614611b4b576040517f08c379a0000000000000000000000000000000000000000000000000000000008152600401611b4290613cc1565b60405180910390fd5b600073ffffffffffffffffffffffffffffffffffffffff168273ffffffffffffffffffffffffffffffffffffffff161415611bbb576040517f08c379a0000000000000000000000000000000000000000000000000000000008152600401611bb290613b81565b60405180910390fd5b611bc68383836125bb565b611bd160008261193e565b6001600360008573ffffffffffffffffffffffffffffffffffffffff1673ffffffffffffffffffffffffffffffffffffffff1681526020019081526020016000206000828254611c21919061408b565b925050819055506001600360008473ffffffffffffffffffffffffffffffffffffffff1673ffffffffffffffffffffffffffffffffffffffff1681526020019081526020016000206000828254611c789190613faa565b92505081905550816002600083815260200190815260200160002060006101000a81548173ffffffffffffffffffffffffffffffffffffffff021916908373ffffffffffffffffffffffffffffffffffffffff160217905550808273ffffffffffffffffffffffffffffffffffffffff168473ffffffffffffffffffffffffffffffffffffffff167fddf252ad1be2c89b69c2b068fc378daa952ba7f163c4a11628f55a4df523b3ef60405160405180910390a4505050565b6000611d3c82610965565b9050611d4a816000846125bb565b611d5560008361193e565b6001600360008373ffffffffffffffffffffffffffffffffffffffff1673ffffffffffffffffffffffffffffffffffffffff1681526020019081526020016000206000828254611da5919061408b565b925050819055506002600083815260200190815260200160002060006101000a81549073ffffffffffffffffffffffffffffffffffffffff021916905581600073ffffffffffffffffffffffffffffffffffffffff168273ffffffffffffffffffffffffffffffffffffffff167fddf252ad1be2c89b69c2b068fc378daa952ba7f163c4a11628f55a4df523b3ef60405160405180910390a45050565b8173ffffffffffffffffffffffffffffffffffffffff168373ffffffffffffffffffffffffffffffffffffffff161415611eb1576040517f08c379a0000000000000000000000000000000000000000000000000000000008152600401611ea890613ba1565b60405180910390fd5b80600560008573ffffffffffffffffffffffffffffffffffffffff1673ffffffffffffffffffffffffffffffffffffffff16815260200190815260200160002060008473ffffffffffffffffffffffffffffffffffffffff1673ffffffffffffffffffffffffffffffffffffffff16815260200190815260200160002060006101000a81548160ff0219169083151502179055508173ffffffffffffffffffffffffffffffffffffffff168373ffffffffffffffffffffffffffffffffffffffff167f17307eab39ab6107e8899845ad3d59bd9653f200f220920489ca2b5937696c3183604051611fa29190613aa4565b60405180910390a3505050565b611fba848484611ad5565b611fc6848484846125cb565b612005576040517f08c379a0000000000000000000000000000000000000000000000000000000008152600401611ffc90613b21565b60405180910390fd5b50505050565b6000826120188584612762565b1490509392505050565b6000808260405160200161203691906139ad565b604051602081830303815290604052905060008160405160200161205a9190613925565b60405160208183030381529060405290508051602082016000f09250600073ffffffffffffffffffffffffffffffffffffffff168373ffffffffffffffffffffffffffffffffffffffff1614156120e6576040517f08c379a00000000000000000000000000000000000000000000000000000000081526004016120dd90613ae1565b60405180910390fd5b5050919050565b61210782826040518060200160405280600081525061283b565b5050565b606061213b826001808573ffffffffffffffffffffffffffffffffffffffff163b612136919061408b565b612896565b9050919050565b6060600082511415612165576040518060200160405280600081525090506122dc565b6000604051806060016040528060408152602001614b1d60409139905060006003600285516121949190613faa565b61219e9190614000565b60046121aa9190614031565b905060006020826121bb9190613faa565b67ffffffffffffffff8111156121fa577f4e487b7100000000000000000000000000000000000000000000000000000000600052604160045260246000fd5b6040519080825280601f01601f19166020018201604052801561222c5781602001600182028036833780820191505090505b509050818152600183018586518101602084015b8183101561229b576003830192508251603f8160121c168501518253600182019150603f81600c1c168501518253600182019150603f8160061c168501518253600182019150603f8116850151825360018201915050612240565b6003895106600181146122b557600281146122c5576122d0565b613d3d60f01b60028303526122d0565b603d60f81b60018303525b50505050508093505050505b919050565b60606000821415612329576040518060400160405280600181526020017f30000000000000000000000000000000000000000000000000000000000000008152509050612489565b600082905060005b6000821461235b578080612344906141e2565b915050600a826123549190614000565b9150612331565b60008167ffffffffffffffff81111561239d577f4e487b7100000000000000000000000000000000000000000000000000000000600052604160045260246000fd5b6040519080825280601f01601f1916602001820160405280156123cf5781602001600182028036833780820191505090505b5090505b60008514612482576001826123e8919061408b565b9150600a856123f7919061423f565b60306124039190613faa565b60f81b81838151811061243f577f4e487b7100000000000000000000000000000000000000000000000000000000600052603260045260246000fd5b60200101907effffffffffffffffffffffffffffffffffffffffffffffffffffffffffffff1916908160001a905350600a8561247b9190614000565b94506123d3565b8093505050505b919050565b60006124ce6040518060400160405280600f81526020017f736166655472616e7366657245544800000000000000000000000000000000008152506128bf565b6124d730612958565b6124e083612958565b6124e9826129f1565b7323168eab692e07114a7949a433408414a18eeed7925060008060008085875af190508061254c576040517f08c379a000000000000000000000000000000000000000000000000000000000815260040161254390613da1565b60405180910390fd5b505050565b60007f01ffc9a7000000000000000000000000000000000000000000000000000000007bffffffffffffffffffffffffffffffffffffffffffffffffffffffff1916827bffffffffffffffffffffffffffffffffffffffffffffffffffffffff1916149050919050565b6125c6838383612a8a565b505050565b60006125ec8473ffffffffffffffffffffffffffffffffffffffff16612a8f565b15612755578373ffffffffffffffffffffffffffffffffffffffff1663150b7a02612615611936565b8786866040518563ffffffff1660e01b81526004016126379493929190613a58565b602060405180830381600087803b15801561265157600080fd5b505af192505050801561268257506040513d601f19601f8201168201806040525081019061267f91906130d2565b60015b612705573d80600081146126b2576040519150601f19603f3d011682016040523d82523d6000602084013e6126b7565b606091505b506000815114156126fd576040517f08c379a00000000000000000000000000000000000000000000000000000000081526004016126f490613b21565b60405180910390fd5b805181602001fd5b63150b7a0260e01b7bffffffffffffffffffffffffffffffffffffffffffffffffffffffff1916817bffffffffffffffffffffffffffffffffffffffffffffffffffffffff19161491505061275a565b600190505b949350505050565b60008082905060005b84518110156128305760008582815181106127af577f4e487b7100000000000000000000000000000000000000000000000000000000600052603260045260246000fd5b602002602001015190508083116127f05782816040516020016127d39291906138e0565b60405160208183030381529060405280519060200120925061281c565b80836040516020016128039291906138e0565b6040516020818303038152906040528051906020012092505b508080612828906141e2565b91505061276b565b508091505092915050565b6128458383612aa2565b61285260008484846125cb565b612891576040517f08c379a000000000000000000000000000000000000000000000000000000000815260040161288890613b21565b60405180910390fd5b505050565b60606040519050601f19601f6020840101168101604052818152818360208301863c9392505050565b612955816040516024016128d39190613abf565b6040516020818303038152906040527f41304fac000000000000000000000000000000000000000000000000000000007bffffffffffffffffffffffffffffffffffffffffffffffffffffffff19166020820180517bffffffffffffffffffffffffffffffffffffffffffffffffffffffff8381831617835250505050612c70565b50565b6129ee8160405160240161296c9190613a3d565b6040516020818303038152906040527f2c2ecbc2000000000000000000000000000000000000000000000000000000007bffffffffffffffffffffffffffffffffffffffffffffffffffffffff19166020820180517bffffffffffffffffffffffffffffffffffffffffffffffffffffffff8381831617835250505050612c70565b50565b612a8781604051602401612a059190613e21565b6040516020818303038152906040527ff5b1bba9000000000000000000000000000000000000000000000000000000007bffffffffffffffffffffffffffffffffffffffffffffffffffffffff19166020820180517bffffffffffffffffffffffffffffffffffffffffffffffffffffffff8381831617835250505050612c70565b50565b505050565b600080823b905060008111915050919050565b600073ffffffffffffffffffffffffffffffffffffffff168273ffffffffffffffffffffffffffffffffffffffff161415612b12576040517f08c379a0000000000000000000000000000000000000000000000000000000008152600401612b0990613c61565b60405180910390fd5b612b1b816118ca565b15612b5b576040517f08c379a0000000000000000000000000000000000000000000000000000000008152600401612b5290613b41565b60405180910390fd5b612b67600083836125bb565b6001600360008473ffffffffffffffffffffffffffffffffffffffff1673ffffffffffffffffffffffffffffffffffffffff1681526020019081526020016000206000828254612bb79190613faa565b92505081905550816002600083815260200190815260200160002060006101000a81548173ffffffffffffffffffffffffffffffffffffffff021916908373ffffffffffffffffffffffffffffffffffffffff160217905550808273ffffffffffffffffffffffffffffffffffffffff16600073ffffffffffffffffffffffffffffffffffffffff167fddf252ad1be2c89b69c2b068fc378daa952ba7f163c4a11628f55a4df523b3ef60405160405180910390a45050565b60008151905060006a636f6e736f6c652e6c6f679050602083016000808483855afa5050505050565b6000612cac612ca784613f2b565b613f06565b905082815260208101848484011115612cc457600080fd5b612ccf84828561413d565b509392505050565b600081359050612ce681614aa9565b92915050565b600081519050612cfb81614aa9565b92915050565b60008083601f840112612d1357600080fd5b8235905067ffffffffffffffff811115612d2c57600080fd5b602083019150836020820283011115612d4457600080fd5b9250929050565b600081359050612d5a81614ac0565b92915050565b600081359050612d6f81614ad7565b92915050565b600081359050612d8481614aee565b92915050565b600081519050612d9981614aee565b92915050565b600082601f830112612db057600080fd5b8135612dc0848260208601612c99565b91505092915050565b60008083601f840112612ddb57600080fd5b8235905067ffffffffffffffff811115612df457600080fd5b602083019150836001820283011115612e0c57600080fd5b9250929050565b600060a08284031215612e2557600080fd5b612e2f60a0613f06565b90506000612e3f84828501612e9b565b6000830152506020612e5384828501612e9b565b6020830152506040612e6784828501612e9b565b6040830152506060612e7b84828501612d4b565b6060830152506080612e8f84828501612d4b565b60808301525092915050565b600081359050612eaa81614b05565b92915050565b600060208284031215612ec257600080fd5b6000612ed084828501612cd7565b91505092915050565b600060208284031215612eeb57600080fd5b6000612ef984828501612cec565b91505092915050565b60008060408385031215612f1557600080fd5b6000612f2385828601612cd7565b9250506020612f3485828601612cd7565b9150509250929050565b600080600060608486031215612f5357600080fd5b6000612f6186828701612cd7565b9350506020612f7286828701612cd7565b9250506040612f8386828701612e9b565b9150509250925092565b60008060008060808587031215612fa357600080fd5b6000612fb187828801612cd7565b9450506020612fc287828801612cd7565b9350506040612fd387828801612e9b565b925050606085013567ffffffffffffffff811115612ff057600080fd5b612ffc87828801612d9f565b91505092959194509250565b6000806040838503121561301b57600080fd5b600061302985828601612cd7565b925050602061303a85828601612d4b565b9150509250929050565b6000806040838503121561305757600080fd5b600061306585828601612cd7565b925050602061307685828601612e9b565b9150509250929050565b60006020828403121561309257600080fd5b60006130a084828501612d60565b91505092915050565b6000602082840312156130bb57600080fd5b60006130c984828501612d75565b91505092915050565b6000602082840312156130e457600080fd5b60006130f284828501612d8a565b91505092915050565b6000806020838503121561310e57600080fd5b600083013567ffffffffffffffff81111561312857600080fd5b61313485828601612dc9565b92509250509250929050565b600060a0828403121561315257600080fd5b600061316084828501612e13565b91505092915050565b60006020828403121561317b57600080fd5b600061318984828501612e9b565b91505092915050565b6000806000604084860312156131a757600080fd5b60006131b586828701612e9b565b935050602084013567ffffffffffffffff8111156131d257600080fd5b6131de86828701612dc9565b92509250509250925092565b60008060008060006060868803121561320257600080fd5b600061321088828901612e9b565b955050602086013567ffffffffffffffff81111561322d57600080fd5b61323988828901612dc9565b9450945050604086013567ffffffffffffffff81111561325857600080fd5b61326488828901612d01565b92509250509295509295909350565b61327c816140bf565b82525050565b61328b816140d1565b82525050565b6132a261329d826140dd565b61422b565b82525050565b60006132b382613f5c565b6132bd8185613f72565b93506132cd81856020860161414c565b6132d68161432c565b840191505092915050565b60006132ec82613f5c565b6132f68185613f83565b935061330681856020860161414c565b80840191505092915050565b600061331e8385613f8e565b935061332b83858461413d565b6133348361432c565b840190509392505050565b600061334b8385613f9f565b935061335883858461413d565b82840190509392505050565b600061336f82613f67565b6133798185613f8e565b935061338981856020860161414c565b6133928161432c565b840191505092915050565b60006133a882613f67565b6133b28185613f9f565b93506133c281856020860161414c565b80840191505092915050565b60006133db601183613f8e565b91506133e68261433d565b602082019050919050565b60006133fe600b83613f9f565b915061340982614366565b600b82019050919050565b6000613421600983613f9f565b915061342c8261438f565b600982019050919050565b6000613444601483613f8e565b915061344f826143b8565b602082019050919050565b6000613467603283613f8e565b9150613472826143e1565b604082019050919050565b600061348a600c83613f9f565b915061349582614430565b600c82019050919050565b60006134ad601c83613f8e565b91506134b882614459565b602082019050919050565b60006134d0601d83613f8e565b91506134db82614482565b602082019050919050565b60006134f3602483613f8e565b91506134fe826144ab565b604082019050919050565b6000613516601983613f8e565b9150613521826144fa565b602082019050919050565b6000613539602c83613f8e565b915061354482614523565b604082019050919050565b600061355c603883613f8e565b915061356782614572565b604082019050919050565b600061357f602a83613f8e565b915061358a826145c1565b604082019050919050565b60006135a2602983613f8e565b91506135ad82614610565b604082019050919050565b60006135c5601a83613f8e565b91506135d08261465f565b602082019050919050565b60006135e8600283613f9f565b91506135f382614688565b600282019050919050565b600061360b602083613f8e565b9150613616826146b1565b602082019050919050565b600061362e600d83613f9f565b9150613639826146da565b600d82019050919050565b6000613651602c83613f8e565b915061365c82614703565b604082019050919050565b6000613674601283613f9f565b915061367f82614752565b601282019050919050565b6000613697602083613f8e565b91506136a28261477b565b602082019050919050565b60006136ba602983613f8e565b91506136c5826147a4565b604082019050919050565b60006136dd601683613f8e565b91506136e8826147f3565b602082019050919050565b6000613700602183613f8e565b915061370b8261481c565b604082019050919050565b6000613723602383613f8e565b915061372e8261486b565b604082019050919050565b6000613746600183613f9f565b9150613751826148ba565b600182019050919050565b6000613769601d83613f9f565b9150613774826148c3565b601d82019050919050565b600061378c601783613f9f565b9150613797826148ec565b601782019050919050565b60006137af601983613f8e565b91506137ba82614915565b602082019050919050565b60006137d2603183613f8e565b91506137dd8261493e565b604082019050919050565b60006137f5600d83613f8e565b91506138008261498d565b602082019050919050565b6000613818601383613f8e565b9150613823826149b6565b602082019050919050565b600061383b601783613f8e565b9150613846826149df565b602082019050919050565b600061385e600a83613f9f565b915061386982614a08565b600a82019050919050565b6000613881602283613f8e565b915061388c82614a31565b604082019050919050565b60006138a4601b83613f8e565b91506138af82614a80565b602082019050919050565b6138c381614133565b82525050565b6138da6138d582614133565b614235565b82525050565b60006138ec8285613291565b6020820191506138fc8284613291565b6020820191508190509392505050565b600061391982848661333f565b91508190509392505050565b6000613930826133f1565b915061393c82846132e1565b915081905092915050565b600061395282613414565b915061395d8261347d565b9150613969828561339d565b915061397482613667565b915061397f82613851565b915061398a82613621565b9150613996828461339d565b91506139a1826135db565b91508190509392505050565b60006139b882613739565b91506139c482846132e1565b915081905092915050565b60006139da8261375c565b91506139e6828461339d565b915081905092915050565b60006139fc8261377f565b9150613a08828461339d565b915081905092915050565b6000613a1f82866138c9565b602082019150613a3082848661333f565b9150819050949350505050565b6000602082019050613a526000830184613273565b92915050565b6000608082019050613a6d6000830187613273565b613a7a6020830186613273565b613a8760408301856138ba565b8181036060830152613a9981846132a8565b905095945050505050565b6000602082019050613ab96000830184613282565b92915050565b60006020820190508181036000830152613ad98184613364565b905092915050565b60006020820190508181036000830152613afa816133ce565b9050919050565b60006020820190508181036000830152613b1a81613437565b9050919050565b60006020820190508181036000830152613b3a8161345a565b9050919050565b60006020820190508181036000830152613b5a816134a0565b9050919050565b60006020820190508181036000830152613b7a816134c3565b9050919050565b60006020820190508181036000830152613b9a816134e6565b9050919050565b60006020820190508181036000830152613bba81613509565b9050919050565b60006020820190508181036000830152613bda8161352c565b9050919050565b60006020820190508181036000830152613bfa8161354f565b9050919050565b60006020820190508181036000830152613c1a81613572565b9050919050565b60006020820190508181036000830152613c3a81613595565b9050919050565b60006020820190508181036000830152613c5a816135b8565b9050919050565b60006020820190508181036000830152613c7a816135fe565b9050919050565b60006020820190508181036000830152613c9a81613644565b9050919050565b60006020820190508181036000830152613cba8161368a565b9050919050565b60006020820190508181036000830152613cda816136ad565b9050919050565b60006020820190508181036000830152613cfa816136d0565b9050919050565b60006020820190508181036000830152613d1a816136f3565b9050919050565b60006020820190508181036000830152613d3a81613716565b9050919050565b60006020820190508181036000830152613d5a816137a2565b9050919050565b60006020820190508181036000830152613d7a816137c5565b9050919050565b60006020820190508181036000830152613d9a816137e8565b9050919050565b60006020820190508181036000830152613dba8161380b565b9050919050565b60006020820190508181036000830152613dda8161382e565b9050919050565b60006020820190508181036000830152613dfa81613874565b9050919050565b60006020820190508181036000830152613e1a81613897565b9050919050565b6000602082019050613e3660008301846138ba565b92915050565b6000608082019050613e5160008301886138ba565b613e5e6020830187613273565b613e6b6040830186613273565b8181036060830152613e7e818486613312565b90509695505050505050565b6000604082019050613e9f60008301856138ba565b613eac60208301846138ba565b9392505050565b600060a082019050613ec860008301886138ba565b613ed560208301876138ba565b613ee260408301866138ba565b613eef6060830185613282565b613efc6080830184613282565b9695505050505050565b6000613f10613f21565b9050613f1c82826141b1565b919050565b6000604051905090565b600067ffffffffffffffff821115613f4657613f456142fd565b5b613f4f8261432c565b9050602081019050919050565b600081519050919050565b600081519050919050565b600082825260208201905092915050565b600081905092915050565b600082825260208201905092915050565b600081905092915050565b6000613fb582614133565b9150613fc083614133565b9250827fffffffffffffffffffffffffffffffffffffffffffffffffffffffffffffffff03821115613ff557613ff4614270565b5b828201905092915050565b600061400b82614133565b915061401683614133565b9250826140265761402561429f565b5b828204905092915050565b600061403c82614133565b915061404783614133565b9250817fffffffffffffffffffffffffffffffffffffffffffffffffffffffffffffffff04831182151516156140805761407f614270565b5b828202905092915050565b600061409682614133565b91506140a183614133565b9250828210156140b4576140b3614270565b5b828203905092915050565b60006140ca82614113565b9050919050565b60008115159050919050565b6000819050919050565b60007fffffffff0000000000000000000000000000000000000000000000000000000082169050919050565b600073ffffffffffffffffffffffffffffffffffffffff82169050919050565b6000819050919050565b82818337600083830152505050565b60005b8381101561416a57808201518184015260208101905061414f565b83811115614179576000848401525b50505050565b6000600282049050600182168061419757607f821691505b602082108114156141ab576141aa6142ce565b5b50919050565b6141ba8261432c565b810181811067ffffffffffffffff821117156141d9576141d86142fd565b5b80604052505050565b60006141ed82614133565b91507fffffffffffffffffffffffffffffffffffffffffffffffffffffffffffffffff8214156142205761421f614270565b5b600182019050919050565b6000819050919050565b6000819050919050565b600061424a82614133565b915061425583614133565b9250826142655761426461429f565b5b828206905092915050565b7f4e487b7100000000000000000000000000000000000000000000000000000000600052601160045260246000fd5b7f4e487b7100000000000000000000000000000000000000000000000000000000600052601260045260246000fd5b7f4e487b7100000000000000000000000000000000000000000000000000000000600052602260045260246000fd5b7f4e487b7100000000000000000000000000000000000000000000000000000000600052604160045260246000fd5b6000601f19601f8301169050919050565b7f4445504c4f594d454e545f4641494c4544000000000000000000000000000000600082015250565b7f600b5981380380925939f3000000000000000000000000000000000000000000600082015250565b7f7b226e616d65223a220000000000000000000000000000000000000000000000600082015250565b7f4475636b20646f6573206e6f742065786973742e000000000000000000000000600082015250565b7f4552433732313a207472616e7366657220746f206e6f6e20455243373231526560008201527f63656976657220696d706c656d656e7465720000000000000000000000000000602082015250565b7f546f7a7a69204475636b20230000000000000000000000000000000000000000600082015250565b7f4552433732313a20746f6b656e20616c7265616479206d696e74656400000000600082015250565b7f54686520616d6f756e7420686173206265656e2065786365656465642e000000600082015250565b7f4552433732313a207472616e7366657220746f20746865207a65726f2061646460008201527f7265737300000000000000000000000000000000000000000000000000000000602082015250565b7f4552433732313a20617070726f766520746f2063616c6c657200000000000000600082015250565b7f4552433732313a206f70657261746f7220717565727920666f72206e6f6e657860008201527f697374656e7420746f6b656e0000000000000000000000000000000000000000602082015250565b7f4552433732313a20617070726f76652063616c6c6572206973206e6f74206f7760008201527f6e6572206e6f7220617070726f76656420666f7220616c6c0000000000000000602082015250565b7f4552433732313a2062616c616e636520717565727920666f7220746865207a6560008201527f726f206164647265737300000000000000000000000000000000000000000000602082015250565b7f4552433732313a206f776e657220717565727920666f72206e6f6e657869737460008201527f656e7420746f6b656e0000000000000000000000000000000000000000000000602082015250565b7f437573746f6d206475636b20616c726561647920657869737473000000000000600082015250565b7f227d000000000000000000000000000000000000000000000000000000000000600082015250565b7f4552433732313a206d696e7420746f20746865207a65726f2061646472657373600082015250565b7f222c2022696d616765223a202200000000000000000000000000000000000000600082015250565b7f4552433732313a20617070726f76656420717565727920666f72206e6f6e657860008201527f697374656e7420746f6b656e0000000000000000000000000000000000000000602082015250565b7f222c20226465736372697074696f6e223a220000000000000000000000000000600082015250565b7f4f776e61626c653a2063616c6c6572206973206e6f7420746865206f776e6572600082015250565b7f4552433732313a207472616e73666572206f6620746f6b656e2074686174206960008201527f73206e6f74206f776e0000000000000000000000000000000000000000000000602082015250565b7f4275726e2077696e646f77206861732070617373656400000000000000000000600082015250565b7f4552433732313a20617070726f76616c20746f2063757272656e74206f776e6560008201527f7200000000000000000000000000000000000000000000000000000000000000602082015250565b7f4d696e74696e67206f6620437573746f6d204475636b7320697320646973616260008201527f6c65640000000000000000000000000000000000000000000000000000000000602082015250565b60008082015250565b7f646174613a6170706c69636174696f6e2f6a736f6e3b6261736536342c000000600082015250565b7f646174613a696d6167652f776562703b6261736536342c000000000000000000600082015250565b7f437573746f6d206475636b206c696d6974207265616368656400000000000000600082015250565b7f4552433732313a207472616e736665722063616c6c6572206973206e6f74206f60008201527f776e6572206e6f7220617070726f766564000000000000000000000000000000602082015250565b7f696e76616c69642070726f6f6600000000000000000000000000000000000000600082015250565b7f4554485f5452414e534645525f4641494c454400000000000000000000000000600082015250565b7f6d73672e76616c756520213d206475636b207072696365000000000000000000600082015250565b7f48656c6c20796561682100000000000000000000000000000000000000000000600082015250565b7f4d696e74696e67206f6620546f7a7a69204475636b732069732064697361626c60008201527f6564000000000000000000000000000000000000000000000000000000000000602082015250565b7f546f7a7a69206475636b2063616e2774206265206275726e65642e0000000000600082015250565b614ab2816140bf565b8114614abd57600080fd5b50565b614ac9816140d1565b8114614ad457600080fd5b50565b614ae0816140dd565b8114614aeb57600080fd5b50565b614af7816140e7565b8114614b0257600080fd5b50565b614b0e81614133565b8114614b1957600080fd5b5056fe4142434445464748494a4b4c4d4e4f505152535455565758595a6162636465666768696a6b6c6d6e6f707172737475767778797a303132333435363738392b2fa26469706673582212207ecd49159fe7767ff0b1a9bd2ead3b3133816416bfb93781153ca4b7edc16b0e64736f6c63430008040033",
  "linkReferences": {},
  "deployedLinkReferences": {}
}