{
  "_format": "hh-sol-artifact-1",
  "contractName": "TheAmazingTozziDuckMachine",
  "sourceName": "contracts/TheAmazingTozziDuckMachine.sol",
  "abi": [
    {
      "inputs": [
        {
          "internalType": "string",
          "name": "ownershipTokenURI",
          "type": "string"
        }
      ],
      "stateMutability": "nonpayable",
      "type": "constructor"
    },
    {
      "anonymous": false,
      "inputs": [
        {
          "indexed": true,
          "internalType": "address",
          "name": "owner",
          "type": "address"
        },
        {
          "indexed": true,
          "internalType": "address",
          "name": "approved",
          "type": "address"
        },
        {
          "indexed": true,
          "internalType": "uint256",
          "name": "tokenId",
          "type": "uint256"
        }
      ],
      "name": "Approval",
      "type": "event"
    },
    {
      "anonymous": false,
      "inputs": [
        {
          "indexed": true,
          "internalType": "address",
          "name": "owner",
          "type": "address"
        },
        {
          "indexed": true,
          "internalType": "address",
          "name": "operator",
          "type": "address"
        },
        {
          "indexed": false,
          "internalType": "bool",
          "name": "approved",
          "type": "bool"
        }
      ],
      "name": "ApprovalForAll",
      "type": "event"
    },
    {
      "anonymous": false,
      "inputs": [
        {
          "indexed": false,
          "internalType": "uint256",
          "name": "duckId",
          "type": "uint256"
        },
        {
          "indexed": false,
          "internalType": "address",
          "name": "admin",
          "type": "address"
        },
        {
          "indexed": false,
          "internalType": "address",
          "name": "owner",
          "type": "address"
        },
        {
          "indexed": false,
          "internalType": "string",
          "name": "reason",
          "type": "string"
        }
      ],
      "name": "CustomDuckBurned",
      "type": "event"
    },
    {
      "anonymous": false,
      "inputs": [
        {
          "indexed": true,
          "internalType": "enum DuckType",
          "name": "duckType",
          "type": "uint8"
        },
        {
          "indexed": true,
          "internalType": "address",
          "name": "who",
          "type": "address"
        },
        {
          "indexed": false,
          "internalType": "uint256",
          "name": "tokenId",
          "type": "uint256"
        },
        {
          "indexed": false,
          "internalType": "uint256",
          "name": "price",
          "type": "uint256"
        }
      ],
      "name": "DuckMinted",
      "type": "event"
    },
    {
      "anonymous": false,
      "inputs": [
        {
          "components": [
            {
              "internalType": "uint256",
              "name": "tozziDuckPrice",
              "type": "uint256"
            },
            {
              "internalType": "uint256",
              "name": "customDuckPrice",
              "type": "uint256"
            },
            {
              "internalType": "uint256",
              "name": "maxCustomDucks",
              "type": "uint256"
            },
            {
              "internalType": "enum MintStatus",
              "name": "tozziDuckMintStatus",
              "type": "uint8"
            },
            {
              "internalType": "enum MintStatus",
              "name": "customDuckMintStatus",
              "type": "uint8"
            }
          ],
          "indexed": true,
          "internalType": "struct MachineConfig",
          "name": "machineConfig",
          "type": "tuple"
        },
        {
          "indexed": true,
          "internalType": "address",
          "name": "who",
          "type": "address"
        }
      ],
      "name": "MachineConfigUpdated",
      "type": "event"
    },
    {
      "anonymous": false,
      "inputs": [
        {
          "indexed": true,
          "internalType": "address",
          "name": "from",
          "type": "address"
        },
        {
          "indexed": true,
          "internalType": "address",
          "name": "to",
          "type": "address"
        },
        {
          "indexed": true,
          "internalType": "uint256",
          "name": "tokenId",
          "type": "uint256"
        }
      ],
      "name": "Transfer",
      "type": "event"
    },
    {
      "inputs": [],
      "name": "BURN_WINDOW",
      "outputs": [
        {
          "internalType": "uint256",
          "name": "",
          "type": "uint256"
        }
      ],
      "stateMutability": "view",
      "type": "function"
    },
    {
      "inputs": [],
      "name": "OWNERSHIP_TOKEN_ID",
      "outputs": [
        {
          "internalType": "uint256",
          "name": "",
          "type": "uint256"
        }
      ],
      "stateMutability": "view",
      "type": "function"
    },
    {
      "inputs": [
        {
          "internalType": "address",
          "name": "to",
          "type": "address"
        },
        {
          "internalType": "uint256",
          "name": "tokenId",
          "type": "uint256"
        }
      ],
      "name": "approve",
      "outputs": [],
      "stateMutability": "nonpayable",
      "type": "function"
    },
    {
      "inputs": [
        {
          "internalType": "address",
          "name": "owner",
          "type": "address"
        }
      ],
      "name": "balanceOf",
      "outputs": [
        {
          "internalType": "uint256",
          "name": "",
          "type": "uint256"
        }
      ],
      "stateMutability": "view",
      "type": "function"
    },
    {
      "inputs": [
        {
          "internalType": "uint256",
          "name": "duckId",
          "type": "uint256"
        },
        {
          "internalType": "string",
          "name": "reason",
          "type": "string"
        }
      ],
      "name": "burnRenegadeDuck",
      "outputs": [],
      "stateMutability": "nonpayable",
      "type": "function"
    },
    {
      "inputs": [
        {
          "internalType": "uint256",
          "name": "",
          "type": "uint256"
        }
      ],
      "name": "customDuckHatchedTimes",
      "outputs": [
        {
          "internalType": "uint256",
          "name": "",
          "type": "uint256"
        }
      ],
      "stateMutability": "view",
      "type": "function"
    },
    {
      "inputs": [
        {
          "internalType": "uint256",
          "name": "",
          "type": "uint256"
        }
      ],
      "name": "duckIdToWEBP",
      "outputs": [
        {
          "internalType": "address",
          "name": "",
          "type": "address"
        }
      ],
      "stateMutability": "view",
      "type": "function"
    },
    {
      "inputs": [
        {
          "internalType": "uint256",
          "name": "tokenId",
          "type": "uint256"
        }
      ],
      "name": "getApproved",
      "outputs": [
        {
          "internalType": "address",
          "name": "",
          "type": "address"
        }
      ],
      "stateMutability": "view",
      "type": "function"
    },
    {
      "inputs": [
        {
          "internalType": "address",
          "name": "owner",
          "type": "address"
        },
        {
          "internalType": "address",
          "name": "operator",
          "type": "address"
        }
      ],
      "name": "isApprovedForAll",
      "outputs": [
        {
          "internalType": "bool",
          "name": "",
          "type": "bool"
        }
      ],
      "stateMutability": "view",
      "type": "function"
    },
    {
      "inputs": [
        {
          "internalType": "bytes32",
          "name": "",
          "type": "bytes32"
        }
      ],
      "name": "isCustomExisting",
      "outputs": [
        {
          "internalType": "bool",
          "name": "",
          "type": "bool"
        }
      ],
      "stateMutability": "view",
      "type": "function"
    },
    {
      "inputs": [],
      "name": "machineConfig",
      "outputs": [
        {
          "internalType": "uint256",
          "name": "tozziDuckPrice",
          "type": "uint256"
        },
        {
          "internalType": "uint256",
          "name": "customDuckPrice",
          "type": "uint256"
        },
        {
          "internalType": "uint256",
          "name": "maxCustomDucks",
          "type": "uint256"
        },
        {
          "internalType": "enum MintStatus",
          "name": "tozziDuckMintStatus",
          "type": "uint8"
        },
        {
          "internalType": "enum MintStatus",
          "name": "customDuckMintStatus",
          "type": "uint8"
        }
      ],
      "stateMutability": "view",
      "type": "function"
    },
    {
      "inputs": [
        {
          "internalType": "string",
          "name": "webp",
          "type": "string"
        }
      ],
      "name": "mintCustomDuck",
      "outputs": [],
      "stateMutability": "payable",
      "type": "function"
    },
    {
      "inputs": [
        {
          "internalType": "uint256",
          "name": "duckId",
          "type": "uint256"
        },
        {
          "internalType": "string",
          "name": "webp",
          "type": "string"
        },
        {
          "internalType": "bytes32[]",
          "name": "merkleProof",
          "type": "bytes32[]"
        }
      ],
      "name": "mintTozziDuck",
      "outputs": [],
      "stateMutability": "payable",
      "type": "function"
    },
    {
      "inputs": [],
      "name": "name",
      "outputs": [
        {
          "internalType": "string",
          "name": "",
          "type": "string"
        }
      ],
      "stateMutability": "view",
      "type": "function"
    },
    {
      "inputs": [
        {
          "internalType": "uint256",
          "name": "tokenId",
          "type": "uint256"
        }
      ],
      "name": "ownerOf",
      "outputs": [
        {
          "internalType": "address",
          "name": "",
          "type": "address"
        }
      ],
      "stateMutability": "view",
      "type": "function"
    },
    {
      "inputs": [
        {
          "internalType": "address",
          "name": "from",
          "type": "address"
        },
        {
          "internalType": "address",
          "name": "to",
          "type": "address"
        },
        {
          "internalType": "uint256",
          "name": "tokenId",
          "type": "uint256"
        }
      ],
      "name": "safeTransferFrom",
      "outputs": [],
      "stateMutability": "nonpayable",
      "type": "function"
    },
    {
      "inputs": [
        {
          "internalType": "address",
          "name": "from",
          "type": "address"
        },
        {
          "internalType": "address",
          "name": "to",
          "type": "address"
        },
        {
          "internalType": "uint256",
          "name": "tokenId",
          "type": "uint256"
        },
        {
          "internalType": "bytes",
          "name": "_data",
          "type": "bytes"
        }
      ],
      "name": "safeTransferFrom",
      "outputs": [],
      "stateMutability": "nonpayable",
      "type": "function"
    },
    {
      "inputs": [
        {
          "internalType": "address",
          "name": "operator",
          "type": "address"
        },
        {
          "internalType": "bool",
          "name": "approved",
          "type": "bool"
        }
      ],
      "name": "setApprovalForAll",
      "outputs": [],
      "stateMutability": "nonpayable",
      "type": "function"
    },
    {
      "inputs": [
        {
          "internalType": "address",
          "name": "who",
          "type": "address"
        },
        {
          "internalType": "uint128",
          "name": "tozziDuckAllowance",
          "type": "uint128"
        },
        {
          "internalType": "uint128",
          "name": "customDuckAllowance",
          "type": "uint128"
        }
      ],
      "name": "setDuckAllowance",
      "outputs": [],
      "stateMutability": "nonpayable",
      "type": "function"
    },
    {
      "inputs": [
        {
          "components": [
            {
              "internalType": "uint256",
              "name": "tozziDuckPrice",
              "type": "uint256"
            },
            {
              "internalType": "uint256",
              "name": "customDuckPrice",
              "type": "uint256"
            },
            {
              "internalType": "uint256",
              "name": "maxCustomDucks",
              "type": "uint256"
            },
            {
              "internalType": "enum MintStatus",
              "name": "tozziDuckMintStatus",
              "type": "uint8"
            },
            {
              "internalType": "enum MintStatus",
              "name": "customDuckMintStatus",
              "type": "uint8"
            }
          ],
          "internalType": "struct MachineConfig",
          "name": "setting",
          "type": "tuple"
        }
      ],
      "name": "setMachineConfig",
      "outputs": [],
      "stateMutability": "nonpayable",
      "type": "function"
    },
    {
      "inputs": [
        {
          "internalType": "bytes4",
          "name": "interfaceId",
          "type": "bytes4"
        }
      ],
      "name": "supportsInterface",
      "outputs": [
        {
          "internalType": "bool",
          "name": "",
          "type": "bool"
        }
      ],
      "stateMutability": "view",
      "type": "function"
    },
    {
      "inputs": [],
      "name": "symbol",
      "outputs": [
        {
          "internalType": "string",
          "name": "",
          "type": "string"
        }
      ],
      "stateMutability": "view",
      "type": "function"
    },
    {
      "inputs": [
        {
          "internalType": "uint256",
          "name": "index",
          "type": "uint256"
        }
      ],
      "name": "tokenByIndex",
      "outputs": [
        {
          "internalType": "uint256",
          "name": "",
          "type": "uint256"
        }
      ],
      "stateMutability": "view",
      "type": "function"
    },
    {
      "inputs": [
        {
          "internalType": "address",
          "name": "owner",
          "type": "address"
        },
        {
          "internalType": "uint256",
          "name": "index",
          "type": "uint256"
        }
      ],
      "name": "tokenOfOwnerByIndex",
      "outputs": [
        {
          "internalType": "uint256",
          "name": "",
          "type": "uint256"
        }
      ],
      "stateMutability": "view",
      "type": "function"
    },
    {
      "inputs": [
        {
          "internalType": "uint256",
          "name": "tokenId",
          "type": "uint256"
        }
      ],
      "name": "tokenURI",
      "outputs": [
        {
          "internalType": "string",
          "name": "",
          "type": "string"
        }
      ],
      "stateMutability": "view",
      "type": "function"
    },
    {
      "inputs": [],
      "name": "totalSupply",
      "outputs": [
        {
          "internalType": "uint256",
          "name": "",
          "type": "uint256"
        }
      ],
      "stateMutability": "view",
      "type": "function"
    },
    {
      "inputs": [
        {
          "internalType": "address",
          "name": "from",
          "type": "address"
        },
        {
          "internalType": "address",
          "name": "to",
          "type": "address"
        },
        {
          "internalType": "uint256",
          "name": "tokenId",
          "type": "uint256"
        }
      ],
      "name": "transferFrom",
      "outputs": [],
      "stateMutability": "nonpayable",
      "type": "function"
    },
    {
      "inputs": [
        {
          "internalType": "address",
          "name": "",
          "type": "address"
        }
      ],
      "name": "whitelist",
      "outputs": [
        {
          "internalType": "uint128",
          "name": "tozziDuckAllowance",
          "type": "uint128"
        },
        {
          "internalType": "uint128",
          "name": "customDuckAllowance",
          "type": "uint128"
        }
      ],
      "stateMutability": "view",
      "type": "function"
    },
    {
      "inputs": [
        {
          "internalType": "address",
          "name": "recipient",
          "type": "address"
        },
        {
          "internalType": "uint256",
          "name": "amount",
          "type": "uint256"
        }
      ],
      "name": "withdraw",
      "outputs": [],
      "stateMutability": "nonpayable",
      "type": "function"
    }
  ],
  "bytecode": "0x60806040523480156200001157600080fd5b5060405162003ef738038062003ef7833981016040819052620000349162000852565b604080518082018252600b81526a546f7a7a69204475636b7360a81b602080830191825283518085019094526007845266545a4455434b5360c81b90840152815191929162000086916000916200077b565b5080516200009c9060019060208401906200077b565b50508151620000b49150600b9060208401906200077b565b50620000c3336101a4620000ca565b5062000a2d565b620000ec828260405180602001604052806000815250620000f060201b60201c565b5050565b620000fc83836200016c565b6200010b6000848484620002c2565b620001675760405162461bcd60e51b8152602060048201526032602482015260008051602062003ed783398151915260448201527131b2b4bb32b91034b6b83632b6b2b73a32b960711b60648201526084015b60405180910390fd5b505050565b6001600160a01b038216620001c45760405162461bcd60e51b815260206004820181905260248201527f4552433732313a206d696e7420746f20746865207a65726f206164647265737360448201526064016200015e565b6000818152600260205260409020546001600160a01b0316156200022b5760405162461bcd60e51b815260206004820152601c60248201527f4552433732313a20746f6b656e20616c7265616479206d696e7465640000000060448201526064016200015e565b62000239600083836200042b565b6001600160a01b0382166000908152600360205260408120805460019290620002649084906200095c565b909155505060008181526002602052604080822080546001600160a01b0319166001600160a01b03861690811790915590518392907fddf252ad1be2c89b69c2b068fc378daa952ba7f163c4a11628f55a4df523b3ef908290a45050565b6000620002e3846001600160a01b03166200050760201b62001a0e1760201c565b156200041f57604051630a85bd0160e11b81526001600160a01b0385169063150b7a02906200031d90339089908890889060040162000906565b602060405180830381600087803b1580156200033857600080fd5b505af19250505080156200036b575060408051601f3d908101601f19168201909252620003689181019062000821565b60015b62000404573d8080156200039c576040519150601f19603f3d011682016040523d82523d6000602084013e620003a1565b606091505b508051620003fc5760405162461bcd60e51b8152602060048201526032602482015260008051602062003ed783398151915260448201527131b2b4bb32b91034b6b83632b6b2b73a32b960711b60648201526084016200015e565b805181602001fd5b6001600160e01b031916630a85bd0160e11b14905062000423565b5060015b949350505050565b620004438383836200016760201b620008bd1760201c565b6001600160a01b038316620004a1576200049b81600880546000838152600960205260408120829055600182018355919091527ff3f7a9fe364faab93b216da50a3214154f22a0a2b415b23a84c8169e8b636ee30155565b620004c7565b816001600160a01b0316836001600160a01b031614620004c757620004c7838262000516565b6001600160a01b038216620004e1576200016781620005c3565b826001600160a01b0316826001600160a01b0316146200016757620001678282620006a1565b6001600160a01b03163b151590565b600060016200053084620006f260201b62000bfb1760201c565b6200053c919062000977565b60008381526007602052604090205490915080821462000590576001600160a01b03841660009081526006602090815260408083208584528252808320548484528184208190558352600790915290208190555b5060009182526007602090815260408084208490556001600160a01b039094168352600681528383209183525290812055565b600854600090620005d79060019062000977565b600083815260096020526040812054600880549394509092849081106200060e57634e487b7160e01b600052603260045260246000fd5b9060005260206000200154905080600883815481106200063e57634e487b7160e01b600052603260045260246000fd5b60009182526020808320909101929092558281526009909152604080822084905585825281205560088054806200068557634e487b7160e01b600052603160045260246000fd5b6001900381819060005260206000200160009055905550505050565b6000620006b983620006f260201b62000bfb1760201c565b6001600160a01b039093166000908152600660209081526040808320868452825280832085905593825260079052919091209190915550565b60006001600160a01b0382166200075f5760405162461bcd60e51b815260206004820152602a60248201527f4552433732313a2062616c616e636520717565727920666f7220746865207a65604482015269726f206164647265737360b01b60648201526084016200015e565b506001600160a01b031660009081526003602052604090205490565b8280546200078990620009c4565b90600052602060002090601f016020900481019282620007ad5760008555620007f8565b82601f10620007c857805160ff1916838001178555620007f8565b82800160010185558215620007f8579182015b82811115620007f8578251825591602001919060010190620007db565b50620008069291506200080a565b5090565b5b808211156200080657600081556001016200080b565b60006020828403121562000833578081fd5b81516001600160e01b0319811681146200084b578182fd5b9392505050565b60006020828403121562000864578081fd5b81516001600160401b03808211156200087b578283fd5b818401915084601f8301126200088f578283fd5b815181811115620008a457620008a462000a17565b604051601f8201601f19908116603f01168101908382118183101715620008cf57620008cf62000a17565b81604052828152876020848701011115620008e8578586fd5b620008fb83602083016020880162000991565b979650505050505050565b600060018060a01b038087168352808616602084015250836040830152608060608301528251806080840152620009458160a085016020870162000991565b601f01601f19169190910160a00195945050505050565b6000821982111562000972576200097262000a01565b500190565b6000828210156200098c576200098c62000a01565b500390565b60005b83811015620009ae57818101518382015260200162000994565b83811115620009be576000848401525b50505050565b600181811c90821680620009d957607f821691505b60208210811415620009fb57634e487b7160e01b600052602260045260246000fd5b50919050565b634e487b7160e01b600052601160045260246000fd5b634e487b7160e01b600052604160045260246000fd5b61349a8062000a3d6000396000f3fe6080604052600436106101c25760003560e01c80636352211e116100f7578063a22cb46511610095578063c87b56dd11610064578063c87b56dd14610584578063e67399fa146105a4578063e985e9c5146105b7578063f3fef3a31461060057600080fd5b8063a22cb46514610501578063b88d4fde14610521578063c2d5afab14610541578063c40f41751461055457600080fd5b80637f481d06116100d15780637f481d061461044b578063820e215f1461046b57806395d89b411461048b5780639b19251a146104a057600080fd5b80636352211e146103eb5780636966f51d1461040b57806370a082311461042b57600080fd5b806323b872dd116101645780632f745c591161013e5780632f745c591461037557806342842e0e146103955780634d5ea80e146103b55780634f6ccce7146103cb57600080fd5b806323b872dd146102fe5780632dabc24f1461031e5780632ec25c611461035e57600080fd5b8063095ea7b3116101a0578063095ea7b3146102565780631437253414610278578063149ba605146102b357806318160ddd146102e957600080fd5b806301ffc9a7146101c757806306fdde03146101fc578063081812fc1461021e575b600080fd5b3480156101d357600080fd5b506101e76101e2366004612d06565b610620565b60405190151581526020015b60405180910390f35b34801561020857600080fd5b50610211610664565b6040516101f391906131ea565b34801561022a57600080fd5b5061023e610239366004612cee565b6106f6565b6040516001600160a01b0390911681526020016101f3565b34801561026257600080fd5b50610276610271366004612cc5565b610790565b005b34801561028457600080fd5b506102a5610293366004612cee565b60136020526000908152604090205481565b6040519081526020016101f3565b3480156102bf57600080fd5b5061023e6102ce366004612cee565b6011602052600090815260409020546001600160a01b031681565b3480156102f557600080fd5b506008546102a5565b34801561030a57600080fd5b50610276610319366004612b56565b6108c2565b34801561032a57600080fd5b50600c54600d54600e54600f5461034d9392919060ff8082169161010090041685565b6040516101f395949392919061324e565b34801561036a57600080fd5b506102a562093a8081565b34801561038157600080fd5b506102a5610390366004612cc5565b610949565b3480156103a157600080fd5b506102766103b0366004612b56565b6109f1565b3480156103c157600080fd5b506102a56101a481565b3480156103d757600080fd5b506102a56103e6366004612cee565b610a0c565b3480156103f757600080fd5b5061023e610406366004612cee565b610abe565b34801561041757600080fd5b50610276610426366004612c83565b610b49565b34801561043757600080fd5b506102a5610446366004612b03565b610bfb565b34801561045757600080fd5b50610276610466366004612d7e565b610c95565b34801561047757600080fd5b50610276610486366004612df8565b610dd7565b34801561049757600080fd5b50610211611014565b3480156104ac57600080fd5b506104e16104bb366004612b03565b6010602052600090815260409020546001600160801b0380821691600160801b90041682565b604080516001600160801b039384168152929091166020830152016101f3565b34801561050d57600080fd5b5061027661051c366004612c49565b611023565b34801561052d57600080fd5b5061027661053c366004612b91565b611032565b61027661054f366004612e42565b6110c0565b34801561056057600080fd5b506101e761056f366004612cee565b60126020526000908152604090205460ff1681565b34801561059057600080fd5b5061021161059f366004612cee565b6113f3565b6102766105b2366004612d3e565b611539565b3480156105c357600080fd5b506101e76105d2366004612b24565b6001600160a01b03918216600090815260056020908152604080832093909416825291909152205460ff1690565b34801561060c57600080fd5b5061027661061b366004612cc5565b611902565b60006001600160e01b031982167f780e9d6300000000000000000000000000000000000000000000000000000000148061065e575061065e82611a1d565b92915050565b6060600080546106739061335f565b80601f016020809104026020016040519081016040528092919081815260200182805461069f9061335f565b80156106ec5780601f106106c1576101008083540402835291602001916106ec565b820191906000526020600020905b8154815290600101906020018083116106cf57829003601f168201915b5050505050905090565b6000818152600260205260408120546001600160a01b03166107745760405162461bcd60e51b815260206004820152602c60248201527f4552433732313a20617070726f76656420717565727920666f72206e6f6e657860448201526b34b9ba32b73a103a37b5b2b760a11b60648201526084015b60405180910390fd5b506000908152600460205260409020546001600160a01b031690565b600061079b82610abe565b9050806001600160a01b0316836001600160a01b031614156108255760405162461bcd60e51b815260206004820152602160248201527f4552433732313a20617070726f76616c20746f2063757272656e74206f776e6560448201527f7200000000000000000000000000000000000000000000000000000000000000606482015260840161076b565b336001600160a01b0382161480610841575061084181336105d2565b6108b35760405162461bcd60e51b815260206004820152603860248201527f4552433732313a20617070726f76652063616c6c6572206973206e6f74206f7760448201527f6e6572206e6f7220617070726f76656420666f7220616c6c0000000000000000606482015260840161076b565b6108bd8383611ab8565b505050565b6108cc3382611b26565b61093e5760405162461bcd60e51b815260206004820152603160248201527f4552433732313a207472616e736665722063616c6c6572206973206e6f74206f60448201527f776e6572206e6f7220617070726f766564000000000000000000000000000000606482015260840161076b565b6108bd838383611c1d565b600061095483610bfb565b82106109c85760405162461bcd60e51b815260206004820152602b60248201527f455243373231456e756d657261626c653a206f776e657220696e646578206f7560448201527f74206f6620626f756e6473000000000000000000000000000000000000000000606482015260840161076b565b506001600160a01b03919091166000908152600660209081526040808320938352929052205490565b6108bd83838360405180602001604052806000815250611032565b6000610a1760085490565b8210610a8b5760405162461bcd60e51b815260206004820152602c60248201527f455243373231456e756d657261626c653a20676c6f62616c20696e646578206f60448201527f7574206f6620626f756e64730000000000000000000000000000000000000000606482015260840161076b565b60088281548110610aac57634e487b7160e01b600052603260045260246000fd5b90600052602060002001549050919050565b6000818152600260205260408120546001600160a01b03168061065e5760405162461bcd60e51b815260206004820152602960248201527f4552433732313a206f776e657220717565727920666f72206e6f6e657869737460448201527f656e7420746f6b656e0000000000000000000000000000000000000000000000606482015260840161076b565b33610b556101a4610abe565b6001600160a01b031614610bab5760405162461bcd60e51b815260206004820152601860248201527f63616c6c6572206973206e6f7420746865206f776e65722e0000000000000000604482015260640161076b565b6040805180820182526001600160801b03938416815291831660208084019182526001600160a01b03909516600090815260109095529320905192518216600160801b0292909116919091179055565b60006001600160a01b038216610c795760405162461bcd60e51b815260206004820152602a60248201527f4552433732313a2062616c616e636520717565727920666f7220746865207a6560448201527f726f206164647265737300000000000000000000000000000000000000000000606482015260840161076b565b506001600160a01b031660009081526003602052604090205490565b33610ca16101a4610abe565b6001600160a01b031614610cf75760405162461bcd60e51b815260206004820152601860248201527f63616c6c6572206973206e6f7420746865206f776e65722e0000000000000000604482015260640161076b565b8051600c9081556020820151600d556040820151600e556060820151600f8054849392919060ff19166001836002811115610d4257634e487b7160e01b600052602160045260246000fd5b0217905550608082015160038201805461ff001916610100836002811115610d7a57634e487b7160e01b600052602160045260246000fd5b0217905550905050610d8d6101a4610abe565b6001600160a01b031681604051610da49190613152565b604051908190038120907f7e3187802ac9f290da9b4250774034b6bb25f4fbbc1affddb51fe76647b3d44290600090a350565b33610de36101a4610abe565b6001600160a01b031614610e395760405162461bcd60e51b815260206004820152601860248201527f63616c6c6572206973206e6f7420746865206f776e65722e0000000000000000604482015260640161076b565b60c8831015610e8a5760405162461bcd60e51b815260206004820152601b60248201527f546f7a7a69206475636b2063616e2774206265206275726e65642e0000000000604482015260640161076b565b6101a4831415610edc5760405162461bcd60e51b815260206004820152601360248201527f4f776e65727368697020746f6b656e2049442e00000000000000000000000000604482015260640161076b565b6000838152600260205260409020546001600160a01b0316610f405760405162461bcd60e51b815260206004820152601460248201527f4475636b20646f6573206e6f742065786973742e000000000000000000000000604482015260640161076b565b6000838152601360205260409020544290610f5f9062093a80906132ae565b811115610fae5760405162461bcd60e51b815260206004820152601760248201527f4275726e2077696e646f7720686173207061737365642e000000000000000000604482015260640161076b565b6000610fb985610abe565b9050610fc485611df5565b7f8efa309b2a595f8cc583824fc568aadeb0d7f0b2697a8ee38c742dff2dfc020b85610ff16101a4610abe565b8387876040516110059594939291906131fd565b60405180910390a15050505050565b6060600180546106739061335f565b61102e338383611e9c565b5050565b61103c3383611b26565b6110ae5760405162461bcd60e51b815260206004820152603160248201527f4552433732313a207472616e736665722063616c6c6572206973206e6f74206f60448201527f776e6572206e6f7220617070726f766564000000000000000000000000000000606482015260840161076b565b6110ba84848484611f6b565b50505050565b6001600f5460ff1660028111156110e757634e487b7160e01b600052602160045260246000fd5b14156111355760405162461bcd60e51b815260206004820181905260248201527f546f7a7a69204475636b73204d696e74696e672069732064697361626c65642e604482015260640161076b565b600c5434146111865760405162461bcd60e51b815260206004820152601d60248201527f6d73672e76616c756520213d20746f7a7a69206475636b207072696365000000604482015260640161076b565b6002600f5460ff1660028111156111ad57634e487b7160e01b600052602160045260246000fd5b141561125257336000908152601060205260409020546001600160801b03166112085760405162461bcd60e51b815260206004820152600d60248201526c6e6f7420616c6c6f77616e636560981b604482015260640161076b565b33600090815260106020526040812080546001600160801b03169161122c8361333c565b91906101000a8154816001600160801b0302191690836001600160801b03160217905550505b600085858560405160200161126993929190613194565b6040516020818303038152906040528051906020012090506112e18383808060200260200160405190810160405280939291908181526020018383602002808284376000920191909152507f0885f98e28c44d2dd7b21d5b9e2661e99e90482a771a419967dd2c9c8edfb0d79250859150611fe99050565b61132d5760405162461bcd60e51b815260206004820152600e60248201527f496e76616c69642050726f6f662e000000000000000000000000000000000000604482015260640161076b565b600061136e86868080601f016020809104026020016040519081016040528093929190818152602001838380828437600092019190915250611fff92505050565b600088815260116020526040902080546001600160a01b0319166001600160a01b03831617905590506113a133886120b0565b336001600160a01b03166000600c54604080518b815260208101929092527f75defe4009cda68109a3791163c97861b017d6c6e2ae24b1613d48793b4a131d910160405180910390a350505050505050565b60606101a482141561149157600b805461140c9061335f565b80601f01602080910402602001604051908101604052809291908181526020018280546114389061335f565b80156114855780601f1061145a57610100808354040283529160200191611485565b820191906000526020600020905b81548152906001019060200180831161146857829003601f168201915b50505050509050919050565b6000828152601160205260408120546114b2906001600160a01b03166120ca565b905060c88310156114e057806040516020016114ce919061310d565b60405160208183030381529060405290505b6115126114ec846120eb565b826040516020016114fe929190612f86565b604051602081830303815290604052612239565b60405160200161152291906130c8565b604051602081830303815290604052915050919050565b6101a460c8600a5461154b91906132ae565b141561156757600a80549060006115618361339a565b91905055505b6001600f54610100900460ff16600281111561159357634e487b7160e01b600052602160045260246000fd5b14156115e15760405162461bcd60e51b815260206004820181905260248201527f546f7a7a69204475636b73204d696e74696e672069732064697361626c65642e604482015260640161076b565b600e54600a54106116345760405162461bcd60e51b815260206004820152601a60248201527f437573746f6d206475636b206c696d697420726561636865642e000000000000604482015260640161076b565b600d5434146116855760405162461bcd60e51b815260206004820152601e60248201527f6d73672e76616c756520213d20637573746f6d206475636b2070726963650000604482015260640161076b565b6002600f54610100900460ff1660028111156116b157634e487b7160e01b600052602160045260246000fd5b14156117675733600090815260106020526040902054600160801b90046001600160801b03166117135760405162461bcd60e51b815260206004820152600d60248201526c6e6f7420616c6c6f77616e636560981b604482015260640161076b565b3360009081526010602081905260409091208054600160801b90046001600160801b0316916117418361333c565b91906101000a8154816001600160801b0302191690836001600160801b03160217905550505b6000828260405160200161177c929190612f31565b60408051601f1981840301815291815281516020928301206000818152601290935291205490915060ff16156117f45760405162461bcd60e51b815260206004820152601b60248201527f437573746f6d206475636b20616c7265616479206578697374732e0000000000604482015260640161076b565b6000818152601260205260408120805460ff19166001179055600a8054908261181c8361339a565b9091555061182b9060c86132ae565b9050600061186e85858080601f016020809104026020016040519081016040528093929190818152602001838380828437600092019190915250611fff92505050565b600083815260116020526040902080546001600160a01b0319166001600160a01b03831617905590506118a133836120b0565b6000828152601360205260409020429055336001600160a01b03166001600c546040805186815260208101929092527f75defe4009cda68109a3791163c97861b017d6c6e2ae24b1613d48793b4a131d910160405180910390a35050505050565b3361190e6101a4610abe565b6001600160a01b0316146119645760405162461bcd60e51b815260206004820152601860248201527f63616c6c6572206973206e6f7420746865206f776e65722e0000000000000000604482015260640161076b565b478111156119b45760405162461bcd60e51b815260206004820152601d60248201527f54686520616d6f756e7420686173206265656e2065786365656465642e000000604482015260640161076b565b60008111611a045760405162461bcd60e51b815260206004820152601360248201527f54686520616d6f756e74206973207a65726f2e00000000000000000000000000604482015260640161076b565b61102e82826123e4565b6001600160a01b03163b151590565b60006001600160e01b031982167f80ac58cd000000000000000000000000000000000000000000000000000000001480611a8057506001600160e01b031982167f5b5e139f00000000000000000000000000000000000000000000000000000000145b8061065e57507f01ffc9a7000000000000000000000000000000000000000000000000000000006001600160e01b031983161461065e565b600081815260046020526040902080546001600160a01b0319166001600160a01b0384169081179091558190611aed82610abe565b6001600160a01b03167f8c5be1e5ebec7d5bd14f71427d1e84f3dd0314c0f7b2291e5b200ac8c7c3b92560405160405180910390a45050565b6000818152600260205260408120546001600160a01b0316611b9f5760405162461bcd60e51b815260206004820152602c60248201527f4552433732313a206f70657261746f7220717565727920666f72206e6f6e657860448201526b34b9ba32b73a103a37b5b2b760a11b606482015260840161076b565b6000611baa83610abe565b9050806001600160a01b0316846001600160a01b03161480611be55750836001600160a01b0316611bda846106f6565b6001600160a01b0316145b80611c1557506001600160a01b0380821660009081526005602090815260408083209388168352929052205460ff165b949350505050565b826001600160a01b0316611c3082610abe565b6001600160a01b031614611cac5760405162461bcd60e51b815260206004820152602560248201527f4552433732313a207472616e736665722066726f6d20696e636f72726563742060448201527f6f776e6572000000000000000000000000000000000000000000000000000000606482015260840161076b565b6001600160a01b038216611d275760405162461bcd60e51b8152602060048201526024808201527f4552433732313a207472616e7366657220746f20746865207a65726f2061646460448201527f7265737300000000000000000000000000000000000000000000000000000000606482015260840161076b565b611d3283838361243f565b611d3d600082611ab8565b6001600160a01b0383166000908152600360205260408120805460019290611d669084906132f9565b90915550506001600160a01b0382166000908152600360205260408120805460019290611d949084906132ae565b909155505060008181526002602052604080822080546001600160a01b0319166001600160a01b0386811691821790925591518493918716917fddf252ad1be2c89b69c2b068fc378daa952ba7f163c4a11628f55a4df523b3ef91a4505050565b6000611e0082610abe565b9050611e0e8160008461243f565b611e19600083611ab8565b6001600160a01b0381166000908152600360205260408120805460019290611e429084906132f9565b909155505060008281526002602052604080822080546001600160a01b0319169055518391906001600160a01b038416907fddf252ad1be2c89b69c2b068fc378daa952ba7f163c4a11628f55a4df523b3ef908390a45050565b816001600160a01b0316836001600160a01b03161415611efe5760405162461bcd60e51b815260206004820152601960248201527f4552433732313a20617070726f766520746f2063616c6c657200000000000000604482015260640161076b565b6001600160a01b03838116600081815260056020908152604080832094871680845294825291829020805460ff191686151590811790915591519182527f17307eab39ab6107e8899845ad3d59bd9653f200f220920489ca2b5937696c31910160405180910390a3505050565b611f76848484611c1d565b611f82848484846124f7565b6110ba5760405162461bcd60e51b815260206004820152603260248201527f4552433732313a207472616e7366657220746f206e6f6e20455243373231526560448201527131b2b4bb32b91034b6b83632b6b2b73a32b960711b606482015260840161076b565b600082611ff6858461264f565b14949350505050565b6000808260405160200161201391906130a3565b60405160208183030381529060405290506000816040516020016120379190612f41565b60405160208183030381529060405290508051602082016000f092506001600160a01b0383166120a95760405162461bcd60e51b815260206004820152601160248201527f4445504c4f594d454e545f4641494c4544000000000000000000000000000000604482015260640161076b565b5050919050565b61102e8282604051806020016040528060008152506126d1565b606061065e8260016120e6816001600160a01b0384163b6132f9565b61274f565b60608161212b57505060408051808201909152600181527f3000000000000000000000000000000000000000000000000000000000000000602082015290565b8160005b8115612155578061213f8161339a565b915061214e9050600a836132c6565b915061212f565b60008167ffffffffffffffff81111561217e57634e487b7160e01b600052604160045260246000fd5b6040519080825280601f01601f1916602001820160405280156121a8576020820181803683370190505b5090505b8415611c15576121bd6001836132f9565b91506121ca600a866133b5565b6121d59060306132ae565b60f81b8183815181106121f857634e487b7160e01b600052603260045260246000fd5b60200101907effffffffffffffffffffffffffffffffffffffffffffffffffffffffffffff1916908160001a905350612232600a866132c6565b94506121ac565b606081516000141561225957505060408051602081019091526000815290565b6000604051806060016040528060408152602001613425604091399050600060038451600261228891906132ae565b61229291906132c6565b61229d9060046132da565b905060006122ac8260206132ae565b67ffffffffffffffff8111156122d257634e487b7160e01b600052604160045260246000fd5b6040519080825280601f01601f1916602001820160405280156122fc576020820181803683370190505b509050818152600183018586518101602084015b81831015612368576003830192508251603f8160121c168501518253600182019150603f81600c1c168501518253600182019150603f8160061c168501518253600182019150603f8116850151825350600101612310565b60038951066001811461238257600281146123ae576123d6565b7f3d3d0000000000000000000000000000000000000000000000000000000000006001198301526123d6565b7f3d000000000000000000000000000000000000000000000000000000000000006000198301525b509398975050505050505050565b600080600080600085875af19050806108bd5760405162461bcd60e51b815260206004820152601360248201527f4554485f5452414e534645525f4641494c454400000000000000000000000000604482015260640161076b565b6001600160a01b03831661249a5761249581600880546000838152600960205260408120829055600182018355919091527ff3f7a9fe364faab93b216da50a3214154f22a0a2b415b23a84c8169e8b636ee30155565b6124bd565b816001600160a01b0316836001600160a01b0316146124bd576124bd8382612772565b6001600160a01b0382166124d4576108bd8161280f565b826001600160a01b0316826001600160a01b0316146108bd576108bd82826128e8565b60006001600160a01b0384163b1561264457604051630a85bd0160e11b81526001600160a01b0385169063150b7a029061253b9033908990889088906004016131ae565b602060405180830381600087803b15801561255557600080fd5b505af1925050508015612585575060408051601f3d908101601f1916820190925261258291810190612d22565b60015b61262a573d8080156125b3576040519150601f19603f3d011682016040523d82523d6000602084013e6125b8565b606091505b5080516126225760405162461bcd60e51b815260206004820152603260248201527f4552433732313a207472616e7366657220746f206e6f6e20455243373231526560448201527131b2b4bb32b91034b6b83632b6b2b73a32b960711b606482015260840161076b565b805181602001fd5b6001600160e01b031916630a85bd0160e11b149050611c15565b506001949350505050565b600081815b84518110156126c957600085828151811061267f57634e487b7160e01b600052603260045260246000fd5b602002602001015190508083116126a557600083815260208290526040902092506126b6565b600081815260208490526040902092505b50806126c18161339a565b915050612654565b509392505050565b6126db838361292c565b6126e860008484846124f7565b6108bd5760405162461bcd60e51b815260206004820152603260248201527f4552433732313a207472616e7366657220746f206e6f6e20455243373231526560448201527131b2b4bb32b91034b6b83632b6b2b73a32b960711b606482015260840161076b565b60408051603f8301601f19168101909152818152818360208301863c9392505050565b6000600161277f84610bfb565b61278991906132f9565b6000838152600760205260409020549091508082146127dc576001600160a01b03841660009081526006602090815260408083208584528252808320548484528184208190558352600790915290208190555b5060009182526007602090815260408084208490556001600160a01b039094168352600681528383209183525290812055565b600854600090612821906001906132f9565b6000838152600960205260408120546008805493945090928490811061285757634e487b7160e01b600052603260045260246000fd5b90600052602060002001549050806008838154811061288657634e487b7160e01b600052603260045260246000fd5b60009182526020808320909101929092558281526009909152604080822084905585825281205560088054806128cc57634e487b7160e01b600052603160045260246000fd5b6001900381819060005260206000200160009055905550505050565b60006128f383610bfb565b6001600160a01b039093166000908152600660209081526040808320868452825280832085905593825260079052919091209190915550565b6001600160a01b0382166129825760405162461bcd60e51b815260206004820181905260248201527f4552433732313a206d696e7420746f20746865207a65726f2061646472657373604482015260640161076b565b6000818152600260205260409020546001600160a01b0316156129e75760405162461bcd60e51b815260206004820152601c60248201527f4552433732313a20746f6b656e20616c7265616479206d696e74656400000000604482015260640161076b565b6129f36000838361243f565b6001600160a01b0382166000908152600360205260408120805460019290612a1c9084906132ae565b909155505060008181526002602052604080822080546001600160a01b0319166001600160a01b03861690811790915590518392907fddf252ad1be2c89b69c2b068fc378daa952ba7f163c4a11628f55a4df523b3ef908290a45050565b80356001600160a01b0381168114612a9157600080fd5b919050565b803560038110612a9157600080fd5b60008083601f840112612ab6578182fd5b50813567ffffffffffffffff811115612acd578182fd5b602083019150836020828501011115612ae557600080fd5b9250929050565b80356001600160801b0381168114612a9157600080fd5b600060208284031215612b14578081fd5b612b1d82612a7a565b9392505050565b60008060408385031215612b36578081fd5b612b3f83612a7a565b9150612b4d60208401612a7a565b90509250929050565b600080600060608486031215612b6a578081fd5b612b7384612a7a565b9250612b8160208501612a7a565b9150604084013590509250925092565b60008060008060808587031215612ba6578081fd5b612baf85612a7a565b93506020612bbe818701612a7a565b935060408601359250606086013567ffffffffffffffff80821115612be1578384fd5b818801915088601f830112612bf4578384fd5b813581811115612c0657612c066133f5565b612c18601f8201601f1916850161327d565b91508082528984828501011115612c2d578485fd5b8084840185840137810190920192909252939692955090935050565b60008060408385031215612c5b578182fd5b612c6483612a7a565b915060208301358015158114612c78578182fd5b809150509250929050565b600080600060608486031215612c97578283fd5b612ca084612a7a565b9250612cae60208501612aec565b9150612cbc60408501612aec565b90509250925092565b60008060408385031215612cd7578182fd5b612ce083612a7a565b946020939093013593505050565b600060208284031215612cff578081fd5b5035919050565b600060208284031215612d17578081fd5b8135612b1d8161340b565b600060208284031215612d33578081fd5b8151612b1d8161340b565b60008060208385031215612d50578182fd5b823567ffffffffffffffff811115612d66578283fd5b612d7285828601612aa5565b90969095509350505050565b600060a08284031215612d8f578081fd5b60405160a0810181811067ffffffffffffffff82111715612db257612db26133f5565b8060405250823581526020830135602082015260408301356040820152612ddb60608401612a96565b6060820152612dec60808401612a96565b60808201529392505050565b600080600060408486031215612e0c578081fd5b83359250602084013567ffffffffffffffff811115612e29578182fd5b612e3586828701612aa5565b9497909650939450505050565b600080600080600060608688031215612e59578283fd5b85359450602086013567ffffffffffffffff80821115612e77578485fd5b612e8389838a01612aa5565b90965094506040880135915080821115612e9b578283fd5b818801915088601f830112612eae578283fd5b813581811115612ebc578384fd5b8960208260051b8501011115612ed0578384fd5b9699959850939650602001949392505050565b60008151808452612efb816020860160208601613310565b601f01601f19169290920160200192915050565b60038110612f2d57634e487b7160e01b600052602160045260246000fd5b9052565b8183823760009101908152919050565b7f600b5981380380925939f3000000000000000000000000000000000000000000815260008251612f7981600b850160208701613310565b91909101600b0192915050565b7f7b226e616d65223a22000000000000000000000000000000000000000000000081527f546f7a7a69204475636b20230000000000000000000000000000000000000000600982015260008351612fe4816015850160208801613310565b7f222c20226465736372697074696f6e223a2200000000000000000000000000006015918401918201527f48656c6c2079656168210000000000000000000000000000000000000000000060278201527f222c2022696d616765223a2022000000000000000000000000000000000000006031820152835161306d81603e840160208801613310565b7f227d000000000000000000000000000000000000000000000000000000000000603e9290910191820152604001949350505050565b600080825282516130bb816001850160208701613310565b9190910160010192915050565b7f646174613a6170706c69636174696f6e2f6a736f6e3b6261736536342c00000081526000825161310081601d850160208701613310565b91909101601d0192915050565b7f646174613a696d6167652f776562703b6261736536342c000000000000000000815260008251613145816017850160208701613310565b9190910160170192915050565b81518152602082015160208201526040820151604082015261317b606082016060840151612f0f565b61318c608082016080840151612f0f565b60a001919050565b838152818360208301376000910160200190815292915050565b60006001600160a01b038087168352808616602084015250836040830152608060608301526131e06080830184612ee3565b9695505050505050565b602081526000612b1d6020830184612ee3565b85815260006001600160a01b03808716602084015280861660408401525060806060830152826080830152828460a084013781830160a090810191909152601f909201601f19160101949350505050565b858152602081018590526040810184905260a081016132706060830185612f0f565b6131e06080830184612f0f565b604051601f8201601f1916810167ffffffffffffffff811182821017156132a6576132a66133f5565b604052919050565b600082198211156132c1576132c16133c9565b500190565b6000826132d5576132d56133df565b500490565b60008160001904831182151516156132f4576132f46133c9565b500290565b60008282101561330b5761330b6133c9565b500390565b60005b8381101561332b578181015183820152602001613313565b838111156110ba5750506000910152565b60006001600160801b03821680613355576133556133c9565b6000190192915050565b600181811c9082168061337357607f821691505b6020821081141561339457634e487b7160e01b600052602260045260246000fd5b50919050565b60006000198214156133ae576133ae6133c9565b5060010190565b6000826133c4576133c46133df565b500690565b634e487b7160e01b600052601160045260246000fd5b634e487b7160e01b600052601260045260246000fd5b634e487b7160e01b600052604160045260246000fd5b6001600160e01b03198116811461342157600080fd5b5056fe4142434445464748494a4b4c4d4e4f505152535455565758595a6162636465666768696a6b6c6d6e6f707172737475767778797a303132333435363738392b2fa2646970667358221220349eba2c8424df3ac386063a749a46197c5ec3361160e9e942ca259fba5ee23364736f6c634300080400334552433732313a207472616e7366657220746f206e6f6e204552433732315265",
  "linkReferences": {},
  "deployedLinkReferences": {}
}