{
  "_format": "hh-sol-artifact-1",
  "contractName": "TheAmazingTozziDuckMachine",
  "sourceName": "contracts/TheAmazingTozziDuckMachine.sol",
  "abi": [
    {
      "inputs": [
        {
          "internalType": "string",
          "name": "ownershipTokenURI",
          "type": "string"
        }
      ],
      "stateMutability": "nonpayable",
      "type": "constructor"
    },
    {
      "anonymous": false,
      "inputs": [
        {
          "indexed": true,
          "internalType": "address",
          "name": "owner",
          "type": "address"
        },
        {
          "indexed": true,
          "internalType": "address",
          "name": "approved",
          "type": "address"
        },
        {
          "indexed": true,
          "internalType": "uint256",
          "name": "tokenId",
          "type": "uint256"
        }
      ],
      "name": "Approval",
      "type": "event"
    },
    {
      "anonymous": false,
      "inputs": [
        {
          "indexed": true,
          "internalType": "address",
          "name": "owner",
          "type": "address"
        },
        {
          "indexed": true,
          "internalType": "address",
          "name": "operator",
          "type": "address"
        },
        {
          "indexed": false,
          "internalType": "bool",
          "name": "approved",
          "type": "bool"
        }
      ],
      "name": "ApprovalForAll",
      "type": "event"
    },
    {
      "anonymous": false,
      "inputs": [
        {
          "indexed": false,
          "internalType": "uint256",
          "name": "duckId",
          "type": "uint256"
        },
        {
          "indexed": false,
          "internalType": "address",
          "name": "admin",
          "type": "address"
        },
        {
          "indexed": false,
          "internalType": "address",
          "name": "owner",
          "type": "address"
        },
        {
          "indexed": false,
          "internalType": "string",
          "name": "reason",
          "type": "string"
        }
      ],
      "name": "CustomDuckBurned",
      "type": "event"
    },
    {
      "anonymous": false,
      "inputs": [
        {
          "indexed": true,
          "internalType": "enum DuckType",
          "name": "duckType",
          "type": "uint8"
        },
        {
          "indexed": true,
          "internalType": "address",
          "name": "who",
          "type": "address"
        },
        {
          "indexed": false,
          "internalType": "uint256",
          "name": "tokenId",
          "type": "uint256"
        },
        {
          "indexed": false,
          "internalType": "uint256",
          "name": "price",
          "type": "uint256"
        }
      ],
      "name": "DuckMinted",
      "type": "event"
    },
    {
      "anonymous": false,
      "inputs": [
        {
          "components": [
            {
              "internalType": "uint256",
              "name": "tozziDuckPrice",
              "type": "uint256"
            },
            {
              "internalType": "uint256",
              "name": "customDuckPrice",
              "type": "uint256"
            },
            {
              "internalType": "uint256",
              "name": "maxCustomDucks",
              "type": "uint256"
            },
            {
              "internalType": "bool",
              "name": "tozziDucksEnabled",
              "type": "bool"
            },
            {
              "internalType": "bool",
              "name": "customDucksEnabled",
              "type": "bool"
            }
          ],
          "indexed": true,
          "internalType": "struct TheAmazingTozziDuckMachine.MachineConfig",
          "name": "machineConfig",
          "type": "tuple"
        },
        {
          "indexed": true,
          "internalType": "address",
          "name": "who",
          "type": "address"
        }
      ],
      "name": "MachineConfigUpdated",
      "type": "event"
    },
    {
      "anonymous": false,
      "inputs": [
        {
          "indexed": true,
          "internalType": "address",
          "name": "from",
          "type": "address"
        },
        {
          "indexed": true,
          "internalType": "address",
          "name": "to",
          "type": "address"
        },
        {
          "indexed": true,
          "internalType": "uint256",
          "name": "tokenId",
          "type": "uint256"
        }
      ],
      "name": "Transfer",
      "type": "event"
    },
    {
      "inputs": [],
      "name": "BURN_WINDOW",
      "outputs": [
        {
          "internalType": "uint256",
          "name": "",
          "type": "uint256"
        }
      ],
      "stateMutability": "view",
      "type": "function"
    },
    {
      "inputs": [],
      "name": "OWNERSHIP_TOKEN_ID",
      "outputs": [
        {
          "internalType": "uint256",
          "name": "",
          "type": "uint256"
        }
      ],
      "stateMutability": "view",
      "type": "function"
    },
    {
      "inputs": [
        {
          "internalType": "address",
          "name": "to",
          "type": "address"
        },
        {
          "internalType": "uint256",
          "name": "tokenId",
          "type": "uint256"
        }
      ],
      "name": "approve",
      "outputs": [],
      "stateMutability": "nonpayable",
      "type": "function"
    },
    {
      "inputs": [
        {
          "internalType": "address",
          "name": "owner",
          "type": "address"
        }
      ],
      "name": "balanceOf",
      "outputs": [
        {
          "internalType": "uint256",
          "name": "",
          "type": "uint256"
        }
      ],
      "stateMutability": "view",
      "type": "function"
    },
    {
      "inputs": [
        {
          "internalType": "uint256",
          "name": "duckId",
          "type": "uint256"
        },
        {
          "internalType": "string",
          "name": "reason",
          "type": "string"
        }
      ],
      "name": "burnRenegadeDuck",
      "outputs": [],
      "stateMutability": "nonpayable",
      "type": "function"
    },
    {
      "inputs": [
        {
          "internalType": "uint256",
          "name": "",
          "type": "uint256"
        }
      ],
      "name": "customDuckHatchedTimes",
      "outputs": [
        {
          "internalType": "uint256",
          "name": "",
          "type": "uint256"
        }
      ],
      "stateMutability": "view",
      "type": "function"
    },
    {
      "inputs": [
        {
          "internalType": "uint256",
          "name": "",
          "type": "uint256"
        }
      ],
      "name": "duckIdToWEBP",
      "outputs": [
        {
          "internalType": "address",
          "name": "",
          "type": "address"
        }
      ],
      "stateMutability": "view",
      "type": "function"
    },
    {
      "inputs": [
        {
          "internalType": "uint256",
          "name": "tokenId",
          "type": "uint256"
        }
      ],
      "name": "getApproved",
      "outputs": [
        {
          "internalType": "address",
          "name": "",
          "type": "address"
        }
      ],
      "stateMutability": "view",
      "type": "function"
    },
    {
      "inputs": [
        {
          "internalType": "address",
          "name": "owner",
          "type": "address"
        },
        {
          "internalType": "address",
          "name": "operator",
          "type": "address"
        }
      ],
      "name": "isApprovedForAll",
      "outputs": [
        {
          "internalType": "bool",
          "name": "",
          "type": "bool"
        }
      ],
      "stateMutability": "view",
      "type": "function"
    },
    {
      "inputs": [
        {
          "internalType": "bytes32",
          "name": "",
          "type": "bytes32"
        }
      ],
      "name": "isCustomExisting",
      "outputs": [
        {
          "internalType": "bool",
          "name": "",
          "type": "bool"
        }
      ],
      "stateMutability": "view",
      "type": "function"
    },
    {
      "inputs": [],
      "name": "machineConfig",
      "outputs": [
        {
          "internalType": "uint256",
          "name": "tozziDuckPrice",
          "type": "uint256"
        },
        {
          "internalType": "uint256",
          "name": "customDuckPrice",
          "type": "uint256"
        },
        {
          "internalType": "uint256",
          "name": "maxCustomDucks",
          "type": "uint256"
        },
        {
          "internalType": "bool",
          "name": "tozziDucksEnabled",
          "type": "bool"
        },
        {
          "internalType": "bool",
          "name": "customDucksEnabled",
          "type": "bool"
        }
      ],
      "stateMutability": "view",
      "type": "function"
    },
    {
      "inputs": [
        {
          "internalType": "string",
          "name": "webp",
          "type": "string"
        }
      ],
      "name": "mintCustomDuck",
      "outputs": [],
      "stateMutability": "payable",
      "type": "function"
    },
    {
      "inputs": [
        {
          "internalType": "uint256",
          "name": "duckId",
          "type": "uint256"
        },
        {
          "internalType": "string",
          "name": "webp",
          "type": "string"
        },
        {
          "internalType": "bytes32[]",
          "name": "merkleProof",
          "type": "bytes32[]"
        }
      ],
      "name": "mintTozziDuck",
      "outputs": [],
      "stateMutability": "payable",
      "type": "function"
    },
    {
      "inputs": [],
      "name": "name",
      "outputs": [
        {
          "internalType": "string",
          "name": "",
          "type": "string"
        }
      ],
      "stateMutability": "view",
      "type": "function"
    },
    {
      "inputs": [
        {
          "internalType": "uint256",
          "name": "tokenId",
          "type": "uint256"
        }
      ],
      "name": "ownerOf",
      "outputs": [
        {
          "internalType": "address",
          "name": "",
          "type": "address"
        }
      ],
      "stateMutability": "view",
      "type": "function"
    },
    {
      "inputs": [
        {
          "internalType": "address",
          "name": "from",
          "type": "address"
        },
        {
          "internalType": "address",
          "name": "to",
          "type": "address"
        },
        {
          "internalType": "uint256",
          "name": "tokenId",
          "type": "uint256"
        }
      ],
      "name": "safeTransferFrom",
      "outputs": [],
      "stateMutability": "nonpayable",
      "type": "function"
    },
    {
      "inputs": [
        {
          "internalType": "address",
          "name": "from",
          "type": "address"
        },
        {
          "internalType": "address",
          "name": "to",
          "type": "address"
        },
        {
          "internalType": "uint256",
          "name": "tokenId",
          "type": "uint256"
        },
        {
          "internalType": "bytes",
          "name": "_data",
          "type": "bytes"
        }
      ],
      "name": "safeTransferFrom",
      "outputs": [],
      "stateMutability": "nonpayable",
      "type": "function"
    },
    {
      "inputs": [
        {
          "internalType": "address",
          "name": "operator",
          "type": "address"
        },
        {
          "internalType": "bool",
          "name": "approved",
          "type": "bool"
        }
      ],
      "name": "setApprovalForAll",
      "outputs": [],
      "stateMutability": "nonpayable",
      "type": "function"
    },
    {
      "inputs": [
        {
          "components": [
            {
              "internalType": "uint256",
              "name": "tozziDuckPrice",
              "type": "uint256"
            },
            {
              "internalType": "uint256",
              "name": "customDuckPrice",
              "type": "uint256"
            },
            {
              "internalType": "uint256",
              "name": "maxCustomDucks",
              "type": "uint256"
            },
            {
              "internalType": "bool",
              "name": "tozziDucksEnabled",
              "type": "bool"
            },
            {
              "internalType": "bool",
              "name": "customDucksEnabled",
              "type": "bool"
            }
          ],
          "internalType": "struct TheAmazingTozziDuckMachine.MachineConfig",
          "name": "setting",
          "type": "tuple"
        }
      ],
      "name": "setMachineConfig",
      "outputs": [],
      "stateMutability": "nonpayable",
      "type": "function"
    },
    {
      "inputs": [
        {
          "internalType": "bytes4",
          "name": "interfaceId",
          "type": "bytes4"
        }
      ],
      "name": "supportsInterface",
      "outputs": [
        {
          "internalType": "bool",
          "name": "",
          "type": "bool"
        }
      ],
      "stateMutability": "view",
      "type": "function"
    },
    {
      "inputs": [],
      "name": "symbol",
      "outputs": [
        {
          "internalType": "string",
          "name": "",
          "type": "string"
        }
      ],
      "stateMutability": "view",
      "type": "function"
    },
    {
      "inputs": [
        {
          "internalType": "uint256",
          "name": "index",
          "type": "uint256"
        }
      ],
      "name": "tokenByIndex",
      "outputs": [
        {
          "internalType": "uint256",
          "name": "",
          "type": "uint256"
        }
      ],
      "stateMutability": "view",
      "type": "function"
    },
    {
      "inputs": [
        {
          "internalType": "address",
          "name": "owner",
          "type": "address"
        },
        {
          "internalType": "uint256",
          "name": "index",
          "type": "uint256"
        }
      ],
      "name": "tokenOfOwnerByIndex",
      "outputs": [
        {
          "internalType": "uint256",
          "name": "",
          "type": "uint256"
        }
      ],
      "stateMutability": "view",
      "type": "function"
    },
    {
      "inputs": [
        {
          "internalType": "uint256",
          "name": "tokenId",
          "type": "uint256"
        }
      ],
      "name": "tokenURI",
      "outputs": [
        {
          "internalType": "string",
          "name": "",
          "type": "string"
        }
      ],
      "stateMutability": "view",
      "type": "function"
    },
    {
      "inputs": [],
      "name": "totalSupply",
      "outputs": [
        {
          "internalType": "uint256",
          "name": "",
          "type": "uint256"
        }
      ],
      "stateMutability": "view",
      "type": "function"
    },
    {
      "inputs": [
        {
          "internalType": "address",
          "name": "from",
          "type": "address"
        },
        {
          "internalType": "address",
          "name": "to",
          "type": "address"
        },
        {
          "internalType": "uint256",
          "name": "tokenId",
          "type": "uint256"
        }
      ],
      "name": "transferFrom",
      "outputs": [],
      "stateMutability": "nonpayable",
      "type": "function"
    },
    {
      "inputs": [
        {
          "internalType": "address",
          "name": "recipient",
          "type": "address"
        },
        {
          "internalType": "uint256",
          "name": "amount",
          "type": "uint256"
        }
      ],
      "name": "withdraw",
      "outputs": [],
      "stateMutability": "nonpayable",
      "type": "function"
    }
  ],
  "bytecode": "0x60806040523480156200001157600080fd5b5060405162003acc38038062003acc833981016040819052620000349162000852565b604080518082018252600b81526a546f7a7a69204475636b7360a81b602080830191825283518085019094526007845266545a4455434b5360c81b90840152815191929162000086916000916200077b565b5080516200009c9060019060208401906200077b565b50508151620000b49150600b9060208401906200077b565b50620000c3336101a4620000ca565b5062000a2d565b620000ec828260405180602001604052806000815250620000f060201b60201c565b5050565b620000fc83836200016c565b6200010b6000848484620002c2565b620001675760405162461bcd60e51b8152602060048201526032602482015260008051602062003aac83398151915260448201527131b2b4bb32b91034b6b83632b6b2b73a32b960711b60648201526084015b60405180910390fd5b505050565b6001600160a01b038216620001c45760405162461bcd60e51b815260206004820181905260248201527f4552433732313a206d696e7420746f20746865207a65726f206164647265737360448201526064016200015e565b6000818152600260205260409020546001600160a01b0316156200022b5760405162461bcd60e51b815260206004820152601c60248201527f4552433732313a20746f6b656e20616c7265616479206d696e7465640000000060448201526064016200015e565b62000239600083836200042b565b6001600160a01b0382166000908152600360205260408120805460019290620002649084906200095c565b909155505060008181526002602052604080822080546001600160a01b0319166001600160a01b03861690811790915590518392907fddf252ad1be2c89b69c2b068fc378daa952ba7f163c4a11628f55a4df523b3ef908290a45050565b6000620002e3846001600160a01b03166200050760201b620017021760201c565b156200041f57604051630a85bd0160e11b81526001600160a01b0385169063150b7a02906200031d90339089908890889060040162000906565b602060405180830381600087803b1580156200033857600080fd5b505af19250505080156200036b575060408051601f3d908101601f19168201909252620003689181019062000821565b60015b62000404573d8080156200039c576040519150601f19603f3d011682016040523d82523d6000602084013e620003a1565b606091505b508051620003fc5760405162461bcd60e51b8152602060048201526032602482015260008051602062003aac83398151915260448201527131b2b4bb32b91034b6b83632b6b2b73a32b960711b60648201526084016200015e565b805181602001fd5b6001600160e01b031916630a85bd0160e11b14905062000423565b5060015b949350505050565b620004438383836200016760201b620008411760201c565b6001600160a01b038316620004a1576200049b81600880546000838152600960205260408120829055600182018355919091527ff3f7a9fe364faab93b216da50a3214154f22a0a2b415b23a84c8169e8b636ee30155565b620004c7565b816001600160a01b0316836001600160a01b031614620004c757620004c7838262000516565b6001600160a01b038216620004e1576200016781620005c3565b826001600160a01b0316826001600160a01b0316146200016757620001678282620006a1565b6001600160a01b03163b151590565b600060016200053084620006f260201b62000acd1760201c565b6200053c919062000977565b60008381526007602052604090205490915080821462000590576001600160a01b03841660009081526006602090815260408083208584528252808320548484528184208190558352600790915290208190555b5060009182526007602090815260408084208490556001600160a01b039094168352600681528383209183525290812055565b600854600090620005d79060019062000977565b600083815260096020526040812054600880549394509092849081106200060e57634e487b7160e01b600052603260045260246000fd5b9060005260206000200154905080600883815481106200063e57634e487b7160e01b600052603260045260246000fd5b60009182526020808320909101929092558281526009909152604080822084905585825281205560088054806200068557634e487b7160e01b600052603160045260246000fd5b6001900381819060005260206000200160009055905550505050565b6000620006b983620006f260201b62000acd1760201c565b6001600160a01b039093166000908152600660209081526040808320868452825280832085905593825260079052919091209190915550565b60006001600160a01b0382166200075f5760405162461bcd60e51b815260206004820152602a60248201527f4552433732313a2062616c616e636520717565727920666f7220746865207a65604482015269726f206164647265737360b01b60648201526084016200015e565b506001600160a01b031660009081526003602052604090205490565b8280546200078990620009c4565b90600052602060002090601f016020900481019282620007ad5760008555620007f8565b82601f10620007c857805160ff1916838001178555620007f8565b82800160010185558215620007f8579182015b82811115620007f8578251825591602001919060010190620007db565b50620008069291506200080a565b5090565b5b808211156200080657600081556001016200080b565b60006020828403121562000833578081fd5b81516001600160e01b0319811681146200084b578182fd5b9392505050565b60006020828403121562000864578081fd5b81516001600160401b03808211156200087b578283fd5b818401915084601f8301126200088f578283fd5b815181811115620008a457620008a462000a17565b604051601f8201601f19908116603f01168101908382118183101715620008cf57620008cf62000a17565b81604052828152876020848701011115620008e8578586fd5b620008fb83602083016020880162000991565b979650505050505050565b600060018060a01b038087168352808616602084015250836040830152608060608301528251806080840152620009458160a085016020870162000991565b601f01601f19169190910160a00195945050505050565b6000821982111562000972576200097262000a01565b500190565b6000828210156200098c576200098c62000a01565b500390565b60005b83811015620009ae57818101518382015260200162000994565b83811115620009be576000848401525b50505050565b600181811c90821680620009d957607f821691505b60208210811415620009fb57634e487b7160e01b600052602260045260246000fd5b50919050565b634e487b7160e01b600052601160045260246000fd5b634e487b7160e01b600052604160045260246000fd5b61306f8062000a3d6000396000f3fe6080604052600436106101ac5760003560e01c80634f6ccce7116100ec578063b88d4fde1161008a578063c87b56dd11610064578063c87b56dd14610508578063e67399fa14610528578063e985e9c51461053b578063f3fef3a31461058457600080fd5b8063b88d4fde146104a5578063c2d5afab146104c5578063c40f4175146104d857600080fd5b8063820e215f116100c6578063820e215f1461043057806394cf233c1461045057806395d89b4114610470578063a22cb4651461048557600080fd5b80634f6ccce7146103d05780636352211e146103f057806370a082311461041057600080fd5b806318160ddd116101595780632ec25c61116101335780632ec25c61146103635780632f745c591461037a57806342842e0e1461039a5780634d5ea80e146103ba57600080fd5b806318160ddd146102d357806323b872dd146102e85780632dabc24f1461030857600080fd5b8063095ea7b31161018a578063095ea7b3146102405780631437253414610262578063149ba6051461029d57600080fd5b806301ffc9a7146101b157806306fdde03146101e6578063081812fc14610208575b600080fd5b3480156101bd57600080fd5b506101d16101cc366004612991565b6105a4565b60405190151581526020015b60405180910390f35b3480156101f257600080fd5b506101fb6105e8565b6040516101dd9190612e11565b34801561021457600080fd5b50610228610223366004612979565b61067a565b6040516001600160a01b0390911681526020016101dd565b34801561024c57600080fd5b5061026061025b366004612950565b610714565b005b34801561026e57600080fd5b5061028f61027d366004612979565b60126020526000908152604090205481565b6040519081526020016101dd565b3480156102a957600080fd5b506102286102b8366004612979565b6010602052600090815260409020546001600160a01b031681565b3480156102df57600080fd5b5060085461028f565b3480156102f457600080fd5b50610260610303366004612834565b610846565b34801561031457600080fd5b50600c54600d54600e54600f546103379392919060ff8082169161010090041685565b60408051958652602086019490945292840191909152151560608301521515608082015260a0016101dd565b34801561036f57600080fd5b5061028f62093a8081565b34801561038657600080fd5b5061028f610395366004612950565b6108cd565b3480156103a657600080fd5b506102606103b5366004612834565b610975565b3480156103c657600080fd5b5061028f6101a481565b3480156103dc57600080fd5b5061028f6103eb366004612979565b610990565b3480156103fc57600080fd5b5061022861040b366004612979565b610a42565b34801561041c57600080fd5b5061028f61042b3660046127e1565b610acd565b34801561043c57600080fd5b5061026061044b366004612a83565b610b67565b34801561045c57600080fd5b5061026061046b366004612a09565b610da4565b34801561047c57600080fd5b506101fb610ed6565b34801561049157600080fd5b506102606104a0366004612927565b610ee5565b3480156104b157600080fd5b506102606104c036600461286f565b610ef4565b6102606104d3366004612acd565b610f82565b3480156104e457600080fd5b506101d16104f3366004612979565b60116020526000908152604090205460ff1681565b34801561051457600080fd5b506101fb610523366004612979565b6111c6565b6102606105363660046129c9565b61130c565b34801561054757600080fd5b506101d1610556366004612802565b6001600160a01b03918216600090815260056020908152604080832093909416825291909152205460ff1690565b34801561059057600080fd5b5061026061059f366004612950565b6115f6565b60006001600160e01b031982167f780e9d630000000000000000000000000000000000000000000000000000000014806105e257506105e282611711565b92915050565b6060600080546105f790612f34565b80601f016020809104026020016040519081016040528092919081815260200182805461062390612f34565b80156106705780601f1061064557610100808354040283529160200191610670565b820191906000526020600020905b81548152906001019060200180831161065357829003601f168201915b5050505050905090565b6000818152600260205260408120546001600160a01b03166106f85760405162461bcd60e51b815260206004820152602c60248201527f4552433732313a20617070726f76656420717565727920666f72206e6f6e657860448201526b34b9ba32b73a103a37b5b2b760a11b60648201526084015b60405180910390fd5b506000908152600460205260409020546001600160a01b031690565b600061071f82610a42565b9050806001600160a01b0316836001600160a01b031614156107a95760405162461bcd60e51b815260206004820152602160248201527f4552433732313a20617070726f76616c20746f2063757272656e74206f776e6560448201527f720000000000000000000000000000000000000000000000000000000000000060648201526084016106ef565b336001600160a01b03821614806107c557506107c58133610556565b6108375760405162461bcd60e51b815260206004820152603860248201527f4552433732313a20617070726f76652063616c6c6572206973206e6f74206f7760448201527f6e6572206e6f7220617070726f76656420666f7220616c6c000000000000000060648201526084016106ef565b61084183836117ac565b505050565b610850338261181a565b6108c25760405162461bcd60e51b815260206004820152603160248201527f4552433732313a207472616e736665722063616c6c6572206973206e6f74206f60448201527f776e6572206e6f7220617070726f76656400000000000000000000000000000060648201526084016106ef565b610841838383611911565b60006108d883610acd565b821061094c5760405162461bcd60e51b815260206004820152602b60248201527f455243373231456e756d657261626c653a206f776e657220696e646578206f7560448201527f74206f6620626f756e647300000000000000000000000000000000000000000060648201526084016106ef565b506001600160a01b03919091166000908152600660209081526040808320938352929052205490565b61084183838360405180602001604052806000815250610ef4565b600061099b60085490565b8210610a0f5760405162461bcd60e51b815260206004820152602c60248201527f455243373231456e756d657261626c653a20676c6f62616c20696e646578206f60448201527f7574206f6620626f756e6473000000000000000000000000000000000000000060648201526084016106ef565b60088281548110610a3057634e487b7160e01b600052603260045260246000fd5b90600052602060002001549050919050565b6000818152600260205260408120546001600160a01b0316806105e25760405162461bcd60e51b815260206004820152602960248201527f4552433732313a206f776e657220717565727920666f72206e6f6e657869737460448201527f656e7420746f6b656e000000000000000000000000000000000000000000000060648201526084016106ef565b60006001600160a01b038216610b4b5760405162461bcd60e51b815260206004820152602a60248201527f4552433732313a2062616c616e636520717565727920666f7220746865207a6560448201527f726f20616464726573730000000000000000000000000000000000000000000060648201526084016106ef565b506001600160a01b031660009081526003602052604090205490565b33610b736101a4610a42565b6001600160a01b031614610bc95760405162461bcd60e51b815260206004820152601860248201527f63616c6c6572206973206e6f7420746865206f776e65722e000000000000000060448201526064016106ef565b60c8831015610c1a5760405162461bcd60e51b815260206004820152601b60248201527f546f7a7a69206475636b2063616e2774206265206275726e65642e000000000060448201526064016106ef565b6101a4831415610c6c5760405162461bcd60e51b815260206004820152601360248201527f4f776e65727368697020746f6b656e2049442e0000000000000000000000000060448201526064016106ef565b6000838152600260205260409020546001600160a01b0316610cd05760405162461bcd60e51b815260206004820152601460248201527f4475636b20646f6573206e6f742065786973742e00000000000000000000000060448201526064016106ef565b6000838152601260205260409020544290610cef9062093a8090612ea6565b811115610d3e5760405162461bcd60e51b815260206004820152601760248201527f4275726e2077696e646f7720686173207061737365642e00000000000000000060448201526064016106ef565b6000610d4985610a42565b9050610d5485611ae9565b7f8efa309b2a595f8cc583824fc568aadeb0d7f0b2697a8ee38c742dff2dfc020b85610d816101a4610a42565b838787604051610d95959493929190612e24565b60405180910390a15050505050565b33610db06101a4610a42565b6001600160a01b031614610e065760405162461bcd60e51b815260206004820152601860248201527f63616c6c6572206973206e6f7420746865206f776e65722e000000000000000060448201526064016106ef565b8051600c556020810151600d556040810151600e556060810151600f8054608084015115156101000261ff00199315159390931661ffff1990911617919091179055610e536101a4610a42565b6001600160a01b031681604051610ea39190815181526020820151602082015260408201516040820152606082015115156060820152608082015115156080820152600060a08201905092915050565b604051908190038120907fba4c43c804647aed8aa167c180d12bfaaef2fbb5788ca82445aaf99743308c9090600090a350565b6060600180546105f790612f34565b610ef0338383611b90565b5050565b610efe338361181a565b610f705760405162461bcd60e51b815260206004820152603160248201527f4552433732313a207472616e736665722063616c6c6572206973206e6f74206f60448201527f776e6572206e6f7220617070726f76656400000000000000000000000000000060648201526084016106ef565b610f7c84848484611c5f565b50505050565b600f5460ff16610fd45760405162461bcd60e51b815260206004820181905260248201527f546f7a7a69204475636b73204d696e74696e672069732064697361626c65642e60448201526064016106ef565b600c5434146110255760405162461bcd60e51b815260206004820152601760248201527f6d73672e76616c756520213d206475636b20707269636500000000000000000060448201526064016106ef565b600085858560405160200161103c93929190612dbb565b6040516020818303038152906040528051906020012090506110b48383808060200260200160405190810160405280939291908181526020018383602002808284376000920191909152507f0885f98e28c44d2dd7b21d5b9e2661e99e90482a771a419967dd2c9c8edfb0d79250859150611cdd9050565b6111005760405162461bcd60e51b815260206004820152600e60248201527f496e76616c69642050726f6f662e00000000000000000000000000000000000060448201526064016106ef565b600061114186868080601f016020809104026020016040519081016040528093929190818152602001838380828437600092019190915250611cf392505050565b600088815260106020526040902080546001600160a01b0319166001600160a01b03831617905590506111743388611da4565b336001600160a01b03166000600c54604080518b815260208101929092527f75defe4009cda68109a3791163c97861b017d6c6e2ae24b1613d48793b4a131d910160405180910390a350505050505050565b60606101a482141561126457600b80546111df90612f34565b80601f016020809104026020016040519081016040528092919081815260200182805461120b90612f34565b80156112585780601f1061122d57610100808354040283529160200191611258565b820191906000526020600020905b81548152906001019060200180831161123b57829003601f168201915b50505050509050919050565b600082815260106020526040812054611285906001600160a01b0316611dbe565b905060c88310156112b357806040516020016112a19190612d76565b60405160208183030381529060405290505b6112e56112bf84611ddf565b826040516020016112d1929190612bef565b604051602081830303815290604052611f2d565b6040516020016112f59190612d31565b604051602081830303815290604052915050919050565b6101a460c8600a5461131e9190612ea6565b141561133a57600a805490600061133483612f6f565b91905055505b600f54610100900460ff166113b75760405162461bcd60e51b815260206004820152602160248201527f437573746f6d204475636b73204d696e74696e672069732064697361626c656460448201527f2e0000000000000000000000000000000000000000000000000000000000000060648201526084016106ef565b600e54600a541061140a5760405162461bcd60e51b815260206004820152601a60248201527f437573746f6d206475636b206c696d697420726561636865642e00000000000060448201526064016106ef565b600d54341461145b5760405162461bcd60e51b815260206004820152601760248201527f6d73672e76616c756520213d206475636b20707269636500000000000000000060448201526064016106ef565b60008282604051602001611470929190612b9a565b60408051601f1981840301815291815281516020928301206000818152601190935291205490915060ff16156114e85760405162461bcd60e51b815260206004820152601b60248201527f437573746f6d206475636b20616c7265616479206578697374732e000000000060448201526064016106ef565b6000818152601160205260408120805460ff19166001179055600a8054908261151083612f6f565b9091555061151f9060c8612ea6565b9050600061156285858080601f016020809104026020016040519081016040528093929190818152602001838380828437600092019190915250611cf392505050565b600083815260106020526040902080546001600160a01b0319166001600160a01b03831617905590506115953383611da4565b6000828152601260205260409020429055336001600160a01b03166001600c546040805186815260208101929092527f75defe4009cda68109a3791163c97861b017d6c6e2ae24b1613d48793b4a131d910160405180910390a35050505050565b336116026101a4610a42565b6001600160a01b0316146116585760405162461bcd60e51b815260206004820152601860248201527f63616c6c6572206973206e6f7420746865206f776e65722e000000000000000060448201526064016106ef565b478111156116a85760405162461bcd60e51b815260206004820152601d60248201527f54686520616d6f756e7420686173206265656e2065786365656465642e00000060448201526064016106ef565b600081116116f85760405162461bcd60e51b815260206004820152601360248201527f54686520616d6f756e74206973207a65726f2e0000000000000000000000000060448201526064016106ef565b610ef082826120d8565b6001600160a01b03163b151590565b60006001600160e01b031982167f80ac58cd00000000000000000000000000000000000000000000000000000000148061177457506001600160e01b031982167f5b5e139f00000000000000000000000000000000000000000000000000000000145b806105e257507f01ffc9a7000000000000000000000000000000000000000000000000000000006001600160e01b03198316146105e2565b600081815260046020526040902080546001600160a01b0319166001600160a01b03841690811790915581906117e182610a42565b6001600160a01b03167f8c5be1e5ebec7d5bd14f71427d1e84f3dd0314c0f7b2291e5b200ac8c7c3b92560405160405180910390a45050565b6000818152600260205260408120546001600160a01b03166118935760405162461bcd60e51b815260206004820152602c60248201527f4552433732313a206f70657261746f7220717565727920666f72206e6f6e657860448201526b34b9ba32b73a103a37b5b2b760a11b60648201526084016106ef565b600061189e83610a42565b9050806001600160a01b0316846001600160a01b031614806118d95750836001600160a01b03166118ce8461067a565b6001600160a01b0316145b8061190957506001600160a01b0380821660009081526005602090815260408083209388168352929052205460ff165b949350505050565b826001600160a01b031661192482610a42565b6001600160a01b0316146119a05760405162461bcd60e51b815260206004820152602560248201527f4552433732313a207472616e736665722066726f6d20696e636f72726563742060448201527f6f776e657200000000000000000000000000000000000000000000000000000060648201526084016106ef565b6001600160a01b038216611a1b5760405162461bcd60e51b8152602060048201526024808201527f4552433732313a207472616e7366657220746f20746865207a65726f2061646460448201527f726573730000000000000000000000000000000000000000000000000000000060648201526084016106ef565b611a26838383612133565b611a316000826117ac565b6001600160a01b0383166000908152600360205260408120805460019290611a5a908490612ef1565b90915550506001600160a01b0382166000908152600360205260408120805460019290611a88908490612ea6565b909155505060008181526002602052604080822080546001600160a01b0319166001600160a01b0386811691821790925591518493918716917fddf252ad1be2c89b69c2b068fc378daa952ba7f163c4a11628f55a4df523b3ef91a4505050565b6000611af482610a42565b9050611b0281600084612133565b611b0d6000836117ac565b6001600160a01b0381166000908152600360205260408120805460019290611b36908490612ef1565b909155505060008281526002602052604080822080546001600160a01b0319169055518391906001600160a01b038416907fddf252ad1be2c89b69c2b068fc378daa952ba7f163c4a11628f55a4df523b3ef908390a45050565b816001600160a01b0316836001600160a01b03161415611bf25760405162461bcd60e51b815260206004820152601960248201527f4552433732313a20617070726f766520746f2063616c6c65720000000000000060448201526064016106ef565b6001600160a01b03838116600081815260056020908152604080832094871680845294825291829020805460ff191686151590811790915591519182527f17307eab39ab6107e8899845ad3d59bd9653f200f220920489ca2b5937696c31910160405180910390a3505050565b611c6a848484611911565b611c76848484846121eb565b610f7c5760405162461bcd60e51b815260206004820152603260248201527f4552433732313a207472616e7366657220746f206e6f6e20455243373231526560448201527131b2b4bb32b91034b6b83632b6b2b73a32b960711b60648201526084016106ef565b600082611cea8584612343565b14949350505050565b60008082604051602001611d079190612d0c565b6040516020818303038152906040529050600081604051602001611d2b9190612baa565b60405160208183030381529060405290508051602082016000f092506001600160a01b038316611d9d5760405162461bcd60e51b815260206004820152601160248201527f4445504c4f594d454e545f4641494c454400000000000000000000000000000060448201526064016106ef565b5050919050565b610ef08282604051806020016040528060008152506123c5565b60606105e2826001611dda816001600160a01b0384163b612ef1565b612443565b606081611e1f57505060408051808201909152600181527f3000000000000000000000000000000000000000000000000000000000000000602082015290565b8160005b8115611e495780611e3381612f6f565b9150611e429050600a83612ebe565b9150611e23565b60008167ffffffffffffffff811115611e7257634e487b7160e01b600052604160045260246000fd5b6040519080825280601f01601f191660200182016040528015611e9c576020820181803683370190505b5090505b841561190957611eb1600183612ef1565b9150611ebe600a86612f8a565b611ec9906030612ea6565b60f81b818381518110611eec57634e487b7160e01b600052603260045260246000fd5b60200101907effffffffffffffffffffffffffffffffffffffffffffffffffffffffffffff1916908160001a905350611f26600a86612ebe565b9450611ea0565b6060815160001415611f4d57505060408051602081019091526000815290565b6000604051806060016040528060408152602001612ffa6040913990506000600384516002611f7c9190612ea6565b611f869190612ebe565b611f91906004612ed2565b90506000611fa0826020612ea6565b67ffffffffffffffff811115611fc657634e487b7160e01b600052604160045260246000fd5b6040519080825280601f01601f191660200182016040528015611ff0576020820181803683370190505b509050818152600183018586518101602084015b8183101561205c576003830192508251603f8160121c168501518253600182019150603f81600c1c168501518253600182019150603f8160061c168501518253600182019150603f8116850151825350600101612004565b60038951066001811461207657600281146120a2576120ca565b7f3d3d0000000000000000000000000000000000000000000000000000000000006001198301526120ca565b7f3d000000000000000000000000000000000000000000000000000000000000006000198301525b509398975050505050505050565b600080600080600085875af19050806108415760405162461bcd60e51b815260206004820152601360248201527f4554485f5452414e534645525f4641494c45440000000000000000000000000060448201526064016106ef565b6001600160a01b03831661218e5761218981600880546000838152600960205260408120829055600182018355919091527ff3f7a9fe364faab93b216da50a3214154f22a0a2b415b23a84c8169e8b636ee30155565b6121b1565b816001600160a01b0316836001600160a01b0316146121b1576121b18382612466565b6001600160a01b0382166121c85761084181612503565b826001600160a01b0316826001600160a01b0316146108415761084182826125dc565b60006001600160a01b0384163b1561233857604051630a85bd0160e11b81526001600160a01b0385169063150b7a029061222f903390899088908890600401612dd5565b602060405180830381600087803b15801561224957600080fd5b505af1925050508015612279575060408051601f3d908101601f19168201909252612276918101906129ad565b60015b61231e573d8080156122a7576040519150601f19603f3d011682016040523d82523d6000602084013e6122ac565b606091505b5080516123165760405162461bcd60e51b815260206004820152603260248201527f4552433732313a207472616e7366657220746f206e6f6e20455243373231526560448201527131b2b4bb32b91034b6b83632b6b2b73a32b960711b60648201526084016106ef565b805181602001fd5b6001600160e01b031916630a85bd0160e11b149050611909565b506001949350505050565b600081815b84518110156123bd57600085828151811061237357634e487b7160e01b600052603260045260246000fd5b6020026020010151905080831161239957600083815260208290526040902092506123aa565b600081815260208490526040902092505b50806123b581612f6f565b915050612348565b509392505050565b6123cf8383612620565b6123dc60008484846121eb565b6108415760405162461bcd60e51b815260206004820152603260248201527f4552433732313a207472616e7366657220746f206e6f6e20455243373231526560448201527131b2b4bb32b91034b6b83632b6b2b73a32b960711b60648201526084016106ef565b60408051603f8301601f19168101909152818152818360208301863c9392505050565b6000600161247384610acd565b61247d9190612ef1565b6000838152600760205260409020549091508082146124d0576001600160a01b03841660009081526006602090815260408083208584528252808320548484528184208190558352600790915290208190555b5060009182526007602090815260408084208490556001600160a01b039094168352600681528383209183525290812055565b60085460009061251590600190612ef1565b6000838152600960205260408120546008805493945090928490811061254b57634e487b7160e01b600052603260045260246000fd5b90600052602060002001549050806008838154811061257a57634e487b7160e01b600052603260045260246000fd5b60009182526020808320909101929092558281526009909152604080822084905585825281205560088054806125c057634e487b7160e01b600052603160045260246000fd5b6001900381819060005260206000200160009055905550505050565b60006125e783610acd565b6001600160a01b039093166000908152600660209081526040808320868452825280832085905593825260079052919091209190915550565b6001600160a01b0382166126765760405162461bcd60e51b815260206004820181905260248201527f4552433732313a206d696e7420746f20746865207a65726f206164647265737360448201526064016106ef565b6000818152600260205260409020546001600160a01b0316156126db5760405162461bcd60e51b815260206004820152601c60248201527f4552433732313a20746f6b656e20616c7265616479206d696e7465640000000060448201526064016106ef565b6126e760008383612133565b6001600160a01b0382166000908152600360205260408120805460019290612710908490612ea6565b909155505060008181526002602052604080822080546001600160a01b0319166001600160a01b03861690811790915590518392907fddf252ad1be2c89b69c2b068fc378daa952ba7f163c4a11628f55a4df523b3ef908290a45050565b80356001600160a01b038116811461278557600080fd5b919050565b8035801515811461278557600080fd5b60008083601f8401126127ab578182fd5b50813567ffffffffffffffff8111156127c2578182fd5b6020830191508360208285010111156127da57600080fd5b9250929050565b6000602082840312156127f2578081fd5b6127fb8261276e565b9392505050565b60008060408385031215612814578081fd5b61281d8361276e565b915061282b6020840161276e565b90509250929050565b600080600060608486031215612848578081fd5b6128518461276e565b925061285f6020850161276e565b9150604084013590509250925092565b60008060008060808587031215612884578081fd5b61288d8561276e565b9350602061289c81870161276e565b935060408601359250606086013567ffffffffffffffff808211156128bf578384fd5b818801915088601f8301126128d2578384fd5b8135818111156128e4576128e4612fca565b6128f6601f8201601f19168501612e75565b9150808252898482850101111561290b578485fd5b8084840185840137810190920192909252939692955090935050565b60008060408385031215612939578182fd5b6129428361276e565b915061282b6020840161278a565b60008060408385031215612962578182fd5b61296b8361276e565b946020939093013593505050565b60006020828403121561298a578081fd5b5035919050565b6000602082840312156129a2578081fd5b81356127fb81612fe0565b6000602082840312156129be578081fd5b81516127fb81612fe0565b600080602083850312156129db578182fd5b823567ffffffffffffffff8111156129f1578283fd5b6129fd8582860161279a565b90969095509350505050565b600060a08284031215612a1a578081fd5b60405160a0810181811067ffffffffffffffff82111715612a3d57612a3d612fca565b8060405250823581526020830135602082015260408301356040820152612a666060840161278a565b6060820152612a776080840161278a565b60808201529392505050565b600080600060408486031215612a97578283fd5b83359250602084013567ffffffffffffffff811115612ab4578283fd5b612ac08682870161279a565b9497909650939450505050565b600080600080600060608688031215612ae4578283fd5b85359450602086013567ffffffffffffffff80821115612b02578485fd5b612b0e89838a0161279a565b90965094506040880135915080821115612b26578283fd5b818801915088601f830112612b39578283fd5b813581811115612b47578384fd5b8960208260051b8501011115612b5b578384fd5b9699959850939650602001949392505050565b60008151808452612b86816020860160208601612f08565b601f01601f19169290920160200192915050565b8183823760009101908152919050565b7f600b5981380380925939f3000000000000000000000000000000000000000000815260008251612be281600b850160208701612f08565b91909101600b0192915050565b7f7b226e616d65223a22000000000000000000000000000000000000000000000081527f546f7a7a69204475636b20230000000000000000000000000000000000000000600982015260008351612c4d816015850160208801612f08565b7f222c20226465736372697074696f6e223a2200000000000000000000000000006015918401918201527f48656c6c2079656168210000000000000000000000000000000000000000000060278201527f222c2022696d616765223a20220000000000000000000000000000000000000060318201528351612cd681603e840160208801612f08565b7f227d000000000000000000000000000000000000000000000000000000000000603e9290910191820152604001949350505050565b60008082528251612d24816001850160208701612f08565b9190910160010192915050565b7f646174613a6170706c69636174696f6e2f6a736f6e3b6261736536342c000000815260008251612d6981601d850160208701612f08565b91909101601d0192915050565b7f646174613a696d6167652f776562703b6261736536342c000000000000000000815260008251612dae816017850160208701612f08565b9190910160170192915050565b838152818360208301376000910160200190815292915050565b60006001600160a01b03808716835280861660208401525083604083015260806060830152612e076080830184612b6e565b9695505050505050565b6020815260006127fb6020830184612b6e565b85815260006001600160a01b03808716602084015280861660408401525060806060830152826080830152828460a084013781830160a090810191909152601f909201601f19160101949350505050565b604051601f8201601f1916810167ffffffffffffffff81118282101715612e9e57612e9e612fca565b604052919050565b60008219821115612eb957612eb9612f9e565b500190565b600082612ecd57612ecd612fb4565b500490565b6000816000190483118215151615612eec57612eec612f9e565b500290565b600082821015612f0357612f03612f9e565b500390565b60005b83811015612f23578181015183820152602001612f0b565b83811115610f7c5750506000910152565b600181811c90821680612f4857607f821691505b60208210811415612f6957634e487b7160e01b600052602260045260246000fd5b50919050565b6000600019821415612f8357612f83612f9e565b5060010190565b600082612f9957612f99612fb4565b500690565b634e487b7160e01b600052601160045260246000fd5b634e487b7160e01b600052601260045260246000fd5b634e487b7160e01b600052604160045260246000fd5b6001600160e01b031981168114612ff657600080fd5b5056fe4142434445464748494a4b4c4d4e4f505152535455565758595a6162636465666768696a6b6c6d6e6f707172737475767778797a303132333435363738392b2fa2646970667358221220d442dd932e3fbc7285725df401971d6dfca0d75abef7ab0d210bd86bf6bba11564736f6c634300080400334552433732313a207472616e7366657220746f206e6f6e204552433732315265",
  "linkReferences": {},
  "deployedLinkReferences": {}
}